S011000041746D6567613132382E7372656329
S11300008BC00000A8C00000A6C00000A4C000006F
S1130010A2C00000A0C000009EC000000C945F18A5
S11300209AC0000098C00000A6C60000AEC600003A
S1130030B6C60000BEC60000C6C60000CEC600009C
S1130040D6C6000088C000000C94A3080C94DB08FA
S113005082C0000021C100007EC000007CC00000FE
S1130060D0C60000D8C60000E0C60000E8C6000004
S1130070F0C600000C940E180C94750A0C94B00A87
S11300806AC0000068C0000066C0000008022402C4
S113009040025C0278029302AE02C902EF02F3024C
S11300A0F702FB02FF02030307030B03AA04AE04D7
S11300B0B204B604BA04C104C804CF04D304DA04F5
S11300C0E104E804EC04F304FA0416051A051E0519
S11300D0220528052C05300534053D054105450557
S11300E04E05A605AC05B205B805BE05C905D4057F
S11300F0DF05E505F005FB0506060C0617062206D6
S1130100410645064B06510657065D066306690619
S11301106F0675067B06810611241FBECFEFD0E162
S1130120DEBFCDBF11E0A0E0B1E0ECE4F2E300E01B
S11301300BBF02C007900D92AE33B107D9F722E08E
S1130140AEE3B1E001C01D92AA3AB207E1F70E9402
S11301500B160C94241954CF369B369AFC01EE0FDF
S1130160FF1FE95AFE4F8081918108950F931F93D9
S1130170CF93DF93CDB7DEB79F81688549855A85D4
S11301801FB78FB78F778FBF5093460140934501B8
S1130190109244011092430110923E0187B18F7373
S11301A087B9913019F0933021F008C03E9A01E0EC
S11301B006C087B1806C87B903E001C000E03D98B8
S11301C0141615068CF4DE011B9680E090E02D9148
S11301D03D91FC01EE0FFF1FE95BFE4F318320834D
S11301E001964817590799F787B1807E87B9E0913E
S11301F04301F0914401EE0FFF1FE95BFE4F808144
S1130200918127B18F719927822B87B9379A369AB2
S11302103598339A86B1887F86B96031D1F038F445
S1130220643079F0683081F0623029F507C06034B9
S1130230C1F06038D9F06032F1F40EC0309A22E097
S11302401EC0319A24E01BC086B1836086B928E0C1
S113025016C0329A20E113C086B1856086B920E2C7
S11302600EC086B1866086B920E409C086B1876075
S113027086B920E804C086B1876086B920E81FBF2C
S11302808FB780688FBF602F722F8CEA90E0DF9168
S1130290CF911F910F9108951F920F920FB60F9255
S11302A011240BB60F922F933F938F939F93EF9349
S11302B0FF9384B190E09093400180933F0125B176
S11302C080913F0190914001922B90934001809343
S11302D03F0180913E018430A0F480913E018F5F04
S11302E080933E0120913F01309140018091410172
S11302F090914201820F931F909342018093410198
S113030043C0E0914301F0914401809141019091F7
S113031042019595879595958795EE0FFF1FE95AAC
S1130320FE4F9183808310924201109241011092FA
S11303303E01209143013091440180914501909107
S113034046012817390754F48091430190914401E0
S11303500196909344018093430104C01092440198
S11303601092430187B1807E87B9E0914301F091F7
S11303704401EE0FFF1FE95BFE4F8081918127B19D
S11303808F719927822B87B9FF91EF919F918F915C
S11303903F912F910F900BBE0F900FBE0F901F90A7
S11303A0189584B78F718430A9F028F4813041F016
S11303B0823059F01EC0883091F08031A9F019C004
S11303C084B78E7F84BF80E0089584B78D7F84BF17
S11303D081E0089584B78B7F84BF82E0089584B759
S11303E0877F84BF83E0089584B78F7E84BF84E0D1
S11303F0089584B7807E84BF80E0089590E08830BB
S1130400910508F0E1C0FC01EA5BFF4F0C9402196E
S113041089B78E7F89BFEAE6F0E080818C7F808394
S1130420623019F0633039F00BC0EAE6F0E0808105
S11304308260808305C0EAE6F0E080818360808387
S113044089B7816089BF089589B78D7F89BFEAE63E
S1130450F0E08081837F8083623019F0633039F06B
S11304600BC0EAE6F0E080818860808305C0EAE69C
S1130470F0E080818C60808389B7826089BF0895B1
S113048089B78B7F89BFEAE6F0E080818F7C808327
S1130490623019F0633039F00BC0EAE6F0E0808195
S11304A08062808305C0EAE6F0E080818063808317
S11304B089B7846089BF089589B7877F89BFEAE6D1
S11304C0F0E080818F738083623019F0633039F0FB
S11304D00BC0EAE6F0E080818068808305C0EAE62C
S11304E0F0E08081806C808389B7886089BF08953B
S11304F089B78F7E89BF8AB78C7F8ABF623041F00B
S1130500633051F0613059F48AB781608ABF07C003
S11305108AB782608ABF03C08AB783608ABF89B7FB
S1130520806189BF089589B78F7D89BF8AB7837F2A
S11305308ABF623041F0633051F0613059F48AB7B8
S113054084608ABF07C08AB788608ABF03C08AB73D
S11305508C608ABF89B7806289BF089589B78F7B11
S113056089BF8AB78F7C8ABF623041F0633051F013
S1130570613059F48AB780618ABF07C08AB7806244
S11305808ABF03C08AB780638ABF89B7806489BF82
S1130590089589B78F7789BF8AB78F738ABF62300E
S11305A041F0633051F0613059F48AB780648ABFF6
S11305B007C08AB780688ABF03C08AB7806C8ABFC5
S11305C089B7806889BF089519BE089590E088307E
S11305D0910528F5FC01E25BFF4F0C94021989B7E1
S11305E08E7F89BF089589B78D7F89BF089589B7A4
S11305F08B7F89BF089589B7877F89BF089589B79D
S11306008F7E89BF089589B78F7D89BF089589B783
S11306108F7B89BF089589B78F7789BF089519BEE5
S11306200895CF93DF9300D000D000D0CDB7DEB7CC
S113063019BE2EEF31E03A83298346EE52E05C8303
S11306404B8361ED71E07E836D833A815C817E81B1
S113065080E090E026960FB6F894DEBF0FBECDBFC3
S1130660DF91CF9108952091F101211142C02FEF24
S11306703FEF3BBD2ABD2EB5287F2EBD88309105A6
S1130680D1F048F48330910531F18530910539F189
S1130690019749F50CC0811521E09207A1F081155D
S11306A024E09207A1F080349105E9F408C08EB5E6
S11306B081608EBD1BC08EB582608EBD17C08EB5A5
S11306C083608EBD13C08EB584608EBD0FC08EB5A1
S11306D085608EBD0BC08EB586608EBD07C08EB59D
S11306E087608EBD03C08EB585608EBD81E080932A
S11306F0F10108959FB59F739FBD823041F083300F
S113070051F0813059F48FB580648FBD08958FB551
S113071080688FBD08958FB5806C8FBD08959FB597
S11307209F7C9FBD823041F0833051F0813059F479
S11307308FB580618FBD08958FB580628FBD089598
S11307408FB580638FBD08959FB5937F9FBD823021
S113075041F0833051F0813059F48FB584608FBDFE
S113076008958FB588608FBD08958FB58C608FBD57
S113077008959BBD8ABD089599BD88BD0895909341
S113078079008093780008958EB5887F8EBD1DBC56
S11307901CBC1092F10108952091F201211156C060
S11307A02FEF3FEF3093870020938600EAE8F0E0D4
S11307B02081287F208388309105E1F048F483303C
S11307C0910581F18530910599F10197B9F50CC036
S11307D0811521E09207D1F0811524E09207E1F020
S11307E08034910559F50CC0EAE8F0E0808181601D
S11307F0808329C0EAE8F0E080818260808323C09E
S1130800EAE8F0E08081836080831DC0EAE8F0E0DC
S113081080818460808317C0EAE8F0E0808185608D
S1130820808311C0EAE8F0E08081866080830BC099
S1130830EAE8F0E080818760808305C0EAE8F0E0C0
S113084080818560808381E08093F2010895EBE8E4
S1130850F0E090819F739083823041F0833061F0A7
S1130860813079F48081806480830895EBE8F0E03E
S11308708081806880830895EBE8F0E08081806C5B
S113088080830895EBE8F0E090819F7C9083823030
S113089041F0833061F0813079F48081806180831C
S11308A00895EBE8F0E08081806280830895EBE8AE
S11308B0F0E08081806380830895EBE8F0E090812C
S11308C0937F9083823041F0833061F0813079F4FA
S11308D08081846080830895EBE8F0E08081886003
S11308E080830895EBE8F0E080818C608083089534
S11308F09093870080938600089590938500809359
S11309008400089590938300809382000895EAE818
S1130910F0E08081887F80831092890010928800A3
S11309201092F20108950F931F93DC011092F101CC
S11309308FB58C7F8FBD8EB5877E8EBD062F10E060
S1130940F8013197EF30F10508F05AC0EA5AFF4F29
S11309500C9402198FB581608FBD52C08FB582602F
S11309608FBD4EC08FB583608FBD4AC08EB5886081
S11309708EBD46C08FB581608FBD8EB588608EBD3B
S11309803FC08FB582608FBD8EB588608EBD38C084
S11309908FB583608FBD8EB588608EBD31C08EB536
S11309A080618EBD2DC08FB581608FBD8EB5806195
S11309B08EBD26C08FB582608FBD8EB580618EBD21
S11309C01FC08FB583608FBD8EB580618EBD18C08A
S11309D08EB588618EBD14C08FB581608FBD8EB514
S11309E088618EBD0DC08FB582608FBD8EB5886164
S11309F08EBD06C08FB583608FBD8EB588618EBDF8
S1130A008FB583708FBD87B7837C87BFEDE7F0E038
S1130A1080818E7F808350E0FA013197EC30F105BC
S1130A2008F044C0EB59FF4F0C94021987B7846057
S1130A3087BF3CC087B7806187BF38C087B78860ED
S1130A4087BF34C0EDE7F0E08081816080832EC0F1
S1130A5087B7806287BF2AC087B7846187BF26C0F3
S1130A6087B78C6087BF22C087B7846087BFEDE7F4
S1130A70F0E080818160808319C087B7846287BF7A
S1130A8015C087B78C6187BF11C087B78C6187BFDA
S1130A90EDE7F0E080818160808308C087B78861DA
S1130AA087BFEDE7F0E08081816080838AE793E08F
S1130AB011969C938E938FE893E013969C938E9358
S1130AC0129784EA93E015969C938E93149789EB7E
S1130AD093E017969C938E9316978CEB93E019965C
S1130AE09C938E9318978FEB93E01B969C938E9315
S1130AF01A9783E393E01D969C938E931C9784EC42
S1130B0093E01F969C938E931E97CD011F910F9196
S1130B1008950F931F93CF93DF93DC011092F2019A
S1130B20CBE8D0E088818C7F8883CAE8D0E08881D4
S1130B30877E8883062F10E0F8013197EF30F105A6
S1130B4008F08AC0EF58FF4F0C940219EBE8F0E06C
S1130B5080818160808380C0EBE8F0E080818260E6
S1130B6080837AC0EBE8F0E080818360808374C086
S1130B70EAE8F0E08081886080836EC0EBE8F0E012
S1130B80808181608083EAE8F0E0808188608083EE
S1130B9063C0EBE8F0E0808182608083EAE8F0E003
S1130BA080818860808358C0EBE8F0E080818360B6
S1130BB08083EAE8F0E08081886080834DC0EAE8C1
S1130BC0F0E080818061808347C0EBE8F0E08081C1
S1130BD081608083EAE8F0E08081806180833CC0AA
S1130BE0EBE8F0E0808182608083EAE8F0E08081D5
S1130BF08061808331C0EBE8F0E080818360808392
S1130C00EAE8F0E080818061808326C0EAE8F0E0D1
S1130C1080818861808320C0EBE8F0E0808181607E
S1130C208083EAE8F0E080818861808315C0EBE886
S1130C30F0E0808182608083EAE8F0E0808188616E
S1130C4080830AC0EBE8F0E0808183608083EAE877
S1130C50F0E0808188618083EBE8F0E0808183703C
S1130C608083EDE7F0E08081817C808350E0FA01AD
S1130C703197EC30F10508F049C0E058FF4F0C946F
S1130C80021984E080937D0041C0EDE7F0E08081AB
S1130C90806180833BC0EDE7F0E0808188608083E1
S1130CA035C0EDE7F0E08081826080832FC0EDE7FE
S1130CB0F0E080818062808329C0EDE7F0E08081EC
S1130CC08461808323C0EDE7F0E080818C608083C1
S1130CD01DC0EDE7F0E080818660808317C0EDE7FA
S1130CE0F0E080818462808311C0EDE7F0E08081D0
S1130CF08C6180830BC0EDE7F0E080818E6180839E
S1130D0005C0EDE7F0E080818A61808387E294E0AA
S1130D1011969C938E9382E494E013969C938E9305
S1130D2012978DE594E015969C938E93149788E71B
S1130D3094E017969C938E9316978DE794E01996FA
S1130D409C938E93189782E894E01B969C938E93C1
S1130D501A978CEC93E01D969C938E931C9787E8CE
S1130D6094E01F969C938E931E97CD01DF91CF91B3
S1130D701F910F9108951F920F920FB60F92112495
S1130D800F900FBE0F901F9018951F920F920FB6E1
S1130D900F9211240F900FBE0F901F9018951F9261
S1130DA00F920FB60F9211240F900FBE0F901F9049
S1130DB018951F920F920FB60F9211240F900FBE29
S1130DC00F901F9018951F920F920FB60F92112437
S1130DD00F900FBE0F901F9018951F920F920FB691
S1130DE00F9211240F900FBE0F901F9018951F9211
S1130DF00F920FB60F9211240F900FBE0F901F90F9
S1130E0018951F920F920FB60F9211240F900FBED8
S1130E100F901F9018951F920F920FB60F921124E6
S1130E200F900FBE0F901F9018951F920F920FB640
S1130E300F9211240F900FBE0F901F9018951F92C0
S1130E400F920FB60F9211240F900FBE0F901F90A8
S1130E5018951F920F920FB60F9211240F900FBE88
S1130E600F901F9018951F93CF93DF93EC011FB73A
S1130E708FB78F778FBF16163CF46093F501660F1A
S1130E8061606093720003C082E08093F50181B3D6
S1130E90836081BB82B3836082BB443079F018F4F1
S1130EA0413031F01DC0403179F0403499F018C020
S1130EB0E1E7F0E080818C7F808318C0E1E7F0E017
S1130EC080818160808312C0E1E7F0E080818260EC
S1130ED080830CC0E1E7F0E080818360808306C0FA
S1130EE0E1E7F0E080818C7F808341E0242F30E0D3
S1130EF0220F331F032E000C440B550B60E970E0E6
S1130F0080E090E00E94C418209370001FBF8FB748
S1130F1080688FBF8FEE97E0998388838FEF97E087
S1130F209B838A8388E198E09D838C8380E398E0A7
S1130F309F838E8387EC97E099878887CE01DF9122
S1130F40CF911F910895813061F028F0823079F0BB
S1130F50833099F018C0E4E7F0E08081846A8083EC
S1130F600895E4E7F0E08081846880830895E4E7ED
S1130F70F0E08081846C80830895E4E7F0E0808170
S1130F8084698083089584E980937400089580912E
S1130F907100887F883351F028F4803239F080332F
S1130FA039F404C0883411F0883511F483E0CBDFC0
S1130FB083E0C9CF0895AC018091740088232CF498
S1130FC008954217530728F4089520E030E0E4E739
S1130FD0F0E02F5F3F4F908199239CF70895882379
S1130FE041F0E4E7F0E085E4808380818F7C8083B6
S1130FF0089580E0A8DF88EA92E0DDCF089590911B
S11310007100987F983099F4E4E7F0E090819F7D37
S1131010908318162CF4880F862B8093730002C0DB
S11310201092730081E08FDF88EA92E0C4CF0895C4
S113103090917100987F983119F0983249F0089591
S11310408093730081E07FDF88EA92E0B4CF089553
S11310508093730081E077DF88EA92E0ACCF089553
S1131060CF93C82F80917100887F803419F0803528
S1131070E1F037C0C13051F0C23081F482E063DF67
S113108088EA92E098DF8091730013C081E05BDF0F
S113109088EA92E090DF8091730013C081E053DF0F
S11310A088EA92E088DF80917300C13051F0C23049
S11310B081F482E048DF88EA92E07DDF809173006A
S11310C011C081E040DF88EA92E075DF809173000F
S11310D009C081E038DF88EA92E06DDF8091730017
S11310E001C088E5CF9108959091690180916801CC
S11310F09817A1F0809168018F5F8F7180936801C8
S1131100E0916801F0E0E459FE4F2081809167018D
S113111090E0982F8827820F911D089580E091E038
S11311200895809169012091680190E04F96821B97
S113113091096FE170E00C94B118089580916801F1
S11311408093690108951F920F920FB60F92112494
S11311500BB60F928F939F93EF93FF938BB19AB13A
S113116088718093AC01E091AE01EF5FEF718091E3
S1131170AD01E81304C082E08093AC0111C09CB1BE
S1131180E093AE018091AC01882331F0F0E0EF549C
S1131190FE4F88E5808304C0F0E0EF54FE4F908357
S11311A0FF91EF919F918F910F900BBE0F900FBE07
S11311B00F901F9018951F920F920FB60F92112443
S11311C00BB60F928F939F93EF93FF939091B0017F
S11311D08091AF01981302C055980BC0E091AF0104
S11311E0EF5FEF71E093AF01F0E0EF52FE4F8081CB
S11311F08CB9FF91EF919F918F910F900BBE0F903F
S11312000FBE0F901F901895FF920F931F93CF93CB
S1131210DF93FC01FFB68FB78F778FBF10926B01FE
S113122010926A01109269011092680110921802DA
S11312301092170210921902772334F482E08093FB
S11312409B00CB019F7701C0CB01909398008093C2
S1131250990088E980939A004730510551F140F490
S11312604530510509F445C04630510591F14EC051
S11312704830510589F04930510509F047C0CAE9A1
S1131280D0E0888184608883CDE9D0E0888186605D
S11312908883C9E0D0E046C0CAE9D0E088818B7F6A
S11312A08883CDE9D0E0888186608883C8E0D0E077
S11312B039C0CAE9D0E088818B7F8883CDE9D0E04A
S11312C088818460888388818D7F8883C7E0D0E0AB
S11312D029C0CAE9D0E088818B7F8883CDE9D0E03A
S11312E088818B7F8883888182608883C6E0D0E090
S11312F019C0CAE9D0E088818B7F8883CDE9D0E02A
S11313008881897F8883C5E0D0E00CC0CAE9D0E039
S113131088818B7F8883CDE9D0E08881866088834B
S1131320C8E0D0E02130310521F02230310551F000
S113133012C02DE930E0D9018C91877F8C9341E074
S113134050E011C02DE930E0D9018C9188608C9374
S113135042E050E008C02DE930E0D9018C91877F4C
S11313608C9341E050E00230110571F00330110517
S1131370B9F0012BF1F42DE930E0D9018C918F7C87
S11313808C9320E030E01DC08DE990E0DC012C91CD
S113139020622C932C912F7E2C9322E030E011C0FC
S11313A02DE930E0D9018C9180638C9323E030E007
S11313B008C02DE930E0D9018C918F7C8C9320E01A
S11313C030E0FFBE8FB780688FBF71836083D383A3
S11313D0C283558344833783268381E29AE09187CD
S11313E0808784E798E09387828780E69AE09587F0
S11313F0848787E69AE09787868781E998E0918BCE
S1131400808B8EE998E0938B828BCF01DF91CF9113
S11314101F910F91FF900895909169018091680147
S1131420981769F0809168018F5F8F7180936801CC
S1131430E0916801F0E0E459FE4F8081089580E076
S11314400895CF93DF939091680180916901981773
S1131450D9F0C0911702D0911802CF31D105A4F46C
S1131460DBDFC75EDD4F88838091170290911802FD
S113147001969093180280931702FC01E75EFD4FDA
S1131480108280E291E006C01092180210921702B6
S113149089E192E0DF91CF91089590916B019F5F74
S11314A09F7190936B0120916B0190916A012917B0
S11314B0D1F3E0916B01F0E0E457FE4F808308958F
S11314C0ECDFEAE9F0E08081806280830895CF93C5
S11314D0DF93EC018881882329F02196F1DF89913B
S11314E08111FCCFDF91CF9108951F920F920FB617
S11314F00F9211240BB60F928F939F93EF93FF9348
S113150080919B0090919A00887180936701E0918B
S11315106901EF5FEF7180916801E81304C082E014
S11315208093670112C090919C00E09369018091BF
S11315306701882331F0F0E0E459FE4F88E58083A9
S113154004C0F0E0E459FE4F9083FF91EF919F9126
S11315508F910F900BBE0F900FBE0F901F90189598
S11315601F920F920FB60F9211240BB60F928F9306
S11315709F93EF93FF9390916B0180916A0198136D
S113158006C0EAE9F0E080818F7D80830EC08091FF
S11315906A018F5F8F7180936A01E0916A01F0E0C4
S11315A0E457FE4F808180939C00FF91EF919F91BF
S11315B08F910F900BBE0F900FBE0F901F90189538
S11315C0E8E4F2E08083618342830895E8E4F2E092
S11315D082818F5F82838C330CF47AC081818F5F28
S11315E0818312828C3344F080818F5F80831182E7
S11315F0883114F0109248028091480290914B0275
S113160089132AC090914E02943009F053C093E09C
S113161090934E0220914C0290914902291309C0E3
S113162004C090914E02933051F492E090934E0294
S113163006C02091490290914C0229130DC02091BB
S11316404A0290914D02291307C090914E029230A4
S113165019F491E090934E029091450298133FC083
S113166080914402843069F583E080934402909130
S1131670490280914602981309C004C08091440233
S1131680833051F482E08093440206C09091490271
S113169080914602981323C090914A028091470298
S11316A098131DC0809144028230C9F481E0809374
S11316B0440208952091490290914C022913CCCF01
S11316C0B0CF9091490280914602981308C0D6CFBA
S11316D08091480290914B029813BECF93CF089506
S11316E0E8E4F2E082818150828388230CF047C0D1
S11316F08181815081839BE3928388234CF4808190
S113170081508083918388231CF487E1809348026D
S11317109091480280914502981337C08091440209
S1131720843031F583E080934402909149028091A2
S11317304602981309C004C080914402833051F4D6
S113174082E08093440206C090914902809146024F
S113175098131BC090914A0280914702981315C0B8
S113176080914402823089F481E080934402089598
S11317709091490280914602981307C0DDCF909161
S1131780480280914502981749F2089590914402C5
S1131790911108C0E5E4F2E080836183428384E030
S11317A080934402809144020895CF92DF92EF9295
S11317B0FF920F931F93CF93DF93FC0180914E020E
S11317C0811165C09F01A9E8B8E80E940B196C015A
S11317D0D694C794D694C794D694C794D694C794F1
S11317E0D694C7944CE34C9DC0014D9D900D11249B
S11317F0281B390BC8E4D2E08A81082E000C990B0F
S1131800820F911D0BE412E00F2EFCE3EF2EF12C5E
S1131810F02DB7010E94B118562FD80112968C935F
S11318209601A9E8B8E80E940B19969587959295B8
S113183082958F7089279F708927489F9001499FBF
S1131840300D1124C21AD30A8981082E000C990B79
S11318508C0D911D850F911DB7010E94B118262F83
S1131860D80111968C93CF0160E17EE00E949D180F
S11318708881680F620F693128F088E1861B8093A4
S11318804B0202C060934B0284E080934E0280912D
S11318904E02DF91CF911F910F91FF90EF90DF9057
S11318A0CF9008951092440208958FE080934402EB
S11318B0089510924E0208958FE080934E02089589
S11318C0EBE3F2E01086A8E4B2E012962C911297B2
S11318D087E62802912D11249595959527FD9395DA
S11318E0492F440F342F330F330F340F231B205D44
S11318F027832DEC929F312D1124369536953695FC
S1131900330F432F440F440F340F931B905D968382
S11319105AE3558311963C9111973802912D112465
S11319209595959537FD9395692F660F462F440F2E
S1131930440F460F341B305D3483929F312D1124A4
S1131940369536953695330F432F440F440F340F95
S1131950931B905D938352839C919802812D112453
S11319608595859597FD8395482F440F342F330F24
S1131970330F340F931B905D9183829F212D11248B
S1131980269526952695220F922F990F990F290FA8
S1131990821B805D8083CF010895FC01A8E4B2E03E
S11319A06C9311964C93119712962C938FE080931D
S11319B0440280934E0280EE9AE09183808386EE07
S11319C09AE09383828380E79BE09583848386EC0B
S11319D09BE09783868385ED9BE09187808789E5EB
S11319E09CE0938782878CE59CE09587848782E5D9
S11319F09CE09787868785E59CE0918B808B80E6C9
S1131A009CE0938B828BCF0108956823442321F0BB
S1131A10861721F080E00895611180E00895862BF7
S1131A2008958623089586230895862B8095089526
S1131A30862786230895609586230895862708952A
S1131A40CF92DF92EF92FF920F931F93FC010081DC
S1131A50118122813381FB01C080D180E280F38037
S1131A60FC01C082D182E282F382FB0100831183F4
S1131A70228333831F910F91FF90EF90DF90CF90DB
S1131A800895FB012081FC012083222339F0DB012E
S1131A90119631969D9191939111FCCF0895CF9316
S1131AA0DF93EC019881992399F0FE01319620E0AF
S1131AB030E0492F50E04617570731F0DE01A20FFE
S1131AC0B31F9C932F5F3F4F91919111F2CF02C0AE
S1131AD020E030E0FE01E20FF31F1082DF91CF918E
S1131AE008952F923F924F925F926F927F928F92BE
S1131AF09F92AF92BF92CF92DF92EF92FF920F9399
S1131B001F93CF93DF9300D000D0CDB7DEB72C0165
S1131B101B014B0177231CF42FEF821A920A959430
S1131B208794181419040CF451C06AC09601DD207E
S1131B309CF1F50140815181F40160817181641748
S1131B40750754F58C010A0D1B1DD401BC82AB82B0
S1131B50BA82A982EB81FC817183608311965C93C4
S1131B604E932E193F09C2F0F80140815181E98159
S1131B70FA8160817181080F191FE80FF91FFA8338
S1131B80E983EB81FC81E80FF91FFC83EB83A80F49
S1131B90B91F64177507F4F2FFEFCF1ADF0A22E0CA
S1131BA0A20EB11CE2E08E0E911CC614D70409F0FB
S1131BB0BDCF4701FF201CF4FFEF8F1A9F0A9594B5
S1131BC0879418141904E4F4740101C07401821494
S1131BD093047CF76401CE18DF085601AA0CBB1CE1
S1131BE0A40CB51C880C991C840C951C31016E182E
S1131BF07F08C701880F991F91958195910996CF08
S1131C000F900F900F900F90DF91CF911F910F9134
S1131C10FF90EF90DF90CF90BF90AF909F908F9008
S1131C207F906F905F904F903F902F90089586170C
S1131C3097070CF4CB0108959B01672B11F40895C9
S1131C409A01B9010E94B118AC01822F932F41155A
S1131C505105B1F70895FC01908180ED890F8A3018
S1131C60D0F4319620E030E0A901440F551F220F33
S1131C70331F220F331F220F331F420F531F292FED
S1131C8030E020533109240F351F919180ED890FE5
S1131C908A3050F302C020E030E0C9010895862361
S1131CA00895009739F020E030E02F5F3F4F82170E
S1131CB09307D9F7089587FF08C0919581959109F5
S1131CC0992791958195910908958F77992708957A
S1131CD091FF08C091958195910993709195819593
S1131CE09109089591700895615021E030E002C097
S1131CF0220F331F6A95E2F7A90141505109B90136
S1131D0068237923672B29F084239523821B930B63
S1131D1008958423952308959DEC899F912D112482
S1131D20969596959695392F330F232F220F220FD0
S1131D30230F821B20E1929F800D11240895982F78
S1131D4092959F70990F292F220F220F920F8F7057
S1131D50890F0895FC01DB01A15BBD4F1C9216168F
S1131D60170614F5908191110CC017C0919191112F
S1131D700DC015C081932F5F3F4F26173707D4F34B
S1131D8013C0AFE4B2E0319620E030E09D932F5FC2
S1131D903F4F6217730751F707C020E030E0F901A5
S1131DA0E15BFD4F80E2E6CF8FE492E008954F922D
S1131DB05F926F927F92AF92BF92CF92DF92EF9237
S1131DC0FF920F931F93CF93DF93CDB7DEB7290113
S1131DD03A019B01AC01241935094609570989893F
S1131DE09A89AB89BC89BC01CD016A197B098C092C
S1131DF09D090E948E18A8019701241935094609E6
S1131E0057090E94E618CA01B9016A0D7B1D8C1D91
S1131E109D1DDF91CF911F910F91FF90EF90DF9067
S1131E20CF90BF90AF907F906F905F904F90089548
S1131E3070E06115710599F041E050E021E030E077
S1131E4090E0FA01E89FA001E99F500DF89F500D22
S1131E5011242F5F3F4F6217730798F702C041E0C8
S1131E6050E0CA010895FC012081222341F03196FB
S1131E7080E090E0019621912111FCCF089580E04B
S1131E8090E00895CF93DF93EC01EDDF9C012150A6
S1131E90310962F0FE01E80FF91F9291903219F0B6
S1131EA09950923018F421503109B8F7C20FD31F5A
S1131EB01982C901DF91CF910895CF93DF93EC018B
S1131EC0D2DF9C01215031091216130684F4DE017D
S1131ED0A80FB91FFE0180E090E040815E9151930C
S1131EE04C9301962150310982179307B4F3DF9183
S1131EF0CF9108956F927F928F929F92AF92BF92EB
S1131F00CF92DF92EF92FF920F931F93CF93DF93C1
S1131F106B017C01EA01DC01CB01FF203CF4882742
S1131F209927DC018C199D09AE09BF09BC01CD01BB
S1131F30712C0F2EFAE08F2E912CA12CB12CF02DA8
S1131F4001C0762C66246394670C8E01070D111D65
S1131F50A50194010E94E618605DF8016083622F78
S1131F60732F842F952F16161706180619064CF38F
S1131F70FF204CF4FE01E60DF11D8DE28083689490
S1131F80662461F8670CFE01E60DF11D1082CE0196
S1131F9094DFDF91CF911F910F91FF90EF90DF902D
S1131FA0CF90BF90AF909F908F907F906F90089547
S1131FB0EF92FF920F931F93CF93DF938C01EB016A
S1131FC0992324F488279927801B910B20E00F2E56
S1131FD0FAE0EF2EF12CF02D01C0232F31E0320F67
S1131FE0FE01E20FF11DB7010E94B118805D8083EC
S1131FF0862F972F1816190684F311233CF4FE013B
S1132000E30FF11D8DE2808332E0320FFE01E30F16
S1132010F11D1082CE0151DFDF91CF911F910F91FD
S1132020FF90EF9008951F93CF93DF93AC01FB01D2
S113203080E011E0180FEF01C80FD11D9A01ADEC3B
S1132040BCEC0E940B199695879596958795969565
S113205087959C01220F331F880F991F880F991FA2
S1132060880F991F820F931F9A01281B390BC901EE
S1132070805D88839A010E940B19AC01569547959F
S11320805695479556954795812F4115510589F6E3
S1132090DF01A10FB11D1C92CF010FDFDF91CF91A2
S11320A01F910895982F92959F70990F292F220FB1
S11320B0220F920F8F70890F0895AC019C01ADEC33
S11320C0BCEC0E940B1996958795969587959695E5
S11320D08795BC01660F771F9C01220F331F220FC7
S11320E0331F220F331F260F371F421B530B342F6E
S11320F020E1829F300D1124832F0895CF92DF9227
S1132100EF92FF92CF93DF93CDB7DEB728970FB648
S1132110F894DEBF0FBECDBF6B017C0169837A8367
S11321208B839C832D833E834F835887C216D306AB
S1132130E406F50634F4BE016B5F7F4FCE010196D1
S11321407FDC8D819E81AF81B885892B8A2B8B2B77
S113215071F469817A818B819C8120E030E0A9014E
S11321600E94E618611571058105910529F46D81B8
S11321707E818F81988505C06D837E838F83988748
S1132180F6CF28960FB6F894DEBF0FBECDBFDF9111
S1132190CF91FF90EF90DF90CF90089590E002C030
S11321A0959587956A95E2F781700895EFE4F2E0DA
S11321B090E020E850E341E3382F322311F04083CC
S11321C001C0508326959F5F31969830A9F71092ED
S11321D057028FE492E00895A42FB0E0109761F0C5
S11321E021E030E0E1E0F0E0EE0FFF1F2F5F3F4F12
S11321F0A217B307C8F702C0E1E0F0E031976E23FD
S11322007F238E239F23862797276823792302C061
S1132210660F771F4A95E2F7862B972B0895FC01EA
S11322209FB78FB78F778FBF9FBF88E19FE0918360
S1132230808383E39FE0938382838DE59FE095838E
S113224084838CEE90E19783868385E09DE091877B
S1132250808783E19DE09387828785E19DE0958770
S1132260848788E19DE0978786878BE19DE0918B49
S1132270808B8EE19DE0938B828B8FE09DE0958B2C
S1132280848B81E19DE0978B868B80E29DE0918F2A
S1132290808F81E49DE0938F828F8FE49DE0958F02
S11322A0848F81E79DE0978F868F88ED9FE091A3CF
S11322B080A383E190E193A382A38AE79FE095A39F
S11322C084A382E49FE097A386A387E19EE091A77D
S11322D080A78CE19EE093A782A78BE29EE095A75E
S11322E084A78FE49EE097A786A781E59EE091AB43
S11322F080AB8BE59EE093AB82AB88E69EE095AB2A
S113230084AB84E79EE097AB86AB8CE89EE091AF0C
S113231080AF8FE99EE093AF82AF8AEA9EE095AFEB
S113232084AF87ED9EE097AF86AFDF01A05CBF4F1F
S113233082E590E111969C938E9312968DE590E13F
S113234011969C938E9312968EE790E111969C932E
S11323508E9312968EEC90E111969C938E93129626
S113236086ED90E18D939C93CF01089510927802AD
S1132370E0917802F0E0EF59FD4F10820895CF9379
S1132380DF9321E080E0A0E7B2E0E4E7F2E060E080
S113239071E001C02F5F9FEF920F913009F44BC0A1
S11323A038F0923009F48CC0933009F4CEC00EC1D9
S11323B040917B0250917C02EA0198819068988355
S11323C040915F0250916002EA0198819F7798835F
S11323D04091790250917A02EA01388134773C9332
S11323E09081432F492794233083992399F0943083
S11323F019F4EB0188810AC0903119F4EB01898149
S113240009C0903219F4EB018A8104C0903411F4AC
S1132410EB018B8140917B0250917C02EA0198810F
S11324209F77988340915F0250916002EA019881FE
S113243090689883AFCF40917B0250917C02EA016F
S113244098819160988340915F0250916002EA0103
S113245098819E7F98834091790250917A02EA0193
S11324603881347711963C9311979181432F4927F2
S113247094233183992399F0943019F4EB018C81DE
S11324800AC0903119F4EB018D8109C0903219F41E
S1132490EB018E8104C0903411F4EB018F814091E3
S11324A07B0250917C02EA0198819E7F988340913F
S11324B05F0250916002EA019881916098836ACF2B
S11324C040917B0250917C02EA019881926098834A
S11324D040915F0250916002EA0198819D7F988348
S11324E04091790250917A02EA0138813477129648
S11324F03C9312979281432F492794233283992343
S113250099F0943019F4EB0188850AC0903119F4DC
S1132510EB01898509C0903219F4EB018A8504C066
S1132520903411F4EB018B8540917B0250917C0235
S1132530EA0198819D7F988340915F0250916002E7
S1132540EA0198819260988325CFE0917B02F09113
S11325507C02908198609083E0915F02F091600228
S11325609081977F9083E0917902F0917A022081A3
S1132570247720937302E4E7F2E09381322F392722
S113258093232383992399F0943019F480910C01B7
S11325900AC0903119F480910D0109C0903219F4E8
S11325A080910E0104C0903411F480910F01E091E8
S11325B07B02F0917C029081977F9083E0915F028F
S11325C0F091600290819860908303C0243008F4F5
S11325D0E1CEDF91CF910895D2DE882309F18434CE
S11325E049F4E0917802F0E0EF59FD4F1082109227
S11325F0780217C0909178029E3098F4E0917802A6
S1132600F0E0EF59FD4F8083909178029F5F9093A3
S11326107802E0917802F0E0EF59FD4F108201C09A
S113262080E021E632E0482F842FB9010895CF934A
S1132630DF9300D000D000D0CDB7DEB7FC012FB7B8
S11326409FB79F779FBFF0937C02E0937B027093C8
S11326507A02609379025093600240935F028BE8A0
S11326608083E0915F02F091600284E78083A0E7B9
S1132670B2E08C93E4E7F2E0808311968C93119797
S1132680818312968C931297828313968C938383FF
S1132690109278022FBFE0915F02F0916002808176
S11326A08B6880832FEB31E13A8329834CEE52E12E
S11326B05C834B8366EB71E17E836D833A815C813D
S11326C07E8180E090E026960FB6F894DEBF0FBEC0
S11326D0CDBFDF91CF910895E0918902F0918A02F4
S11326E090819D7F9083672B41F0E0918902F09166
S11326F08A0290819160908307C0E0918902F091F1
S11327008A0290819E7F9083E0917F02F091800203
S11327109081906F9083E0918902F0918A02908178
S113272094609083882344F4E0918902F0918A02B2
S113273090819068908307C0E0918902F0918A02A9
S113274090819F77908386FF08C0E0918902F09181
S11327508A0290819064908307C0E0918902F0918D
S11327608A0290819F7B908385FF08C0E091890253
S1132770F0918A0290819062908307C0E09189026F
S1132780F0918A0290819F7D908384FF08C0E0913C
S11327908902F0918A0290819061908307C0E09150
S11327A08902F0918A0290819F7E9083E091890250
S11327B0F0918A0290819B7F9083E0918902F0914D
S11327C08A0290819460908383FF08C0E09189021B
S11327D0F0918A0290819068908307C0E091890209
S11327E0F0918A0290819F77908382FF08C0E091E4
S11327F08902F0918A0290819064908307C0E091ED
S11328008902F0918A0290819F7B908381FF08C0A6
S1132810E0918902F0918A0290819062908307C0CE
S1132820E0918902F0918A0290819F7D908380FFDC
S113283008C0E0918902F0918A02808180618083DE
S113284007C0E0918902F0918A0280818F7E8083A3
S1132850E0918902F0918A0280818B7F80830895C0
S1132860E0917F02F091800220812F702083E0911B
S11328708902F0918A022081206F2083E0918902ED
S1132880F0918A02208122602083892B41F0E0911B
S11328908902F0918A0280818160808307C0E0917F
S11328A08902F0918A0280818E7F8083E09189027F
S11328B0F0918A02808184608083E0918202F091A9
S11328C083028081882314F080E001C080E8908135
S11328D096FF02C0806401C08F7B908195FF02C087
S11328E0806201C08F7D908194FF02C0806101C02D
S11328F08F7EE0918902F0918A0290819B7F908380
S1132900E0918902F0918A02908194609083E09131
S11329108202F09183029081992314F4886001C0AB
S1132920877F908196FF02C0846001C08B7F908175
S113293095FF02C0826001C08D7F908194FF02C028
S1132940816001C08E7FE0918902F0918A029081BA
S11329509B7F90830895CF93DF9380E090E080DFA6
S1132960CBE0D0E005C080E090E07ADF219711F061
S11329708823CCF3DF91CF91089561E070E0ACDE61
S1132980EACF0895CF9381E090E06ADFC82FE3DFB8
S11329908C2FCF910895CF93DF93EC018881882306
S11329A041F0219661E070E097DED5DF89918111D5
S11329B0F9CFDF91CF9108950F931F93CF93DF93B6
S11329C0FC01D62F8081882351F08F010F5F1F4FA8
S11329D0611109C01BC0CF5FDC1730F401C0C0E037
S11329E0CD1760F013C0C1E061E070E075DEB3DFC5
S11329F0F80181918F018111EECFF2CFCF5F61E0B9
S1132A0070E080E269DEA7DFCD17C0F3DF91CF91DC
S1132A101F910F910895CF93C82F882339F061E057
S1132A2070E080E259DE97DFC150C9F7CF91089575
S1132A30262F8130910571F030F08230910589F0B4
S1132A400397B1F0089560E070E080E8820F44DEFF
S1132A5082CF089560E070E080EC820F3DDE7BCF92
S1132A60089560E070E084E9820F36DE74CF089543
S1132A7060E070E084ED820F2FDE6DCF089560E09A
S1132A8070E081E029DE87EE97E10197F1F700C05D
S1132A9000000895E0917F02F091800287E0808336
S1132AA0E0918902F0918A0288E080832FEF83EF1E
S1132AB091E0215080409040E1F700C0000060E0C8
S1132AC070E083E309DE20ED2A95F1F760E070E021
S1132AD083E302DE80ED8A95F1F760E070E08BE23B
S1132AE0FBDD95EC9A95F1F7000060E070E08CE076
S1132AF0F3DD25EC2A95F1F7000060E070E081E059
S1132B00EBDD87EE97E10197F1F700C0000060E08C
S1132B1070E086E0E1DD95EC9A95F1F70000089508
S1132B201F93CF93DF93EC011FB78FB78F778FBFBE
S1132B307093800260937F025093830240938202D9
S1132B4030938A0220938902FB011082E09189026A
S1132B50F0918A028FEF8083E0918202F0918302E8
S1132B60808188708093810295DF1FBF8CE693E19A
S1132B709983888380E394E19B838A838BEA94E13D
S1132B809D838C838DEB94E19F838E8382EC94E10F
S1132B90998788878BEC94E19B878A878CED94E1F5
S1132BA09D878C878BE095E19F878E878FE395E1E6
S1132BB0998B888B88E195E19B8B8A8B87EE95E1D5
S1132BC09D8B8C8BCE01DF91CF911F910895CF9374
S1132BD0E0918202F0918302C081C87080918102E9
S1132BE08C278C2309F056DFC0938102CF9108957E
S1132BF0109261008FE08093620012B88FEF83B966
S1132C0011BA82BB84BB15BA87B3806E87BB8FB7FA
S1132C1080688FBF0895CF93DF93CDB7DEB7CE5CC6
S1132C20D1090FB6F894DEBF0FBECDBFCE01019619
S1132C30F6DA4BA05CA02DAD3EADC753DF4F398310
S1132C402883C95CD04021968EAD9FAD2197C55392
S1132C50DF4F99838883CB5CD0402BE330E049E39A
S1132C6050E06AE370E0CE01855B9F4F59DF6796C1
S1132C706EAC7FAC67976F968EAC9FAC6F9700E09D
S1132C8010E021E030E048E050E067E670E0CE017B
S1132C908F599F4F0E94040941E065E5CE018B588E
S1132CA09F4F0E9433071F9287E08F931F9284E007
S1132CB08F931F921F921F9283E08F9380E88F93CC
S1132CC081E08F930E94B6001C0141E060E0CE01D8
S1132CD081589F4F0E94890540E069E0CE018157E9
S1132CE09F4F0E94930484DF0E94110320938B0260
S1132CF030938C0240938D0250938E0260938F0226
S1132D007093900220E040E060E0CE018B549F4F2E
S1132D100E94CD0C84E1FE01EB54FF4FA3E9B2E025
S1132D2001900D928A95E1F743E250E061E270E090
S1132D3082E290E07CDCC156DF4F2883CF59D0403B
S1132D40C056DF4F3883C05AD040CF55DF4F488339
S1132D50C15AD040CE55DF4F5883C25AD040CD55CA
S1132D60DF4F6883C35AD040CC55DF4F7883C45AB1
S1132D70D0401092A702AF96EEADFFADAF978EE3B1
S1132D800995E196EEADFFADE19786E291E00995F4
S1132D90CF56DF4FE881F981C159D04082E00995CF
S1132DA0CB56DF4FE881F981C559D04080E29EE4DB
S1132DB00995C556DF4FE881F981CB59D04088E0A9
S1132DC090E00995C557DF4FE881F981CB58D04091
S1132DD081E090E00995E0918B02F0918C0261E032
S1132DE086E009956D96EEADFFAD6D9709950FB62A
S1132DF0F894DEBF0FBECDBFA196EEADFFADA19797
S1132E000995CF55DF4FE881F981C15AD040099522
S1132E10182F8823D9F060E070E080E090E0F4019E
S1132E2009956396EEADFFAD6397812F0995113433
S1132E3031F4E0919D02F0919E02099507C012348D
S1132E4029F4E0919F02F091A002099564E070E0FA
S1132E5080E090E0F401099585B3BE016B557F4F86
S1132E6090E0F2010995E091A502F091A60209957E
S1132E70F30109956DE070E080E090E0F4010995BC
S1132E8080E090E0F1010995BC01990F880B990B42
S1132E901F921F921F92FFEFFF93A12CB12C65018B
S1132EA0EE24EA9413E0F12E00E010E020E030E09C
S1132EB0A901C553DF4FE881F981CB5CD040099566
S1132EC07093A9026093A802C956DF4F2881398103
S1132ED0C759D040C353DF4F39832883CD5CD040DA
S1132EE080E090E0F1010995BC01990F880B990BE2
S1132EF01F921F92F9E0FF9322E92F930F2EF2EC19
S1132F00AF2EBB24B394C12CD12CF02D20E030E0A3
S1132F10A901C553DF4FE881F981CB5CD040099505
S1132F20CB01C353DF4FE881F981CD5CD0400995D3
S1132F30BE016B557F4F8091A8029091A902F201C6
S1132F40099565E070E0CE018B559F4FC753DF4F65
S1132F50E881F981C95CD0400995F30109956CE0D9
S1132F6070E081E090E0F401099582E090E0F101E5
S1132F700995BE016B557F4FF201099564E070E03D
S1132F80CE018B559F4FC753DF4FE881F981C95C50
S1132F90D0400995F301099560E070E081E090E08C
S1132FA0F4010995E0919B02F0919C0282ED90E07E
S1132FB009950FB6F894DEBF0FBECDBF813029F45A
S1132FC082E391E0F301099510C0AB96EEADFFAD3D
S1132FD0AB9709956CE070E0C753DF4FE881F98146
S1132FE0C95CD0400995F3010995E796EEADFFADB4
S1132FF0E79780E00995E996EEADFFADE99760E0CB
S11330008AE00995EB96EEADFFADEB9788E609955E
S1133010EF96EEADFFADEF970995EECE1F920F92AE
S11330200FB60F9211240BB60F922F933F934F9329
S11330305F936F937F938F939F93AF93BF93EF931C
S1133040FF93E091A702F0E0E05FFE4F808185BB33
S113305080919102909192020196909392028093B2
S113306091022091A8023091A9022817390770F41F
S113307010929202109291028091A7028F5F809326
S1133080A702E0919502F091960209958091A7021A
S1133090803111F41092A702FF91EF91BF91AF918B
S11330A09F918F917F916F915F914F913F912F915C
S11330B00F900BBE0F900FBE0F901F9018951F928C
S11330C00F920FB60F9211240BB60F922F933F93CA
S11330D04F935F936F937F938F939F93AF93BF931C
S11330E0EF93FF93E0918B02F0918C0263E086E012
S11330F009958FEF85BBFF91EF91BF91AF919F91A0
S11331008F917F916F915F914F913F912F910F908C
S11331100BBE0F900FBE0F901F901895DB018F937D
S11331209F9388D0BF91AF91A29F800D911DA39FC3
S1133130900DB29F900D11240895AA1BBB1B51E161
S113314007C0AA1FBB1FA617B70710F0A61BB70B13
S1133150881F991F5A95A9F780959095BC01CD01B8
S1133160089597FB072E16F4009406D077FD08D037
S1133170E4DF07FC05D03EF4909581959F4F0895B8
S1133180709561957F4F0895A1E21A2EAA1BBB1B6F
S1133190FD010DC0AA1FBB1FEE1FFF1FA217B3071F
S11331A0E407F50720F0A21BB30BE40BF50B661F35
S11331B0771F881F991F1A9469F7609570958095F9
S11331C090959B01AC01BD01CF010895052E97FB9D
S11331D016F400940FD057FD05D0D6DF07FC02D0BB
S11331E046F408C050954095309521953F4F4F4F78
S11331F05F4F089590958095709561957F4F8F4F9F
S11332009F4F0895EE0FFF1F0024001C0BBE079074
S1133210F691E02D0994A29FB001B39FC001A39F32
S1133220700D811D1124911DB29F700D811D1124FB
S1133230911D0895F0DFA59F900DB49F900DA49F5C
S10F3240800D911D11240895F894FFCF17
S113324C3132334134353642373839432A3023440A
S113325C01100280080440202150068808044020F4
S113326C656D7074790053455247494F20434F4460
S111327C4500332E35206D696E7574650000B3
S9030000FC
