:100000007AC0000003C200000BC2000013C200004F
:100010001BC2000023C200002BC2000033C200003C
:100020003BC2000087C0000087C2000053C200002E
:100030005BC2000063C2000075C200007BC000000C
:100040003FC2000033C20000B3C20000E7C200009C
:1000500071C000004DC100006DC000006BC0000009
:1000600057C2000073C200007BC2000083C20000C0
:100070008BC2000093C20000FAC2000031C300002E
:1000800059C0000057C0000055C00000C512181329
:1000900032136F13AF13F0138614A11426154115F4
:1000A00083158F159B15A715B315D615D615D6151F
:1000B000D615D615D615D615D615D615D615D615E8
:1000C000D615D615D615D615D615D615D615D615D8
:1000D000D615D615D615D615D615D615D615D615C8
:1000E000D615D615D615D615D615D615D615D615B8
:1000F000D615BF15CB1511241FBECFEFD0E1DEBF43
:10010000CDBF11E0A0E0B1E0E8E1FEE200E00BBF0E
:1001100002C007900D92AC3CB107D9F723E0ACECDC
:10012000B1E001C01D92A43FB207E1F70E94EA11BD
:100130000C940A1765CF882389F0E091F901F091BA
:10014000FA01208181E090E00090FB0102C0880F5D
:10015000991F0A94E2F7822B808311C0E091F90184
:10016000F091FA01208181E090E00090FB0102C053
:10017000880F991F0A94E2F7809582238083E0918B
:10018000F901F091FA01408181E090E09C0100903A
:10019000FD0102C0220F331F0A94E2F7242B2083B3
:1001A000E091F901F091FA0120810090FD0102C077
:1001B000880F991F0A94E2F780958223808308951F
:1001C000E091F901F091FA01408181E090E09C0119
:1001D0000090FC0102C0220F331F0A94E2F7242B87
:1001E0002083E091F901F091FA0120810090FC0157
:1001F00002C0880F991F0A94E2F7809582238083BA
:100200000895FF920F931F93CF93DF93F82EC0E0D2
:10021000D0E001E010E0C8010C2E02C0880F991F49
:100220000A94E2F78F2187DF2196C830D10599F72C
:10023000C7DFDF91CF911F910F91FF9008950F932A
:10024000CF93DF9300D000D000D0CDB7DEB75FB73B
:100250003FB73F773FBF9093F8018093F7017093CA
:10026000FA016093F9014093FB012093FD01009393
:10027000FC01FC01308161E070E0DB0102C0AA0FEB
:10028000BB1F2A95E2F7FB0102C0EE0FFF1F0A9584
:10029000E2F7EA2B02C0660F771F4A95E2F76E2B52
:1002A000232F262BFC012083E091F901F091FA0124
:1002B00080816095682360835FBF2BE930E03A83DB
:1002C000298341E051E05C834B8360EE70E07E83E4
:1002D0006D833A815C817E8180E090E026960FB646
:1002E000F894DEBF0FBECDBFDF91CF910F9108957F
:1002F0001F920F920FB60F9211240BB60F922F93ED
:100300003F934F935F938F939F93EF93FF932FB7F9
:100310008FB78F778FBF84B190E09093CE01809399
:10032000CD0135B18091CD019091CE01932B909369
:10033000CE018093CD018091CC018430A0F48091D6
:10034000CC018F5F8093CC014091CD015091CE01C3
:100350008091CF019091D001840F951F9093D0018F
:100360008093CF0143C0E091D101F091D2018091FF
:10037000CF019091D0019595879595958795EE0F32
:10038000FF1FEB51FE4F918380831092D00110929A
:10039000CF011092CC014091D1015091D2018091B6
:1003A000D3019091D4014817590754F48091D10199
:1003B0009091D20101969093D2018093D10104C013
:1003C0001092D2011092D10187B1807E87B9E0915D
:1003D000D101F091D201EE0FFF1FEB52FE4F808151
:1003E000918137B18F719927832B87B92FBFFF91E7
:1003F000EF919F918F915F914F913F912F910F902E
:100400000BBE0F900FBE0F901F9018951F920F926A
:100410000FB60F9211240F900FBE0F901F901895DA
:100420001F920F920FB60F9211240F900FBE0F90D4
:100430001F9018951F920F920FB60F9211240F90D4
:100440000FBE0F901F9018951F920F920FB60F922C
:1004500011240F900FBE0F901F9018951F920F92AE
:100460000FB60F9211240F900FBE0F901F9018958A
:100470001F920F920FB60F9211240F900FBE0F9084
:100480001F9018951F920F920FB60F9211240F9084
:100490000FBE0F901F9018951F920F920FB60F92DC
:1004A00011240F900FBE0F901F9018951F920F925E
:1004B0000FB60F9211240F900FBE0F901F9018953A
:1004C0001F920F920FB60F9211240F900FBE0F9034
:1004D0001F9018951F920F920FB60F9211240F9034
:1004E0000FBE0F901F9018951F920F920FB60F928C
:1004F00011240F900FBE0F901F9018951F920F920E
:100500000FB60F9211240F900FBE0F901F901895E9
:100510001F920F920FB60F9211240F900FBE0F90E3
:100520001F9018951F920F920FB60F9211240F90E3
:100530000FBE0F901F9018951F920F920FB60F923B
:1005400011240F900FBE0F901F9018951F920F92BD
:100550000FB60F9211240F900FBE0F901F90189599
:100560001F920F920FB60F9211240F900FBE0F9093
:100570001F9018951F920F920FB60F9211240F9093
:100580000FBE0F901F9018951F920F920FB60F92EB
:1005900011240F900FBE0F901F9018951F920F926D
:1005A0000FB60F9211240F900FBE0F901F90189549
:1005B0001F920F920FB60F9211240BB60F928F93CA
:1005C0009F93EF93FF938BB19AB1887180933F0211
:1005D000E0914803EF5FEF7390914903E91304C082
:1005E00082E080933F020FC09CB1E09348038823D0
:1005F00031F0F0E0E55BFC4F88E5808304C0F0E07B
:10060000E55BFC4F9083FF91EF919F918F910F904D
:100610000BBE0F900FBE0F901F9018951F920F9258
:100620000FB60F9211240BB60F928F939F93EF93F7
:10063000FF93E0918302F0E0E85FFC4F80818CB98A
:100640001082809183028F5F8F73809383029091D9
:100650003E02891301C05598FF91EF919F918F91B0
:100660000F900BBE0F900FBE0F901F9018951F920A
:100670000F920FB60F9211240BB60F928F939F9388
:10068000EF93FF9380919B0090919A0088718093E3
:100690008502E0918402EF5FEF7390914A03E913C2
:1006A00004C082E08093850210C090919C00E0938A
:1006B0008402882331F0F0E0EF5BFD4F88E5808312
:1006C00004C0F0E0EF5BFD4F9083FF91EF919F91AD
:1006D0008F910F900BBE0F900FBE0F901F9018952B
:1006E0001F920F920FB60F9211240BB60F928F9399
:1006F0009F93EF93FF93E0914002F0E0E853FD4FAA
:10070000808180939C001082809140028F5F8F7364
:100710008093400290918602891305C0EAE9F0E0D7
:1007200080818F7D8083FF91EF919F918F910F90BA
:100730000BBE0F900FBE0F901F901895FC0183EB1E
:1007400096E19183808385EF96E1938382838FEC9A
:1007500096E1958384838BEB96E19783868387E08C
:1007600097E19187808788EE96E19387828782E080
:1007700097E19787868782E097E1958B848B80EE5F
:1007800096E1978B868B83EA96E1918F808F8CEE32
:1007900096E1938F828F80EC96E1958F848FCF01C5
:1007A00008956823442321F0861721F080E00895FE
:1007B000611180E00895862B08958623089586238D
:1007C0000895862B80950895862786230895609541
:1007D0008623089586270895CF92DF92EF92FF92A5
:1007E0000F931F93FC010081118122813381FB0152
:1007F000C080D180E280F380FC01C082D182E2829D
:10080000F382FB0100831183228333831F910F91B5
:10081000FF90EF90DF90CF900895FB012081FC01C5
:100820002083222339F0DB01119631969D9191931B
:100830009111FCCF0895CF93DF93EC019881992318
:1008400099F0FE01319620E030E0492F50E0461744
:10085000570731F0DE01A20FB31F9C932F5F3F4F6C
:1008600091919111F2CF02C020E030E0FE01E20F41
:10087000F31F1082DF91CF9108952F923F924F92F4
:100880005F926F927F928F929F92AF92BF92CF9220
:10089000DF92EF92FF920F931F93CF93DF9300D0DD
:1008A00000D0CDB7DEB72C011B014B0177231CF420
:1008B0002FEF821A920A95948794181419040CF455
:1008C00051C06AC09601DD209CF1F5014081518143
:1008D000F401608171816417750754F58C010A0D6C
:1008E0001B1DD401BC82AB82BA82A982EB81FC8140
:1008F0007183608311965C934E932E193F09C2F069
:10090000F80140815181E981FA8160817181080F8C
:10091000191FE80FF91FFA83E983EB81FC81E80FC7
:10092000F91FFC83EB83A80FB91F64177507F4F256
:10093000FFEFCF1ADF0A22E0A20EB11CE2E08E0E1A
:10094000911CC614D70409F0BDCF4701FF201CF449
:10095000FFEF8F1A9F0A9594879418141904E4F4F2
:10096000740101C07401821493047CF76401CE18F1
:10097000DF085601AA0CBB1CA40CB51C880C991CE2
:10098000840C951C31016E187F08C701880F991FD0
:1009900091958195910996CF0F900F900F900F90A0
:1009A000DF91CF911F910F91FF90EF90DF90CF904B
:1009B000BF90AF909F908F907F906F905F904F907F
:1009C0003F902F900895861797070CF4CB01089558
:1009D0009B01672B11F408959A01B9010E9430160A
:1009E000AC01822F932F41155105B1F70895FC01F9
:1009F000908180ED890F8A30D0F4319620E030E08C
:100A0000A901440F551F220F331F220F331F220F3E
:100A1000331F420F531F292F30E020533109240F79
:100A2000351F919180ED890F8A3050F302C020E08C
:100A300030E0C901089586230895009739F020E039
:100A400030E02F5F3F4F82179307D9F7089587FF54
:100A500008C0919581959109992791958195910962
:100A600008958F779927089591FF08C091958195F2
:100A700091099370919581959109089591700895C8
:100A8000615021E030E002C0220F331F6A95E2F787
:100A9000A90141505109B90168237923672B29F035
:100AA00084239523821B930B089584239523089513
:100AB0009DEC899F912D1124969596959695392FA9
:100AC000330F232F220F220F230F821B20E1929F2F
:100AD000800D11240895982F92959F70990F292FBA
:100AE000220F220F920F8F70890F0895FC01DB01F6
:100AF000A557BC4F1C921616170614F5908191113C
:100B00000CC017C0919191110DC015C081932F5F3A
:100B10003F4F26173707D4F313C0ABE8B3E0319645
:100B200020E030E09D932F5F3F4F6217730751F72E
:100B300007C020E030E0F901E557FC4F80E2E6CF46
:100B40008BE893E008954F925F926F927F92AF92FD
:100B5000BF92CF92DF92EF92FF920F931F93CF93AA
:100B6000DF93CDB7DEB729013A019B01AC0124190F
:100B700035094609570989899A89AB89BC89BC011D
:100B8000CD016A197B098C099D090E940D16A801E7
:100B9000970124193509460957090E944316CA01CD
:100BA000B9016A0D7B1D8C1D9D1DDF91CF911F9199
:100BB0000F91FF90EF90DF90CF90BF90AF907F901C
:100BC0006F905F904F90089570E06115710599F0F6
:100BD00041E050E021E030E090E0FA01E89FA00120
:100BE000E99F500DF89F500D11242F5F3F4F621762
:100BF000730798F702C041E050E0CA010895FC0174
:100C00002081222341F0319680E090E001962191ED
:100C10002111FCCF089580E090E00895CF93DF93F9
:100C2000EC01EDDF9C012150310962F0FE01E80F7B
:100C3000F91F9291903219F09950923018F4215086
:100C40003109B8F7C20FD31F1982C901DF91CF91C3
:100C50000895CF93DF93EC01D2DF9C01215031093D
:100C60001216130684F4DE01A80FB91FFE0180E0FE
:100C700090E040815E9151934C930196215031094F
:100C800082179307B4F3DF91CF9108958F929F92CB
:100C9000AF92BF92CF92DF92EF92FF920F931F938A
:100CA000CF93DF936B017C01DC01CB01FF203CF48F
:100CB00088279927DC018C199D09AE09BF09BC0161
:100CC000CD0110E00F2EFAE08F2E912CA12CB12C2B
:100CD000F02D01C0102F01E0010FC12FD0E0C5574A
:100CE000DC4FA50194010E944316605D6883622F6A
:100CF000732F842F952F161617061806190654F30E
:100D0000FF2044F4E02FF0E0E557FC4F8DE28083B4
:100D100002E0010FE02FF0E0E557FC4F10828BE876
:100D200093E097DF8BE893E0DF91CF911F910F91D4
:100D3000FF90EF90DF90CF90BF90AF909F908F90FB
:100D400008950F931F93CF93DF93EC01992324F41D
:100D5000882799278C1B9D0B20E00AE010E001C03A
:100D6000232F31E0320FE22FF0E0E557FC4FB801BE
:100D70000E943016805D8083862F972F18161906E3
:100D80007CF3DD2344F4E32FF0E0E557FC4F8DE2E4
:100D9000808332E0320FE32FF0E0E557FC4F108202
:100DA0008BE893E056DF8BE893E0DF91CF911F91C2
:100DB0000F910895CF93AC01E0E0C1E0CE0FF0E0D9
:100DC000E557FC4F9A01ADECBCEC0E946816969575
:100DD000879596958795969587959C01220F331F49
:100DE000880F991F880F991F880F991F820F931FD3
:100DF0009A01281B390BC901805D80839A010E94EA
:100E00006816AC0156954795569547955695479562
:100E1000EC2F4115510589F6EC2FF0E0E557FC4F1A
:100E200010828BE893E015DF8BE893E0CF91089573
:100E3000982F92959F70990F292F220F220F920FB2
:100E40008F70890F0895AC019C01ADECBCEC0E9441
:100E50006816969587959695879596958795BC0182
:100E6000660F771F9C01220F331F220F331F220FA3
:100E7000331F260F371F421B530B342F20E1829F55
:100E8000300D1124832F0895CF92DF92EF92FF92BD
:100E9000CF93DF93CDB7DEB728970FB6F894DEBFB8
:100EA0000FBECDBF6B017C0169837A838B839C83EA
:100EB0002D833E834F835887C216D306E406F5067A
:100EC00034F4BE016B5F7F4FCE01019685DC8D81CE
:100ED0009E81AF81B885892B8A2B8B2B71F4698118
:100EE0007A818B819C8120E030E0A9010E94431629
:100EF000611571058105910529F46D817E818F81D0
:100F0000988505C06D837E838F839887F6CF28965A
:100F10000FB6F894DEBF0FBECDBFDF91CF91FF902B
:100F2000EF90DF90CF90089590E002C0959587955F
:100F30006A95E2F781700895EBE8F3E090E020E82D
:100F400050E341E3382F322311F0408301C0508336
:100F500026959F5F31969830A9F7109293038BE8FE
:100F600093E00895A42FB0E0109761F021E030E005
:100F7000E1E0F0E0EE0FFF1F2F5F3F4FA217B30736
:100F8000C8F702C0E1E0F0E031976E237F238E23A3
:100F90009F23862797276823792302C0660F771F30
:100FA0004A95E2F7862B972B0895FC019FB78FB7E0
:100FB0008F778FBF9FBF84EE95E0918380838FEF03
:100FC00095E09383828389E296E09583848382EB24
:100FD00097E09783868381ED93E0918780878FEDFB
:100FE00093E09387828781EE93E09587848784EEF0
:100FF00093E09787868787EE93E0918B808B8AEECC
:1010000093E0938B828B8BED93E0958B848B8DEDAE
:1010100093E0978B868B8CEE93E0918F808F8DE0A1
:1010200094E0938F828F8BE194E0958F848F8DE392
:1010300094E0978F868F81EA96E091A380A38AED52
:1010400096E093A382A386E496E095A384A38EE022
:1010500096E097A386A383EE94E091A780A788EEFD
:1010600094E093A782A787EF94E095A784A78BE1EC
:1010700095E097A786A78DE195E091AB80AB87E2DD
:1010800095E093AB82AB84E395E095AB84AB80E4D1
:1010900095E097AB86AB88E595E091AF80AF8BE6A6
:1010A00095E093AF82AF86E795E095AF84AF83EA92
:1010B00095E097AF86AFDF01A05CBF4F88E197E076
:1010C00011969C938E93129683E297E011969C93CF
:1010D0008E93129684E497E011969C938E931296C9
:1010E00084E997E011969C938E9312968CE997E091
:1010F0008D939C93CF010895CF93DF9300D000D0C0
:101100001F92CDB7DEB785E0EEEDF3E0DE0111967C
:1011100001900D928A95E1F729813A814B815C819A
:101120006D8170E080E090E00F900F900F900F9035
:101130000F90DF91CF9108951092AB03EEEDF3E0A5
:1011400080E2808380E191E0928381839483838332
:101150000895CF93DF9321E080E0A3EAB3E0E7EACC
:10116000F3E060E071E001C02F5F9FEF920F9130DC
:1011700009F44BC038F0923009F48CC0933009F474
:10118000CEC00EC14091AE035091AF03EA019881E9
:10119000906898834091A0035091A103EA0198813F
:1011A0009F7798834091AC035091AD03EA01388159
:1011B00034773C939081432F49279423308399239C
:1011C00099F0943019F4EB0188810AC0903119F438
:1011D000EB01898109C0903219F4EB018A8104C0C6
:1011E000903411F4EB018B814091AE035091AF0329
:1011F000EA0198819F7798834091A0035091A103C1
:10120000EA01988190689883AFCF4091AE035091E6
:10121000AF03EA019881916098834091A0035091B7
:10122000A103EA0198819E7F98834091AC0350917D
:10123000AD03EA013881347711963C93119791817F
:10124000432F492794233183992399F0943019F43B
:10125000EB018C810AC0903119F4EB018D8109C03A
:10126000903219F4EB018E8104C0903411F4EB013B
:101270008F814091AE035091AF03EA0198819E7F28
:1012800098834091A0035091A103EA019881916055
:1012900098836ACF4091AE035091AF03EA019881E1
:1012A000926098834091A0035091A103EA01988134
:1012B0009D7F98834091AC035091AD03EA01388142
:1012C000347712963C9312979281432F49279423A7
:1012D0003283992399F0943019F4EB0188850AC080
:1012E000903119F4EB01898509C0903219F4EB01B2
:1012F0008A8504C0903411F4EB018B854091AE03D4
:101300005091AF03EA0198819D7F98834091A0039B
:101310005091A103EA0198819260988325CFE091D2
:10132000AE03F091AF03908198609083E091A003A9
:10133000F091A1039081977F9083E091AC03F091AD
:10134000AD03208124772093A603E7EAF3E093819D
:10135000322F392793232383992399F0943019F45A
:1013600080910C010AC0903119F480910D0109C0DF
:10137000903219F480910E0104C0903411F48091E0
:101380000F01E091AE03F091AF039081977F9083BE
:10139000E091A003F091A10390819860908303C035
:1013A000243008F4E1CEDF91CF910895CF93DF93FD
:1013B00000D000D01F92CDB7DEB7CBDE8823B1F1CD
:1013C0008093DE039091AB03943188F4E091AB03FA
:1013D000F0E0E055FC4F80839091AB039F5F9093CA
:1013E000AB03E091AB03F0E0E055FC4F1082843496
:1013F00099F4E091AB03F0E0E155FC4F10821092BC
:10140000AB03EEEDF3E080E191E09283818380EB2A
:1014100093E0948383830AC0EEEDF3E080EB93E0E6
:101420009283818380E191E09483838385E0EEED74
:10143000F3E0DE01119601900D928A95E1F7298182
:101440003A814B815C816D8170E080E090E00F908B
:101450000F900F900F900F90DF91CF910895CF9341
:10146000DF93CDB7DEB728970FB6F894DEBF0FBE77
:10147000CDBF2FB730E23093DE039093AF0380935C
:10148000AE037093AD036093AC035093A1034093FC
:10149000A0033BE8FC013083E091A003F091A1039D
:1014A00084E78083A3EAB3E08C93E7EAF3E08083E8
:1014B00011968C931197818312968C931297828345
:1014C00013968C9383831092AB032FBFE091A003FC
:1014D000F091A10380818B68808329EA38E03A8308
:1014E000298346ED59E05C834B836CE778E07E838B
:1014F0006D838CE998E098878F833A815C817E8147
:10150000988528960FB6F894DEBF0FBECDBFDF9149
:10151000CF910895E091CF03F091D00390819D7F0A
:101520009083672B41F0E091CF03F091D00390813D
:101530009160908307C0E091CF03F091D003908138
:101540009E7F9083E091CC03F091CD039081906FCA
:101550009083E091CF03F091D003908194609083C9
:10156000882344F4E091CF03F091D00390819068F8
:10157000908307C0E091CF03F091D00390819F77D3
:10158000908386FF08C0E091CF03F091D003908153
:101590009064908307C0E091CF03F091D0039081D5
:1015A0009F7B908385FF08C0E091CF03F091D0032B
:1015B00090819062908307C0E091CF03F091D003B7
:1015C00090819F7D908384FF08C0E091CF03F091CC
:1015D000D00390819061908307C0E091CF03F09198
:1015E000D00390819F7E9083E091CF03F091D00350
:1015F00090819B7F9083E091CF03F091D003908105
:101600009460908383FF08C0E091CF03F091D003F2
:1016100090819068908307C0E091CF03F091D00350
:1016200090819F77908382FF08C0E091CF03F09173
:10163000D00390819064908307C0E091CF03F09134
:10164000D00390819F7B908381FF08C0E091CF03FE
:10165000F091D00390819062908307C0E091CF0316
:10166000F091D00390819F7D908380FF08C0E0912E
:10167000CF03F091D00380818061808307C0E09127
:10168000CF03F091D00380818F7E8083E091CF03E0
:10169000F091D00380818B7F80830895E091CC030B
:1016A000F091CD0320812F702083E091CF03F09142
:1016B000D0032081206F2083E091CF03F091D003ED
:1016C000208122602083892B41F0E091CF03F091AB
:1016D000D00380818160808307C0E091CF03F091C7
:1016E000D00380818E7F8083E091CF03F091D0037F
:1016F000808184608083E091C503F091C60380817E
:10170000882314F080E001C080E8908196FF02C039
:10171000806401C08F7B908195FF02C0806201C010
:101720008F7D908194FF02C0806101C08F7EE09127
:10173000CF03F091D00390819B7F9083E091CF0302
:10174000F091D003908194609083E091C503F09173
:10175000C6039081992314F4886001C0877F90812B
:1017600096FF02C0846001C08B7F908195FF02C00C
:10177000826001C08D7F908194FF02C0816001C0B2
:101780008E7FE091CF03F091D00390819B7F908377
:101790000895CF93DF9380E090E080DFCBE0D0E04E
:1017A00005C080E090E07ADF219711F08823CCF328
:1017B000DF91CF91089561E070E0ACDEEACF08954B
:1017C000CF9381E090E06ADFC82FE3DF8C2FCF91C9
:1017D0000895CF93DF93EC018881882341F021960F
:1017E00061E070E097DED5DF89918111F9CFDF915B
:1017F000CF9108950F931F93CF93DF93FC01D62FC2
:101800008081882351F08F010F5F1F4F611109C044
:101810001BC0CF5FDC1730F401C0C0E0CD1760F013
:1018200013C0C1E061E070E075DEB3DFF8018191C3
:101830008F018111EECFF2CFCF5F61E070E080E2E7
:1018400069DEA7DFCD17C0F3DF91CF911F910F9114
:101850000895CF93C82F882339F061E070E080E2CB
:1018600059DE97DFC150C9F7CF910895262F8130F7
:10187000910571F030F08230910589F00397B1F055
:10188000089560E070E080E8820F44DE82CF089522
:1018900060E070E080EC820F3DDE7BCF089560E079
:1018A00070E084E9820F36DE74CF089560E070E066
:1018B00084ED820F2FDE6DCF089560E070E081E04F
:1018C00029DE87EE97E10197F1F700C00000089547
:1018D000E091CC03F091CD0387E08083E091CF03CA
:1018E000F091D00388E080832FEF83EF91E02150C7
:1018F00080409040E1F700C0000060E070E083E3CA
:1019000009DE20ED2A95F1F760E070E083E302DE66
:1019100080ED8A95F1F760E070E08BE2FBDD95ECFD
:101920009A95F1F7000060E070E08CE0F3DD25ECC3
:101930002A95F1F7000060E070E081E0EBDD87EED2
:1019400097E10197F1F700C0000060E070E086E0E9
:10195000E1DD95EC9A95F1F7000008951F93CF9380
:10196000DF93EC011FB78FB78F778FBF7093CD03D5
:101970006093CC035093C6034093C5033093D003C8
:101980002093CF03FB011082E091CF03F091D003AD
:101990008FEF8083E091C503F091C603808188704A
:1019A0008093CE0395DF1FBF8AE89AE099838883EE
:1019B0008EE49BE09B838A8389EC9BE09D838C83F0
:1019C0008BED9BE09F838E8380EE9BE099878887D9
:1019D00089EE9BE09B878A878AEF9BE09D878C87B7
:1019E00089E29CE09F878E878DE59CE0998B888BB0
:1019F00086E39CE09B8B8A8B85E09DE09D8B8C8BA6
:101A0000CE01DF91CF911F910895CF93E091C5034F
:101A1000F091C603C081C8708091CE038C278C23BF
:101A200009F056DFC093CE03CF910895AF92BF92D5
:101A3000CF92DF92EF92FF920F931F93CF93DF939A
:101A4000DC011496CC90149712962D913C9113972B
:101A5000232B21F17C01D12C00E010E0A12CB12C32
:101A6000C0E0D0E0D701ED91FC91008CF18DE02D2C
:101A7000A601B8018EED93E009958091DE038823DD
:101A800019F0BFEFAB1ABB0A21960C0D1D1DF70113
:101A900082819381C817D90728F302C0A12CB12CE9
:101AA000C501DF91CF911F910F91FF90EF90DF90D3
:101AB000CF90BF90AF900895AF92BF92CF92DF9238
:101AC000EF92FF920F931F93CF93DF937C01DC0182
:101AD0001496CC90149712968D919C911397892B04
:101AE00081F1D12CC0E0D0E0A12C00E010E0BB24BB
:101AF000B394D701ED91FC91008CF18DE02DA601FE
:101B0000BE018EED93E009958091DE03882371F08C
:101B10001092DE03D701ED91FC91048CF58DE02D40
:101B2000A601BE018EED93E00995AB2C0F5F1F4F10
:101B3000CC0DDD1DF7018281938108171907C8F2CA
:101B400001C0A12CD70118961C921E9217971996C6
:101B50001C928A2DDF91CF911F910F91FF90EF90F2
:101B6000DF90CF90BF90AF900895FC018781908562
:101B70000895FC0181850895FC01708767831186B3
:101B80000895FC0185810895FC01658308952F92D5
:101B90003F924F925F926F927F928F929F92AF92FD
:101BA000BF92CF92DF92EF92FF920F931F93CF934A
:101BB000DF938C01762EDC011696CC90A62EAC24F9
:101BC000CA20D12CA622B12CC114D10431F0F801C5
:101BD00082819381892B29F4B3C0A114B104B9F790
:101BE0004AC1E480558033243A9444244A946624BC
:101BF0006394C0E0D0E0F12C852C912C68942224D1
:101C000021F8EC9EB001ED9E700DFC9E700D11242C
:101C1000D801ED91FC91008CF18DE02DA7018EEDA6
:101C200093E009958091DE03882309F470C0813028
:101C300099F42091E10330E02C153D0509F067C0CF
:101C40002091E20330E02A153B0509F060C0F8015D
:101C5000C281D381622C5BC0EEEDF3E04181528101
:101C6000D80117962D913C91189724273527458147
:101C7000568124233523232B09F049C02091E10309
:101C800030E02C153D0509F042C02091E20330E020
:101C90002A153B05E1F5282F30E02819390949F4C8
:101CA0001296CD91DC9113970F2EF3E06F2EF02D4D
:101CB0002EC0121613069CF4442D50E0241735074D
:101CC00074F49BE0EEEDF3E0A9EEB3E001900D9229
:101CD0009A95E1F7482E45186894662462F83323F4
:101CE000B4F4432D50E051954195510942175307E3
:101CF00074F49BE0EEEDF3E0A3EDB3E001900D9200
:101D00009A95E1F7352C381A6894662462F8219682
:101D1000F80122813381C217D30708F472CFF2E0B1
:101D20006F1689F0F61520F081E0681649F0A3C01F
:101D300093E0691669F1A4E06A1609F44BC09BC0F0
:101D4000F801768298C0D80115968C93159716964F
:101D50007C921697EEEDF3E06581768121853285E0
:101D60002623372317964D915C911897242B352BFA
:101D7000878190858623972380959095822393234E
:101D800018969C938E93179782E019968C9373C044
:101D9000F80185837682EEEDF3E065817681218519
:101DA000328526233723D80117964D915C911897D9
:101DB000242B352B878190858623972380959095BA
:101DC0008223932318969C938E93179783E01996FA
:101DD0008C9351C0F80176828FEF840D8E3F20F5F1
:101DE000E9EEF3E08081D80115968C931597658113
:101DF000768121853285AB014223532317962D919D
:101E00003C911897242B352B878190858623972327
:101E1000809590958223932318969C938E93179781
:101E200089E219968C9327C08FEF830D8E3F18F5AA
:101E3000E3EDF3E08081D80115968C9315976581C9
:101E4000768121853285AB014223532317962D914C
:101E50003C911897242B352B8781908586239723D7
:101E6000809590958223932318969C938E93179731
:101E70008AE219968C93F8018185DF91CF911F91A9
:101E80000F91FF90EF90DF90CF90BF90AF909F9019
:101E90008F907F906F905F904F903F902F9008951C
:101EA0002F923F924F925F926F927F928F929F926A
:101EB000AF92BF92CF92DF92EF92FF920F931F9358
:101EC000CF93DF93CDB7DEB729970FB6F894DEBF77
:101ED0000FBECDBFFC0184818F831092E903E680A1
:101EE000962F9E25E922F12C9623A92EB12CE114E0
:101EF000F10439F082819381892B41F491E0998337
:101F0000FEC0A114B104B1F71982F9C08F01558048
:101F100044244A94AFEFAA83B1E0B983812C912C79
:101F20001E821D821C821B82212C312CFF81EF2FEF
:101F3000F0E0652C712CF987E887C884D984C89CA7
:101F4000B001C99C700DD89C700D1124D801ED9181
:101F5000FC91008CF18DE02DA6018EED93E00995AA
:101F60008091DE03882309F461C08130A9F4809157
:101F7000E10390E08E159F0509F058C08091E203BF
:101F800090E08A159B0509F051C01401F801828088
:101F90009380F2E0F9834AC0EEEDF3E04181528193
:101FA000D80117962D913C91189724273527458104
:101FB000568124233523232BC9F52091E10330E0FA
:101FC0002E153F0599F52091E20330E02A153B05D7
:101FD00069F5282F30E02619370941F414011296CB
:101FE0008D909C901397B3E0B98320C0121613060E
:101FF0006CF4EA814E2F50E0241735073CF4F82F9B
:10200000F519FA839C828B8294E09983332374F4CC
:10201000442D50E05195419551094217530734F42E
:10202000452C481A9E828D82A4E0A983BFEF8B1AAB
:102030009B0AF801828193818816990608F47DCF66
:10204000F981F330B9F0F43039F1F23009F057C0CA
:102050002C9CB0012D9C700D3C9C700D1124D8015E
:10206000ED91FC91048CF58DE02DA60189EE93E0B5
:10207000099545C02C9CB0012D9C700D3C9C700DA9
:102080001124D801ED91FC91048CF58DE02DA60171
:1020900089EE93E0099533C08A8181508E3FB0F478
:1020A000EB81FC81EC9DB001ED9D700DFC9D700DF0
:1020B0001124D801ED91FC91048CF58DE02DA60141
:1020C00089EE93E00995B9E2B98319C08FEF840DC9
:1020D0008E3FA8F4ED81FE81EC9DB001ED9D700D69
:1020E000FC9D700D1124D801ED91FC91048CF58DAF
:1020F000E02DA60189EE93E00995BAE2B9838981C2
:1021000029960FB6F894DEBF0FBECDBFDF91CF91F9
:102110001F910F91FF90EF90DF90CF90BF90AF9005
:102120009F908F907F906F905F904F903F902F90F7
:1021300008952F923F924F925F926F927F928F926B
:102140009F92AF92BF92CF92DF92EF92FF920F9346
:102150001F93CF93DF9300D000D01F92CDB7DEB78F
:102160004901002309F4E2C0DC0116962C90362FB9
:1021700032252322622C712C63236983E62FF0E041
:10218000FB83EA836114710449F0DC0112962D91FE
:102190003C911397232B41F410E0CBC0EA81FB81E3
:1021A000EF2B99F710E0C5C0302E2A019D838C8358
:1021B000DC011496EC90F12CC12CD12C10E0A12C58
:1021C000B12C01E0AC81BD81ED91FC91008CF18DD1
:1021D000E02DA701B6018EED93E009958091DE0315
:1021E000882301F1813081F038121CC02091DF0377
:1021F0003091E003EC81FD818781908582279327D0
:1022000088219921892B71F48091E10390E0861552
:10221000970541F48091E20390E02A813B81821787
:10222000930781F03FEFA31AB30ACE0CDF1C102FE7
:10223000AC81BD8112968D919C911397A816B90619
:1022400008F203C0113009F074C0E9EEF3E0308207
:10225000AC81BD8117968D919C9118979283818353
:102260002382B981B48396828582E1E0E315D0F4BC
:10227000E9EEF3E09C01242535252821392182232C
:10228000932390878783AC81BD8117962D913C91D4
:1022900018972425352582229322482059205286DA
:1022A00041860DC0E9EEF3E0C2018095909588214A
:1022B0009921908787838420952092868186EC815E
:1022C000FD8182819381892B99F100E010E0C12C7E
:1022D000D12CAC81BD81ED91FC91008CF18DE02D74
:1022E000A701B8018EED93E009958091DE0381117D
:1022F0000FC0AC81BD81ED91FC91048CF58DE02D7A
:10230000A701602F712F89EE93E0099512E011C0AB
:10231000BFEFCB1ADB0A0E0D1F1DEC81FD81828100
:102320009381C816D906A8F213E003C010E001C0DB
:1023300011E0812F0F900F900F900F900F90DF9171
:10234000CF911F910F91FF90EF90DF90CF90BF90B2
:10235000AF909F908F907F906F905F904F903F9045
:102360002F900895FC0171836083538342838BE037
:10237000848315821086178287EC9DE0938782877D
:1023800089E990E19587848786E19DE09787868734
:1023900080E59FE0918B808B8CE59DE0938B828B19
:1023A00085EB9DE0958B848B89EB9DE0978B868BED
:1023B0008CEB9DE0918F808F81EC9DE0938F828FDD
:1023C00084EC9DE0958F848FCF01089517BA8FEF2D
:1023D00088BB0895CF93DF93CDB7DEB7CC5BD1092F
:1023E0000FB6F894DEBF0FBECDBFF0DF43E250E082
:1023F00061E270E082E290E032D82E833F8348872A
:1024000059876A877B878C879D876C847D842BE3C3
:1024100030E049E350E06AE370E0CE010E969EDAC8
:10242000888D998DCE54DF4F99838883C25BD040CD
:10243000EA8CFB8CEC8DFD8DC055DF4FF983E88372
:10244000C05BD0408E8D9F8DC554DF4F99838883AC
:10245000CB5BD040C8A0D9A0CE0184960E949E0339
:102460004BE651E0BE016C5D7F4FCE018E5B9F4F0E
:1024700079DFCE01805A9F4F0E94D507CE57DF4F9C
:10248000A880B980C258D040C457DF4FE881F98195
:10249000CC58D040CC54DF4FF983E883C45BD040A4
:1024A00001E020E042E065E670E084E690E00E9412
:1024B0001F01C655DF4F2883CA5AD040C555DF4F8C
:1024C0003883CB5AD040C455DF4F4883CC5AD040D4
:1024D000C355DF4F5883CD5AD040C255DF4F688374
:1024E000CE5AD040C155DF4F7883CF5AD0406C963A
:1024F000EEADFFAD6C976FEF70E0CE018E5B9F4F3E
:102500000995C754DF4F19821882C95BD040C9545E
:10251000DF4F19821882C75BD040CA54DF4F188240
:10252000C65BD040412C6894222423F8EAA1FBA189
:102530000995E885F9850995EA85FB85099529833B
:102540003A834B835C836D83522E0A811B818C807E
:102550009D8036B26EE070E080E090E0F601099573
:10256000832D90E0F50109959093F6018093F50194
:1025700065E0F7010995842D90E08A30910508F017
:102580001FC3FC01EA5BFF4F9AC360E070E080E08C
:1025900090E0F6010995622D82E191E0F70109953D
:1025A0006E96EEADFFAD6E97CE018E5B9F4F099597
:1025B00090E0F50109959093F6018093F50163E0B1
:1025C000F7010995F1E45F120AC0C554DF4FE881B5
:1025D000F981CB5BD0400995F3010995A7CFF2E4CF
:1025E0005F120CC0C554DF4FE881F981CB5BD0404E
:1025F0000995F30109954424439410C0F3E45F1254
:102600000DC0C554DF4FE881F981CB5BD0400995FF
:10261000F30109950F2EF6E04F2EF02D2E96EEAD1C
:10262000FFAD2E97632DCE018E5B9F4F0995C8C2DB
:1026300060E070E080E090E0F60109956CE08BE1ED
:1026400091E0F701099560E070E081E090E0F6012B
:10265000099564E183E291E0F701099568944424C7
:1026600041F8AEC267E070E080E090E0F6010995C5
:1026700064E0C801F7010995F4E45F122AC0C401BF
:10268000CC54DF4FE881F981C45BD04009958C01BF
:10269000CA54DF4F8883C65BD04060E070E082E0C0
:1026A00090E0F6010995C8019927F50109959093E5
:1026B000F6018093F501CE54DF4FE881F981C25BCA
:1026C000D0400995F30109950F2EF3E04F2EF02D20
:1026D00077C2F3E45F1274C2F301099571C267E037
:1026E00070E080E090E0F601099564E0C801F70130
:1026F0000995F4E45F122DC0C401CC54DF4FE8818A
:10270000F981C45BD0400995C954DF4F9983888310
:10271000C75BD04065E070E082E090E0F60109958B
:10272000C954DF4F88819981C75BD040F501099575
:102730009093F6018093F501CE54DF4FE881F98143
:10274000C25BD0400995F30109956894442442F88E
:1027500037C2F3E45F1234C2F301099531C267E076
:1027600070E080E090E0F601099564E0C801F701AF
:102770000995F4E45F122EC0C401CC54DF4FE88108
:10278000F981C45BD0400995C754DF4F9983888392
:10279000C95BD0406AE070E082E090E0F601099504
:1027A000C754DF4F88819981C95BD040F5010995F5
:1027B0009093F6018093F501CE54DF4FE881F981C3
:1027C000C25BD0400995F30109950F2EF5E04F2E1D
:1027D000F02DF6C1F3E45F12F3C1F3010995F0C1E6
:1027E00067E070E080E090E0F601099564E0C801E0
:1027F000F7010995F4E45F1283C0C401CC54DF4FA4
:10280000E881F981C45BD04009958C016FE070E0EC
:1028100082E090E0F6010995C8019927F501099534
:102820009093F6018093F501CE54DF4FE881F98152
:10283000C25BD04009956096EEADFFAD6097C7547E
:10284000DF4F28813981C95BD040C954DF4F4881AF
:102850005981C75BD040CA54DF4F6881C65BD04006
:10286000CE018E5B9F4F0995823019F128F48823A1
:1028700041F0813091F040C0833039F1843089F1EA
:102880003BC06CE070E083E090E0F601099567E002
:1028900087E391E0F70109952FC06CE070E083E0D9
:1028A00090E0F601099567E080E491E0F701099571
:1028B00023C06CE070E083E090E0F601099567E0EA
:1028C00087E491E0F701099517C06CE070E083E0C0
:1028D00090E0F601099567E087E491E0F70109953A
:1028E0000BC06CE070E083E090E0F601099567E0D2
:1028F0008EE491E0F7010995F3010995412C60C13F
:10290000F3E45F125DC1F30109955AC160E070E024
:1029100081E090E0F60109956AE083E591E0F70136
:10292000099560E070E082E090E0F601099561E1D0
:102930008EE591E0F70109950F2EF7E04F2EF02D6F
:102940003FC1F1E35F123CC060E070E081E090E0E5
:10295000F60109958AE0C055DF4FE881F981C05B37
:10296000D040099560E070E082E090E0F6010995C2
:1029700081E1C055DF4FE881F981C05BD040099506
:102980006696EEADFFAD6697CE018E5B9F4F0995C3
:10299000A096EEADFFADA09760E0CE018E5B9F4F9D
:1029A0000995F30109956CE070E083E090E0F60191
:1029B000099567E080E791E0F7010995412C00C196
:1029C000F2E35F1220C060E070E081E090E0F60189
:1029D00009958AE0C055DF4FE881F981C05BD0409E
:1029E000099560E070E082E090E0F601099581E1F0
:1029F000C055DF4FE881F981C05BD0400995F301F4
:102A00000995422CDDC0F3E35F12DAC060E070E0AC
:102A100081E090E0F60109958AE0C055DF4FE8813A
:102A2000F981C05BD040099560E070E082E090E001
:102A3000F601099581E1C055DF4FE881F981C05B5E
:102A4000D0400995F3010995412CBAC060E070E0CF
:102A500080E090E0F60109956CE08BE191E0F701F0
:102A6000099560E070E081E090E0F601099564E18D
:102A700088E791E0F70109950F2EF9E04F2EF02D30
:102A80009FC067E070E080E090E0F601099564E0A7
:102A9000C801F7010995F4E45F128CC0C401CC545D
:102AA000DF4FE881F981C45BD04009958C01CA549D
:102AB000DF4F8883C65BD04060E070E082E090E04A
:102AC000F6010995C8019927F50109959093F6013A
:102AD0008093F501CE54DF4FE881F981C25BD0408D
:102AE00009956496EEADFFAD6497602FCE018E5BC5
:102AF0009F4F099590E08B32910508F057C0FC017B
:102B0000E05BFF4FDCC06CE070E083E090E0F6013A
:102B1000099567E08EE791E0F701099547C06CE001
:102B200070E083E090E0F601099567E087E891E0C6
:102B3000F70109953BC06CE070E083E090E0F6019E
:102B4000099567E081E991E0F70109952FC06CE0F4
:102B500070E083E090E0F601099567E08EE991E08E
:102B6000F701099523C06CE070E083E090E0F60186
:102B7000099567E08EE991E0F701099517C06CE0CF
:102B800070E083E090E0F601099567E08AEA91E061
:102B9000F70109950BC06CE070E083E090E0F6016E
:102BA000099567E086EB91E0F7010995F301099536
:102BB000412C06C0F3E45F1203C0F3010995422CD7
:102BC00060E070E083E090E0F601099567E083EC57
:102BD00091E0F70109956896EEADFFAD6897CE01DB
:102BE0008E5B9F4F0995F50109959093F6018093AF
:102BF000F50164E0F7010995C455DF4F088119819B
:102C0000CC5AD0406896EEADFFAD6897CE018E5B92
:102C10009F4F0995F801099589CCDB018F939F930C
:102C200066D0BF91AF91A29F800D911DA39F900D83
:102C3000B29F900D11240895AA1BBB1B51E107C040
:102C4000AA1FBB1FA617B70710F0A61BB70B881F3C
:102C5000991F5A95A9F780959095BC01CD010895CB
:102C600097FB072E16F4009406D077FD08D0E4DF1A
:102C700007FC05D03EF4909581959F4F089570957F
:102C800061957F4F0895052E97FB16F400940FD0A1
:102C900057FD05D036D007FC02D046F408C0509549
:102CA0004095309521953F4F4F4F5F4F0895909538
:102CB0008095709561957F4F8F4F9F4F0895EE0FD0
:102CC000FF1F0024001C0BBE0790F691E02D099415
:102CD000A29FB001B39FC001A39F700D811D11245D
:102CE000911DB29F700D811D1124911D0895F0DF7B
:102CF000A59F900DB49F900DA49F800D911D112450
:102D00000895A1E21A2EAA1BBB1BFD010DC0AA1F2C
:102D1000BB1FEE1FFF1FA217B307E407F50720F044
:102D2000A21BB30BE40BF50B661F771F881F991FBF
:102D30001A9469F760957095809590959B01AC0108
:102D4000BD01CF010895DC01CB01FC01E199FECF6B
:102D500006C0FFBBEEBBE09A31960DB20D9241501A
:102D60005040B8F70895E199FECF9FBB8EBBE09A23
:102D700099278DB30895A8E1B0E042E050E0E5CF97
:102D8000DC01A40FB51F4150504040F0CB01840F2F
:102D9000951F2E9105D041505040D8F70895262F09
:102DA000E199FECF9FBB8EBBE09A01970DB2021650
:102DB00031F02DBB0FB6F894E29AE19A0FBE089558
:102DC0000396272FEDDFEBDF252FEADF242FE8CF57
:102DD0000196272FE5DFE3CFDC01CB0102C02D9167
:102DE00005D041505040D8F70895262FE199FECFE5
:102DF0009FBB8EBB2DBB0FB6F894E29AE19A0FBE33
:102E000001960895242FF2DF252FF0DF00C0EDDFBB
:082E1000272FECCFF894FFCF4F
:102E18003132334134353642373839432A30234446
:102E2800000052756E6E696E672000456E7465729B
:102E38003A2000496E2020204F757420204D617380
:102E48006B20506167650064697361626C6564003A
:102E58006578697374730075706C6F61640066756A
:102E68006C6C0044656C657465202D2031005265DA
:102E78006D6F7665202D2032204E6F202D20330077
:102E880064656C6574656400496E707574004E6F96
:102E980020656E747279004E657720456E7472797C
:102EA80000676C6F62616C206C6F676963006C6FA0
:102EB80063616C206C6F676963006C6F63616C2081
:102EC80061626F7665006C6F63616C2062656C6C23
:0C2ED8006F77004F757470757420000057
:00000001FF
