S011000041746D6567613132382E7372656329
S113000045C0000062C0000060C000005EC0000087
S11300105CC000005AC0000058C0000056C0000078
S113002054C0000052C0000050C000004EC0000088
S11300304CC000004AC0000048C0000046C0000098
S113004044C0000042C00000C6C00000FCC0000064
S11300503CC000003BC0000038C0000036C00000B7
S113006034C0000032C0000030C000002EC00000C8
S11300702CC000002AC000000FC1000048C10000CD
S113008024C0000022C0000020C0000011241FBEB4
S1130090CFEFD0E1DEBFCDBF11E0A0E0B1E0EEE6EE
S11300A0F8E100E00BBF02C007900D92A033B10746
S11300B0D9F722E0A0E3B1E001C01D92AA32B20751
S11300C0E1F70E94B10A0C94350C9ACF1F920F925B
S11300D00FB60F9211240BB60F922F933F938F9369
S11300E09F93EF93FF9384B190E09093BC0180932E
S11300F0BB0125B18091BB019091BC01922B9093DF
S1130100BC018093BB018091BA018430A0F480913A
S1130110BA018F5F8093BA012091BB013091BC0179
S11301208091BD019091BE01820F931F9093BE01F7
S11301308093BD0143C0E091BF01F091C001809163
S1130140BD019091BE019595879595958795EE0F84
S1130150FF1FED52FE4F918380831092BE011092D7
S1130160BD011092BA012091BF013091C00180916C
S1130170C1019091C2012817390754F48091BF013D
S11301809091C00101969093C0018093BF0104C077
S11301901092C0011092BF0187B1807E87B9E091AF
S11301A0BF01F091C001EE0FFF1FED53FE4F8081A0
S11301B0918127B18F719927822B87B9FF91EF9194
S11301C09F918F913F912F910F900BBE0F900FBE77
S11301D00F901F9018951F920F920FB60F92112433
S11301E00BB60F928F939F93EF93FF938BB19AB1BA
S11301F0887180937501E0917701EF5FEF718091D1
S11302007601E81304C082E08093750111C09CB1AB
S1130210E093770180917501882331F0F0E0E6588E
S1130220FE4F88E5808304C0F0E0E658FE4F9083DB
S1130230FF91EF919F918F910F900BBE0F900FBE86
S11302400F901F9018951F920F920FB60F921124C2
S11302500BB60F928F939F93EF93FF939091790135
S113026080917801981302C055980BC0E0917801F1
S1130270EF5FEF71E0937801F0E0E656FE4F808186
S11302808CB9FF91EF919F918F910F900BBE0F90BE
S11302900FBE0F901F9018951F920F920FB60F92DA
S11302A011240BB60F928F939F93EF93FF9380913A
S11302B09B0090919A00887180933001E091320103
S11302C0EF5FEF7180913101E81304C082E0809305
S11302D0300112C090919C00E09332018091300172
S11302E0882331F0F0E0EB5CFE4F88E5808304C0A6
S11302F0F0E0EB5CFE4F9083FF91EF919F918F9123
S11303000F900BBE0F900FBE0F901F9018951F9269
S11303100F920FB60F9211240BB60F928F939F93E7
S1130320EF93FF939091340180913301981306C0A9
S1130330EAE9F0E080818F7D80830EC080913301F3
S11303408F5F8F7180933301E0913301F0E0EB5ABA
S1130350FE4F808180939C00FF91EF919F918F913C
S11303600F900BBE0F900FBE0F901F90189568232F
S1130370442321F0861721F080E00895611180E084
S11303800895862B08958623089586230895862B41
S11303908095089586278623089560958623089579
S11303A086270895CF92DF92EF92FF920F931F93C7
S11303B0FC010081118122813381FB01C080D18045
S11303C0E280F380FC01C082D182E282F382FB01ED
S11303D000831183228333831F910F91FF90EF9049
S11303E0DF90CF900895FB012081FC01208322231C
S11303F039F0DB01119631969D9191939111FCCFC7
S11304000895CF93DF93EC019881992399F0FE012D
S1130410319620E030E0492F50E04617570731F07D
S1130420DE01A20FB31F9C932F5F3F4F9191911157
S1130430F2CF02C020E030E0FE01E20FF31F108291
S1130440DF91CF9108952F923F924F925F926F92D6
S11304507F928F929F92AF92BF92CF92DF92EF9250
S1130460FF920F931F93CF93DF9300D000D0CDB7AB
S1130470DEB72C011B014B0177231CF42FEF821AEA
S1130480920A95948794181419040CF451C06AC004
S11304909601DD209CF1F50140815181F4016081D8
S11304A071816417750754F58C010A0D1B1DD40165
S11304B0BC82AB82BA82A982EB81FC8171836083A6
S11304C011965C934E932E193F09C2F0F8014081B6
S11304D05181E981FA8160817181080F191FE80F48
S11304E0F91FFA83E983EB81FC81E80FF91FFC8390
S11304F0EB83A80FB91F64177507F4F2FFEFCF1A47
S1130500DF0A22E0A20EB11CE2E08E0E911CC6149A
S1130510D70409F0BDCF4701FF201CF4FFEF8F1A69
S11305209F0A9594879418141904E4F4740101C083
S11305307401821493047CF76401CE18DF08560119
S1130540AA0CBB1CA40CB51C880C991C840C951C0F
S113055031016E187F08C701880F991F9195819505
S1130560910996CF0F900F900F900F90DF91CF913C
S11305701F910F91FF90EF90DF90CF90BF90AF90BD
S11305809F908F907F906F905F904F903F902F90AF
S11305900895861797070CF4CB0108959B01672BE8
S11305A011F408959A01B9010E94CB0BAC01822F7A
S11305B0932F41155105B1F70895FC01908180ED09
S11305C0890F8A30D0F4319620E030E0A901440F3D
S11305D0551F220F331F220F331F220F331F420FC9
S11305E0531F292F30E020533109240F351F9191D7
S11305F080ED890F8A3050F302C020E030E0C90159
S1130600089586230895009739F020E030E02F5FA5
S11306103F4F82179307D9F7089587FF08C0919534
S113062081959109992791958195910908958F77DD
S11306309927089591FF08C0919581959109937028
S1130640919581959109089591700895615021E0E3
S113065030E002C0220F331F6A95E2F7A90141502E
S11306605109B90168237923672B29F08423952341
S1130670821B930B08958423952308959DEC899FF1
S1130680912D1124969596959695392F330F232FF6
S1130690220F220F230F821B20E1929F800D112431
S11306A00895982F92959F70990F292F220F220F4A
S11306B0920F8F70890F0895FC01DB01AD51BE4F7D
S11306C01C921616170614F5908191110CC017C0D0
S11306D0919191110DC015C081932F5F3F4F261743
S11306E03707D4F313C0A3EEB1E0319620E030E035
S11306F09D932F5F3F4F6217730751F707C020E0A8
S113070030E0F901ED51FE4F80E2E6CF83EE91E057
S113071008954F925F926F927F92AF92BF92CF9261
S1130720DF92EF92FF920F931F93CF93DF93CDB796
S1130730DEB729013A019B01AC01241935094609A8
S1130740570989899A89AB89BC89BC01CD016A1989
S11307507B098C099D09FCD7A80197012419350947
S1130760460957090E94000CCA01B9016A0D7B1D94
S11307708C1D9D1DDF91CF911F910F91FF90EF90E4
S1130780DF90CF90BF90AF907F906F905F904F902D
S1130790089570E06115710599F041E050E021E0A1
S11307A030E090E0FA01E89FA001E99F500DF89F26
S11307B0500D11242F5F3F4F6217730798F702C043
S11307C041E050E0CA010895FC012081222341F058
S11307D0319680E090E0019621912111FCCF08959B
S11307E080E090E00895CF93DF93EC01EDDF9C016E
S11307F02150310962F0FE01E80FF91F9291903205
S113080019F09950923018F421503109B8F7C20FF9
S1130810D31F1982C901DF91CF910895CF93DF933C
S1130820EC01D2DF9C01215031091216130684F425
S1130830DE01A80FB91FFE0180E090E040815E91C7
S113084051934C9301962150310982179307B4F3C5
S1130850DF91CF9108956F927F928F929F92AF9282
S1130860BF92CF92DF92EF92FF920F931F93CF9399
S1130870DF936B017C01EA01DC01CB01FF203CF436
S113088088279927DC018C199D09AE09BF09BC0191
S1130890CD01712C0F2EFAE08F2E912CA12CB12CAE
S11308A0F02D01C0762C66246394670C8E01070D2D
S11308B0111DA5019401A4D7605DF8016083622F26
S11308C0732F842F952F161617061806190654F33E
S11308D0FF204CF4FE01E60DF11D8DE28083689447
S11308E0662461F8670CFE01E60DF11D1082CE014D
S11308F095DFDF91CF911F910F91FF90EF90DF90E3
S1130900CF90BF90AF909F908F907F906F900895FD
S1130910EF92FF920F931F93CF93DF938C01EB0120
S1130920992324F488279927801B910B20E00F2E0C
S1130930FAE0EF2EF12CF02D01C0232F31E0320F1D
S1130940FE01E20FF11DB70126D7805D8083862F5B
S1130950972F181619068CF311233CF4FE01E30FAC
S1130960F11D8DE2808332E0320FFE01E30FF11DB1
S11309701082CE0153DFDF91CF911F910F91FF9031
S1130980EF9008951F93CF93DF93AC01FB0180E0B8
S113099011E0180FEF01C80FD11D9A01ADECBCECAA
S11309A04BD79695879596958795969587959C01AF
S11309B0220F331F880F991F880F991F880F991FC3
S11309C0820F931F9A01281B390BC901805D88830C
S11309D09A0132D7AC015695479556954795569549
S11309E04795812F4115510599F6DF01A10FB11DDE
S11309F01C92CF0113DFDF91CF911F910895982F9F
S1130A0092959F70990F292F220F220F920F8F70AA
S1130A10890F0895AC019C01ADECBCEC0DD7969503
S1130A2087959695879596958795BC01660F771F50
S1130A309C01220F331F220F331F220F331F260F57
S1130A40371F421B530B342F20E1829F300D11249A
S1130A50832F0895CF92DF92EF92FF92CF93DF938B
S1130A60CDB7DEB728970FB6F894DEBF0FBECDBF63
S1130A706B017C0169837A838B839C832D833E8302
S1130A804F835887C216D306E406F50634F4BE0134
S1130A906B5F7F4FCE01019685DC8D819E81AF8196
S1130AA0B885892B8A2B8B2B69F469817A818B8198
S1130AB09C8120E030E0A901A3D661157105810570
S1130AC0910529F46D817E818F81988505C06D83A0
S1130AD07E838F839887F6CF28960FB6F894DEBF6F
S1130AE00FBECDBFDF91CF91FF90EF90DF90CF90FD
S1130AF0089590E002C0959587956A95E2F7817014
S1130B000895E3EEF1E090E020E850E341E3382F6C
S1130B10322311F0408301C0508326959F5F3196A4
S1130B209830A9F71092EB0183EE91E00895A42F79
S1130B30B0E0109761F021E030E0E1E0F0E0EE0F8A
S1130B40FF1F2F5F3F4FA217B307C8F702C0E1E0B2
S1130B50F0E031976E237F238E239F2386279727E8
S1130B606823792302C0660F771F4A95E2F7862B24
S1130B70972B0895FC019FB78FB78F778FBF9FBFC7
S1130B8089EC93E09183808384EE93E09383828362
S1130B908EE094E09583848387E995E09783868348
S1130BA087EB91E09187808785EC91E0938782873A
S1130BB087EC91E0958784878AEC91E09787868714
S1130BC08DEC91E0918B808B80ED91E0938B828B07
S1130BD081EC91E0958B848B83EC91E0978B868BF1
S1130BE082ED91E0918F808F83EF91E0938F828FDC
S1130BF081E092E0958F848F83E292E0978F868FD5
S1130C0088E894E091A380A382EC94E093A382A368
S1130C108BE294E095A384A383EF93E097A386A348
S1130C2089EC92E091A780A78EEC92E093A782A72B
S1130C308DED92E095A784A781E093E097A786A71E
S1130C4083E093E091AB80AB8DE093E093AB82AB18
S1130C508AE193E095AB84AB86E293E097AB86ABF5
S1130C608EE393E091AF80AF81E593E093AF82AFE1
S1130C708CE593E095AF84AF89E893E097AF86AFB6
S1130C80DF01A05CBF4F8FEF94E011969C938E938D
S1130C9012968AE095E011969C938E9312968AE2BE
S1130CA095E011969C938E93129689E795E01196A0
S1130CB09C938E93129681E895E08D939C93CF013B
S1130CC0089580E28093040210920102E5E0F2E0CC
S1130CD089E192E01192E817F907E1F70895CF93BB
S1130CE0DF9321E080E0A9EFB1E0EDEFF1E060E017
S1130CF071E001C02F5F9FEF920F913009F44BC058
S1130D0038F0923009F48CC0933009F4CEC00EC18F
S1130D1040911A0250911B02EA01988190689883CD
S1130D204091F7015091F801EA0198819F779883E7
S1130D304091020250910302EA01388134773C93D6
S1130D409081432F492794233083992399F0943039
S1130D5019F4EB0188810AC0903119F4EB018981FF
S1130D6009C0903219F4EB018A8104C0903411F463
S1130D70EB018B8140911A0250911B02EA01988188
S1130D809F7798834091F7015091F801EA01988187
S1130D9090689883AFCF40911A0250911B02EA01E8
S1130DA09881916098834091F7015091F801EA018C
S1130DB098819E7F98834091020250910302EA0138
S1130DC03881347711963C9311979181432F4927A9
S1130DD094233183992399F0943019F4EB018C8195
S1130DE00AC0903119F4EB018D8109C0903219F4D5
S1130DF0EB018E8104C0903411F4EB018F8140919A
S1130E001A0250911B02EA0198819E7F98834091B7
S1130E10F7015091F801EA019881916098836ACFB3
S1130E2040911A0250911B02EA01988192609883C2
S1130E304091F7015091F801EA0198819D7F9883D0
S1130E404091020250910302EA01388134771296EC
S1130E503C9312979281432F4927942332839923F9
S1130E6099F0943019F4EB0188850AC0903119F493
S1130E70EB01898509C0903219F4EB018A8504C01D
S1130E80903411F4EB018B8540911A0250911B02AE
S1130E90EA0198819D7F98834091F7015091F80170
S1130EA0EA0198819260988325CFE0911A02F0912B
S1130EB01B02908198609083E091F701F091F80112
S1130EC09081977F9083E0910202F0910302208148
S1130ED024772093FC01EDEFF1E09381322F392741
S1130EE093232383992399F0943019F480910C016E
S1130EF00AC0903119F480910D0109C0903219F49F
S1130F0080910E0104C0903411F480910F01E0919E
S1130F101A02F0911B029081977F9083E091F70170
S1130F20F091F80190819860908303C0243008F414
S1130F30E1CEDF91CF910895CF93DF93EC01CFDE23
S1130F40882389F08093040290910102943158F42B
S1130F50E0910102F0E0EC5FFD4F8183809101029A
S1130F608F5F8093010286E1E4E0F2E0DE0101900C
S1130F700D928A95E1F7CE01DF91CF910895CF9339
S1130F80DF9300D000D000D0CDB7DEB7FC012FB77F
S1130F9080E2809304029FB79F779FBFF0931B0268
S1130FA0E0931A0270930302609302025093F801D3
S1130FB04093F7018BE88083E091F701F091F80109
S1130FC084E78083A9EFB1E08C93EDEFF1E08083B7
S1130FD011968C931197818312968C931297828326
S1130FE013968C938383109201022FBFE091F70133
S1130FF0F091F80180818B6880832FE636E03A8394
S113100029834CE957E05C834B8361E676E07E8379
S11310106D833A815C817E8180E090E026960FB6F4
S1131020F894DEBF0FBECDBFDF91CF910895E0915C
S11310302602F091270290819D7F9083672B41F0D7
S1131040E0912602F091270290819160908307C07D
S1131050E0912602F091270290819E7F9083E09197
S11310602302F09124029081906F9083E0912602F4
S1131070F0912702908194609083882344F4E09156
S11310802602F091270290819068908307C0E09136
S11310902602F091270290819F77908386FF08C0F3
S11310A0E0912602F091270290819064908307C01A
S11310B0E0912602F091270290819F7B908385FF27
S11310C008C0E0912602F0912702908190629083FB
S11310D007C0E0912602F091270290819F7D9083C2
S11310E084FF08C0E0912602F0912702908190616C
S11310F0908307C0E0912602F091270290819F7EA1
S11311009083E0912602F091270290819B7F908347
S1131110E0912602F091270290819460908383FFEE
S113112008C0E0912602F091270290819068908394
S113113007C0E0912602F091270290819F77908367
S113114082FF08C0E0912602F0912702908190640A
S1131150908307C0E0912602F091270290819F7B43
S1131160908381FF08C0E0912602F09127029081CC
S11311709062908307C0E0912602F091270290814B
S11311809F7D908380FF08C0E0912602F0912702A2
S113119080818061808307C0E0912602F09127025C
S11311A080818F7E8083E0912602F09127028081E6
S11311B08B7F80830895E0912302F09124022081A3
S11311C02F702083E0912602F09127022081206F66
S11311D02083E0912602F09127022081226020835F
S11311E0892B41F0E0912602F091270280818160F1
S11311F0808307C0E0912602F091270280818E7FD0
S11312008083E0912602F0912702808184608083AC
S1131210E0911C02F0911D028081882314F080E08B
S113122001C080E8908196FF02C0806401C08F7B7A
S1131230908195FF02C0806201C08F7D908194FFF0
S113124002C0806101C08F7EE0912602F0912702E6
S113125090819B7F9083E0912602F09127029081F8
S113126094609083E0911C02F0911D029081992377
S113127014F4886001C0877F908196FF02C0846067
S113128001C08B7F908195FF02C0826001C08D7F79
S1131290908194FF02C0816001C08E7FE09126029C
S11312A0F091270290819B7F90830895CF93DF93E1
S11312B080E090E080DFCBE0D0E005C080E090E00B
S11312C07ADF219711F08823CCF3DF91CF91089531
S11312D061E070E0ACDEEACF0895CF9381E090E066
S11312E06ADFC82FE3DF8C2FCF910895CF93DF936C
S11312F0EC018881882341F0219661E070E097DE5B
S1131300D5DF89918111F9CFDF91CF9108950F93A2
S11313101F93CF93DF93FC01D62F8081882351F054
S11313208F010F5F1F4F611109C01BC0CF5FDC1716
S113133030F401C0C0E0CD1760F013C0C1E061E03B
S113134070E075DEB3DFF80181918F018111EECF7A
S1131350F2CFCF5F61E070E080E269DEA7DFCD17F6
S1131360C0F3DF91CF911F910F910895CF93C82FB0
S1131370882339F061E070E080E259DE97DFC150E4
S1131380C9F7CF910895262F8130910571F030F07F
S11313908230910589F00397B1F0089560E070E020
S11313A080E8820F44DE82CF089560E070E080EC34
S11313B0820F3DDE7BCF089560E070E084E9820F08
S11313C036DE74CF089560E070E084ED820F2FDE86
S11313D06DCF089560E070E081E029DE87EE97E14B
S11313E00197F1F700C000000895E0912302F09105
S11313F0240287E08083E0912602F091270288E0AE
S113140080832FEF83EF91E0215080409040E1F7FB
S113141000C0000060E070E083E309DE20ED2A955F
S1131420F1F760E070E083E302DE80ED8A95F1F786
S113143060E070E08BE2FBDD95EC9A95F1F700003B
S113144060E070E08CE0F3DD25EC2A95F1F7000014
S113145060E070E081E0EBDD87EE97E10197F1F762
S113146000C0000060E070E086E0E1DD95EC9A9554
S1131470F1F7000008951F93CF93DF93EC011FB79A
S11314808FB78F778FBF709324026093230250939A
S11314901D0240931C023093270220932602FB0175
S11314A01082E0912602F09127028FEF8083E09171
S11314B01C02F0911D02808188708093250295DFC3
S11314C01FBF87E198E0998388838BED98E09B8325
S11314D08A8386E599E09D838C8388E699E09F83DF
S11314E08E838DE699E09987888786E799E09B87C4
S11314F08A8787E899E09D878C8786EB99E09F87A8
S11315008E878AEE99E0998B888B83EC99E09B8B8C
S11315108A8B82E99AE09D8B8C8BCE01DF91CF91EF
S11315201F910895CF93E0911C02F0911D02C08198
S1131530C870809125028C278C2309F056DFC09354
S11315402502CF910895E4E6F0E0808184608083F1
S1131550E5E6F0E08081836080838FB780688FBF89
S11315600895CF93DF93CDB7DEB7C85AD1090FB62C
S1131570F894DEBF0FBECDBFE6DF809110019091DD
S113158011019EA78DA7FE01BF9682E1DF011D9286
S11315908A95E9F7CE018F5B9F4FECDA6396EEAD47
S11315A0FFAD6397C955DF4FF983E883C75AD0402D
S11315B02BE330E049E350E06AE370E0CE01855765
S11315C09F4F59DFC956DF4FE880F980C759D04093
S11315D0C356DF4F08811981CD59D04043E250E012
S11315E061E270E082E290E0CADCCF55DF4F2883ED
S11315F0C15AD040CE55DF4F3883C25AD040CD5562
S1131600DF4F4883C35AD040CC55DF4F5883C45A68
S1131610D040CB55DF4F6883C55AD040CA55DF4F01
S11316207883C65AD040CD55DF4FA880B980C35ABD
S1131630D040412C512C0F2EF3E0CF2ED12CF02D85
S11316400F2EF3E66F2E712CF02DC156DF4FE8817B
S1131650F981CF59D0400995D3018C918370382EEC
S113166060E070E080E090E0F801099567E084E2D2
S113167091E0F701099562E070E081E090E0F80103
S1131680099563E08CE291E0F701099560E070E070
S113169082E090E0F8010995CB56DF4F888099806D
S11316A0C559D040CE014796F5010995CE0148961B
S11316B0F401099560E070E083E090E0F801099599
S11316C0F3E0CF16D104E9F4632D83E0C955DF4F6D
S11316D0E881F981C75AD040099580FF04C0F1E040
S11316E04F1A51080EC0632D83E0C955DF4FE881BE
S11316F0F981C75AD040099581FF03C0FFEF4F1A03
S11317005F0AC32CD12CA596EEADFFADA597BE0103
S1131710635D7F4FC20109956AE0CE018D96F701A2
S11317200995CE010196F50109958981833409F063
S11317308CCFCB55DF4FE881F981C55AD04009954C
S1131740C556DF4FE881F981CB59D04009957DCF4B
S1131750DB018F939F937FD0BF91AF91A29F800DA8
S1131760911DA39F900DB29F900D11240895AA1B63
S1131770BB1B51E107C0AA1FBB1FA617B70710F078
S1131780A61BB70B881F991F5A95A9F780959095AA
S1131790BC01CD01089597FB072E16F4009406D0E2
S11317A077FD08D0E4DF07FC05D03EF490958195E1
S11317B09F4F0895709561957F4F0895A1E21A2E69
S11317C0AA1BBB1BFD010DC0AA1FBB1FEE1FFF1FE1
S11317D0A217B307E407F50720F0A21BB30BE40B31
S11317E0F50B661F771F881F991F1A9469F7609578
S11317F07095809590959B01AC01BD01CF01089532
S1131800052E97FB16F400940FD057FD05D0D6DFB4
S113181007FC02D046F408C05095409530952195B8
S11318203F4F4F4F5F4F0895909580957095619508
S11318307F4F8F4F9F4F0895A29FB001B39FC00168
S1131840A39F700D811D1124911DB29F700D811DE8
S11318501124911D0895F0DFA59F900DB49F900D64
S1111860A49F800D911D11240895F894FFCFCC
S113186E3132334134353642373839432A30234402
S113187E0000000000000000000000000000000056
S113188E00000000426F6F742055700052756E0098
S9030000FC
