:1000000078240020190100001501000015010000EE
:1000100000000000000000000000000000000000E0
:1000200000000000000000000000000015010000BA
:100030000000000000000000150100001501000094
:100040001501000015010000150100001501000058
:100050001501000015010000150100001501000048
:100060001501000015010000150100001501000038
:100070001501000015010000150100001501000028
:100080001501000015010000150100001501000018
:100090001501000000000000000000001501000034
:1000A00015010000150100001501000015010000F8
:1000B0000000000010B5064C2378002B07D1054B3B
:1000C000002B02D0044800E000BF0123237010BDC4
:1000D0003404002000000000E0030000084B10B5CD
:1000E000002B03D00749084800E000BF0748036819
:1000F000002B00D110BD064B002BFBD09847F9E731
:100100000000000038040020E0030000E0030000CD
:1001100000000000FEE70000F8B52A4A2A4B9A4288
:1001200011D01A00294B9A420DD2294A03339B1A47
:100130009B0801339B000022234822498C5884509D
:1001400004329A42FAD1234A234B9A420AD2D34329
:1001500021495B1803218B4304339B18002102C201
:100160009342FCD11D4AFF211D4B8B439360FD3907
:1001700090235B001B4AD1501B4AD3780325AB4325
:1001800002242343D370D3780C27BB430826334380
:10019000D370164B987B30229043202210439873E3
:1001A000997BB943314399739A7BAA4322439A734B
:1001B0000F4A536880210B4353600E4B98470E4BF8
:1001C0009847FEE7E0030000000000203404002010
:1001D00004000020340400207404002000ED00E03E
:1001E0000000000000700041005000410048004144
:1001F00000400041190200000D020000014A024BBC
:100200001A60704740420F000000002010B5014BFB
:100210009847FEE7FD01000070B50D4E0D4D00241E
:10022000AD1BAD1005D0A300F35801349847A5428B
:10023000F9D100F0C3F8084E084D0024AD1BAD10F5
:1002400005D0A300F35801349847A542F9D170BDF9
:10025000C8030000C8030000C8030000D00300006A
:10026000034B10B5002B02D0024800F005F810BD7A
:10027000000000008902000010B5010000230022E8
:10028000002000F01FF810BD70B5094B094CE41AAE
:10029000A41009D0084AA518AD00ED182B68013C40
:1002A0009847043D002CF9D100F092F870BDC0468B
:1002B000DC030000E0030000FFFFFF3F7047C04683
:1002C0007047C046F0B54E464546DE465746E0B557
:1002D000364D83B00600286898460F009146FFF718
:1002E000EDFF334B1C68A4235B00E058002852D07C
:1002F00043681F2B13DC5A1C0192002E28D1019A4F
:1003000002339B0042601F502868FFF7D9FF00208E
:1003100003B03CBC90469946A246AB46F0BD254B87
:10032000002B3DD0C820400000E000BF002837D09F
:10033000A42200235200A15843600160A050403223
:10034000835004328350013301930023002ED6D012
:100350009A00924682444A46882154466250C422FA
:100360005200914681444A468739994012688B462B
:100370000A4394464A46614611608422414652002F
:10038000A150022EBBD102005C468D32FF321168B3
:100390000C431460B3E720004D30FF30E050A7E776
:1003A0002868FFF78DFF01204042B1E730040020AC
:1003B000B80300000000000008000020F8B5C046A7
:1003C000F8BC08BC9E46704761020000DD000000DA
:1003D000F8B5C046F8BC08BC9E467047B5000000A2
:1003E00040420F000000000000000000F402002066
:1003F0005C030020C4030020000000000000000097
:1004000000000000000000000000000000000000EC
:1004100000000000000000000000000000000000DC
:1004200000000000000000000000000000000000CC
:1004300000000000000000000000000000000000BC
:1004400000000000000000000000000000000000AC
:10045000000000000000000000000000000000009C
:10046000000000000000000000000000000000008C
:10047000000000000000000000000000000000007C
:10048000000000000000000000000000000000006C
:1004900001000000000000000E33CDAB34126DE609
:1004A000ECDE05000B000000000000000000000072
:1004B000000000000000000000000000000000003C
:1004C000000000000000000000000000000000002C
:1004D000000000000000000000000000000000001C
:1004E000000000000000000000000000000000000C
:040810005004002070
:00000001FF
