S011000041746D6567613132382E7372656329
S113000045C0000062C0000060C000005EC0000087
S11300105CC000005AC0000058C0000056C0000078
S113002054C0000052C0000050C000004EC0000088
S11300304CC000004AC0000048C0000046C0000098
S113004044C0000042C00000C6C00000FCC0000064
S11300503CC000003BC0000038C0000036C00000B7
S113006034C0000032C0000030C000002EC00000C8
S11300702CC000002AC000000FC1000048C10000CD
S113008024C0000022C0000020C0000011241FBEB4
S1130090CFEFD0E1DEBFCDBF11E0A0E0B1E0E4E9F5
S11300A0FDE100E00BBF02C007900D92A830B1073C
S11300B0D9F722E0A8E0B1E001C01D92A231B20755
S11300C0E1F70E94620D0C94C80E9ACF1F920F9212
S11300D00FB60F9211240BB60F922F933F938F9369
S11300E09F93EF93FF9384B190E090939401809356
S11300F0930125B18091930190919401922B909357
S1130100940180939301809192018430A0F48091B2
S113011092018F5F80939201209193013091940119
S11301208091950190919601820F931F909396016F
S11301308093950143C0E0919701F09198018091DB
S11301409501909196019595879595958795EE0FD4
S1130150FF1FE555FE4F9183808310929601109204
S1130160950110929201209197013091980180910C
S1130170990190919A012817390754F480919701B5
S1130180909198010196909398018093970104C0EF
S1130190109298011092970187B1807E87B9E091FF
S11301A09701F0919801EE0FFF1FE556FE4F8081F5
S11301B0918127B18F719927822B87B9FF91EF9194
S11301C09F918F913F912F910F900BBE0F900FBE77
S11301D00F901F9018951F920F920FB60F92112433
S11301E00BB60F928F939F93EF93FF938BB19AB1BA
S11301F0887180934D01E0914F01EF5FEF71809121
S11302004E01E81304C082E080934D0111C09CB1FB
S1130210E0934F0180914D01882331F0F0E0EE5AD4
S1130220FE4F88E5808304C0F0E0EE5AFE4F9083D1
S1130230FF91EF919F918F910F900BBE0F900FBE86
S11302400F901F9018951F920F920FB60F921124C2
S11302500BB60F928F939F93EF93FF93909151015D
S113026080915001981302C055980BC0E091500141
S1130270EF5FEF71E0935001F0E0EE58FE4F8081A4
S11302808CB9FF91EF919F918F910F900BBE0F90BE
S11302900FBE0F901F9018951F920F920FB60F92DA
S11302A011240BB60F928F939F93EF93FF9380913A
S11302B09B0090919A00887180930801E0910A0153
S11302C0EF5FEF7180910901E81304C082E080932D
S11302D0080112C090919C00E0930A0180910801EA
S11302E0882331F0F0E0E35FFE4F88E5808304C0AB
S11302F0F0E0E35FFE4F9083FF91EF919F918F9128
S11303000F900BBE0F900FBE0F901F9018951F9269
S11303100F920FB60F9211240BB60F928F939F93E7
S1130320EF93FF9390910C0180910B01981306C0F9
S1130330EAE9F0E080818F7D80830EC080910B011B
S11303408F5F8F7180930B01E0910B01F0E0E35D0F
S1130350FE4F808180939C00FF91EF919F918F913C
S11303600F900BBE0F900FBE0F901F901895FC01BD
S113037081E79EE09183808383EB9EE09383828375
S11303808DE89EE09583848389E79EE09783868346
S113039085EC9EE09187808786EA9EE0938782873A
S11303A080EC9EE09787868780EC9EE0958B848B1B
S11303B08EE99EE0978B868B81E69EE0918F808FFD
S11303C08AEA9EE0938F828F8EE79EE0958F848FDA
S11303D0CF0108956823442321F0861721F080E09B
S11303E00895611180E00895862B08958623089569
S11303F086230895862B809508958627862308955D
S113040060958623089586270895CF92DF92EF9210
S1130410FF920F931F93FC0100811181228133818C
S1130420FB01C080D180E280F380FC01C082D182D4
S1130430E282F382FB0100831183228333831F91C1
S11304400F91FF90EF90DF90CF900895FB012081F2
S1130450FC012083222339F0DB01119631969D9112
S113046091939111FCCF0895CF93DF93EC01988180
S1130470992399F0FE01319620E030E0492F50E0B5
S11304804617570731F0DE01A20FB31F9C932F5F6D
S11304903F4F91919111F2CF02C020E030E0FE0174
S11304A0E20FF31F1082DF91CF9108952F923F92B4
S11304B04F925F926F927F928F929F92AF92BF9270
S11304C0CF92DF92EF92FF920F931F93CF93DF931C
S11304D000D000D0CDB7DEB72C011B014B01772330
S11304E01CF42FEF821A920A959487941814190415
S11304F00CF451C06AC09601DD209CF1F5014081E5
S11305005181F401608171816417750754F58C0180
S11305100A0D1B1DD401BC82AB82BA82A982EB8175
S1130520FC817183608311965C934E932E193F096D
S1130530C2F0F80140815181E981FA8160817181C1
S1130540080F191FE80FF91FFA83E983EB81FC8177
S1130550E80FF91FFC83EB83A80FB91F6417750715
S1130560F4F2FFEFCF1ADF0A22E0A20EB11CE2E0A0
S11305708E0E911CC614D70409F0BDCF4701FF208D
S11305801CF4FFEF8F1A9F0A95948794181419048A
S1130590E4F4740101C07401821493047CF76401CF
S11305A0CE18DF085601AA0CBB1CA40CB51C880C81
S11305B0991C840C951C31016E187F08C701880FA3
S11305C0991F91958195910996CF0F900F900F9057
S11305D00F90DF91CF911F910F91FF90EF90DF90DB
S11305E0CF90BF90AF909F908F907F906F905F90CF
S11305F04F903F902F900895861797070CF4CB01E6
S113060008959B01672B11F408959A01B9010E9482
S1130610F70DAC01822F932F41155105B1F70895C1
S1130620FC01908180ED890F8A30D0F4319620E06E
S113063030E0A901440F551F220F331F220F331F2F
S1130640220F331F420F531F292F30E0205331094B
S1130650240F351F919180ED890F8A3050F302C029
S113066020E030E0C901089586230895009739F009
S113067020E030E02F5F3F4F82179307D9F70895AA
S113068087FF08C091958195910999279195819546
S1130690910908958F779927089591FF08C091953E
S11306A0819591099370919581959109089591701F
S11306B00895615021E030E002C0220F331F6A9593
S11306C0E2F7A90141505109B90168237923672B45
S11306D029F084239523821B930B08958423952367
S11306E008959DEC899F912D112496959695969544
S11306F0392F330F232F220F220F230F821B20E1C8
S1130700929F800D11240895982F92959F70990FB0
S1130710292F220F220F920F8F70890F0895FC0149
S1130720DB01A354BE4F1C921616170614F59081D4
S113073091110CC017C0919191110DC015C08193F6
S11307402F5F3F4F26173707D4F313C0ADEBB1E04B
S1130750319620E030E09D932F5F3F4F621773077F
S113076051F707C020E030E0F901E354FE4F80E286
S1130770E6CF8DEB91E008954F925F926F927F9256
S1130780AF92BF92CF92DF92EF92FF920F931F939B
S1130790CF93DF93CDB7DEB729013A019B01AC01BA
S11307A0241935094609570989899A89AB89BC896D
S11307B0BC01CD016A197B098C099D090E94D40DE5
S11307C0A801970124193509460957090E942C0EDE
S11307D0CA01B9016A0D7B1D8C1D9D1DDF91CF914E
S11307E01F910F91FF90EF90DF90CF90BF90AF904B
S11307F07F906F905F904F90089570E06115710540
S113080099F041E050E021E030E090E0FA01E89F07
S1130810A001E99F500DF89F500D11242F5F3F4F09
S11308206217730798F702C041E050E0CA010895C7
S1130830FC012081222341F0319680E090E0019672
S113084021912111FCCF089580E090E00895CF9389
S1130850DF93EC01EDDF9C012150310962F0FE01D0
S1130860E80FF91F9291903219F09950923018F4D0
S113087021503109B8F7C20FD31F1982C901DF9182
S1130880CF910895CF93DF93EC01D2DF9C012150E7
S113089031091216130684F4DE01A80FB91FFE01F4
S11308A080E090E040815E9151934C9301962150F9
S11308B0310982179307B4F3DF91CF9108958F9292
S11308C09F92AF92BF92CF92DF92EF92FF920F93DB
S11308D01F93CF93DF936B017C01DC01CB01FF20DD
S11308E03CF488279927DC018C199D09AE09BF09BE
S11308F0BC01CD0110E00F2EFAE08F2E912CA12C1B
S1130900B12CF02D01C0102F01E0010FC12FD0E058
S1130910C354DE4FA50194010E942C0E605D6883D0
S1130920622F732F842F952F161617061806190693
S113093054F3FF2044F4E02FF0E0E354FE4F8DE243
S1130940808302E0010FE02FF0E0E354FE4F1082B9
S11309508DEB91E097DF8DEB91E0DF91CF911F91CB
S11309600F91FF90EF90DF90CF90BF90AF909F904A
S11309708F9008950F931F93CF93DF93EC019923E6
S113098024F4882799278C1B9D0B20E00AE010E0B3
S113099001C0232F31E0320FE22FF0E0E354FE4F89
S11309A0B8010E94F70D805D8083862F972F18165B
S11309B019067CF3DD2344F4E32FF0E0E354FE4F07
S11309C08DE2808332E0320FE32FF0E0E354FE4FF8
S11309D010828DEB91E056DF8DEB91E0DF91CF91AA
S11309E01F910F910895CF93AC01E0E0C1E0CE0FC9
S11309F0F0E0E354FE4F9A01ADECBCEC0E94480ECB
S1130A009695879596958795969587959C01220F3F
S1130A10331F880F991F880F991F880F991F820F02
S1130A20931F9A01281B390BC901805D80839A01A9
S1130A300E94480EAC015695479556954795569594
S1130A404795EC2F4115510589F6EC2FF0E0E3545E
S1130A50FE4F10828DEB91E015DF8DEB91E0CF918D
S1130A600895982F92959F70990F292F220F220F86
S1130A70920F8F70890F0895AC019C01ADECBCEC12
S1130A800E94480E96958795969587959695879595
S1130A90BC01660F771F9C01220F331F220F331FE7
S1130AA0220F331F260F371F421B530B342F20E115
S1130AB0829F300D1124832F0895CF92DF92EF92FD
S1130AC0FF92CF93DF93CDB7DEB728970FB6F89494
S1130AD0DEBF0FBECDBF6B017C0169837A838B833C
S1130AE09C832D833E834F835887C216D306E40626
S1130AF0F50634F4BE016B5F7F4FCE01019685DCB1
S1130B008D819E81AF81B885892B8A2B8B2B71F4C3
S1130B1069817A818B819C8120E030E0A9010E9467
S1130B202C0E611571058105910529F46D817E8175
S1130B308F81988505C06D837E838F839887F6CFD8
S1130B4028960FB6F894DEBF0FBECDBFDF91CF91CC
S1130B50FF90EF90DF90CF90089590E002C09595BC
S1130B6087956A95E2F781700895EDEBF1E090E0E6
S1130B7020E850E341E3382F322311F0408301C0D1
S1130B80508326959F5F31969830A9F71092C5013E
S1130B908DEB91E00895A42FB0E0109761F021E06F
S1130BA030E0E1E0F0E0EE0FFF1F2F5F3F4FA217B0
S1130BB0B307C8F702C0E1E0F0E031976E237F236A
S1130BC08E239F23862797276823792302C0660FE5
S1130BD0771F4A95E2F7862B972B0895FC019FB760
S1130BE08FB78F778FBF9FBF8DEF93E09183808303
S1130BF088E194E09383828382E494E09583848300
S1130C008BEC95E0978386838AEE91E091878087C9
S1130C1088EF91E0938782878AEF91E095878487B4
S1130C208DEF91E09787868780E092E0918B808BAF
S1130C3083E092E0938B828B84EF91E0958B848B9D
S1130C4086EF91E0978B868B85E092E0918F808F81
S1130C5086E292E0938F828F84E392E0958F848F73
S1130C6086E592E0978F868F8AEB94E091A380A328
S1130C7083EF94E093A382A38FE594E095A384A3E8
S1130C8087E294E097A386A38CEF92E091A780A7D4
S1130C9081E093E093A782A780E193E095A784A7DE
S1130CA084E393E097A786A786E393E091AB80ABB8
S1130CB080E493E093AB82AB8DE493E095AB84AB9B
S1130CC089E593E097AB86AB81E793E091AF80AF82
S1130CD084E893E093AF82AF8FE893E095AF84AF5D
S1130CE08CEB93E097AF86AFDF01A05CBF4F81E34D
S1130CF095E011969C938E9312968CE395E0119651
S1130D009C938E9312968DE595E011969C938E9309
S1130D1012968DEA95E011969C938E93129685EB2C
S1130D2095E08D939C93CF010895E0910002F0919A
S1130D30010290819D7F9083672B41F0E091000236
S1130D40F091010290819160908307C0E0910002CC
S1130D50F091010290819E7F9083E091FD01F091DA
S1130D60FE019081906F9083E0910002F091010266
S1130D70908194609083882344F4E0910002F09180
S1130D80010290819068908307C0E0910002F09185
S1130D90010290819F77908386FF08C0E091000252
S1130DA0F091010290819064908307C0E091000269
S1130DB0F091010290819F7B908385FF08C0E091B0
S1130DC00002F091010290819062908307C0E0914B
S1130DD00002F091010290819F7D908384FF08C0FE
S1130DE0E0910002F091010290819061908307C02C
S1130DF0E0910002F091010290819F7E9083E09146
S1130E000002F091010290819B7F9083E0910002A7
S1130E10F091010290819460908383FF08C0E09177
S1130E200002F091010290819068908307C0E091E4
S1130E300002F091010290819F77908382FF08C0A5
S1130E40E0910002F091010290819064908307C0C8
S1130E50E0910002F091010290819F7B908381FFD9
S1130E6008C0E0910002F0910102908190629083A9
S1130E7007C0E0910002F091010290819F7D908370
S1130E8080FF08C0E0910002F0910102808180613E
S1130E90808307C0E0910002F091010280818F7E7F
S1130EA08083E0910002F091010280818B7F808336
S1130EB00895E091FD01F091FE0120812F702083BF
S1130EC0E0910002F09101022081206F2083E091E3
S1130ED00002F0910102208122602083892B41F0DD
S1130EE0E0910002F091010280818160808307C05B
S1130EF0E0910002F091010280818E7F8083E09175
S1130F000002F0910102808184608083E091F60107
S1130F10F091F7018081882314F080E001C080E81B
S1130F20908196FF02C0806401C08F7B908195FF01
S1130F3002C0806201C08F7D908194FF02C08061F5
S1130F4001C08F7EE0910002F091010290819B7FAD
S1130F509083E0910002F09101029081946090836B
S1130F60E091F601F091F7019081992314F48860DF
S1130F7001C0877F908196FF02C0846001C08B7F8F
S1130F80908195FF02C0826001C08D7F908194FFA3
S1130F9002C0816001C08E7FE0910002F0910102E5
S1130FA090819B7F90830895CF93DF9380E090E0BE
S1130FB080DFCBE0D0E005C080E090E07ADF2197CD
S1130FC011F08823CCF3DF91CF91089561E070E0B4
S1130FD0ACDEEACF0895CF9381E090E06ADFC82FBA
S1130FE0E3DF8C2FCF910895CF93DF93EC018881B9
S1130FF0882341F0219661E070E097DED5DF899186
S11310008111F9CFDF91CF9108950F931F93CF935F
S1131010DF93FC01D62F8081882351F08F010F5F6D
S11310201F4F611109C01BC0CF5FDC1730F401C032
S1131030C0E0CD1760F013C0C1E061E070E075DE80
S1131040B3DFF80181918F018111EECFF2CFCF5F31
S113105061E070E080E269DEA7DFCD17C0F3DF91C5
S1131060CF911F910F910895CF93C82F882339F002
S113107061E070E080E259DE97DFC150C9F7CF919B
S11310800895262F8130910571F030F0823091055A
S113109089F00397B1F0089560E070E080E8820F72
S11310A044DE82CF089560E070E080EC820F3DDE84
S11310B07BCF089560E070E084E9820F36DE74CF60
S11310C0089560E070E084ED820F2FDE6DCF089507
S11310D060E070E081E029DE87EE97E10197F1F7A7
S11310E000C000000895E091FD01F091FE0187E049
S11310F08083E0910002F091010288E080832FEF69
S113110083EF91E0215080409040E1F700C000005F
S113111060E070E083E309DE20ED2A95F1F760E0FA
S113112070E083E302DE80ED8A95F1F760E070E021
S11311308BE2FBDD95EC9A95F1F7000060E070E03E
S11311408CE0F3DD25EC2A95F1F7000060E070E017
S113115081E0EBDD87EE97E10197F1F700C0000035
S113116060E070E086E0E1DD95EC9A95F1F700002F
S113117008951F93CF93DF93EC011FB78FB78F7739
S11311808FBF7093FE016093FD015093F70140936C
S1131190F6013093010220930002FB011082E091DA
S11311A00002F09101028FEF8083E091F601F0914B
S11311B0F701808188708093FF0195DF1FBF85E967
S11311C096E09983888389E597E09B838A8384EDFD
S11311D097E09D838C8386EE97E09F838E838BEECE
S11311E097E09987888784EF97E09B878A8785E0D3
S11311F098E09D878C8784E398E09F878E8788E6B4
S113120098E0998B888B81E498E09B8B8A8B80E1B2
S113121099E09D8B8C8BCE01DF91CF911F91089526
S1131220CF93E091F601F091F701C081C8708091ED
S1131230FF018C278C2309F056DFC093FF01CF9167
S11312400895AF92BF92CF92DF92EF92FF920F93E5
S11312501F93CF93DF93DC011496CC9014971296CE
S11312602D913C911397232B21F17C01D12C00E08B
S113127010E0A12CB12CC0E0D0E0D701ED91FC919D
S1131280008CF18DE02DA601B8018EED91E0099559
S11312908091DE01882319F0BFEFAB1ABB0A2196B7
S11312A00C0D1D1DF70182819381C817D90728F3FE
S11312B002C0A12CB12C8A2DDF91CF911F910F91E7
S11312C0FF90EF90DF90CF90BF90AF900895AF92D2
S11312D0BF92CF92DF92EF92FF920F931F93CF931F
S11312E0DF937C01DC011496CC90149712968D91B7
S11312F09C911397892B81F1D12CC0E0D0E0A12CD3
S113130000E010E0BB24B394D701ED91FC91008C74
S1131310F18DE02DA601BE018EED91E0099580913D
S1131320DE01882371F01092DE01D701ED91FC916A
S1131330048CF58DE02DA601BE018EED91E009959A
S1131340AB2C0F5F1F4FCC0DDD1DF7018281938104
S113135008171907C8F201C0A12CD70117961C92CF
S1131360179718961C928A2DDF91CF911F910F9198
S1131370FF90EF90DF90CF90BF90AF900895FC0165
S113138087810895FC0180850895FC016783108698
S11313900895FC0185810895FC01658308952F92C9
S11313A03F924F925F926F927F928F929F92AF92F1
S11313B0BF92CF92DF92EF92FF920F931F93CF933E
S11313C0DF938C01C62EDC011696DC901697BD2C9B
S11313D0B626D61609F41AC112968D919C911397CC
S11313E0892B09F4A2C01496EC90149715966C906E
S11313F0DB20B62255245A9477247A94AA24A39401
S1131400C0E0D0E0F12C862C912C6894222422F8A0
S11314100F2EF3E03F2EF02D6894442441F8EC9E07
S1131420B001ED9E700DFC9E700D1124D801ED915C
S1131430FC91008CF18DE02DA7018EED91E00995D2
S11314408091DE01882309F458C0813069F49091B9
S1131450E0019D1152C09091E1019B114EC0F80131
S1131460C281D381A42C49C0EEEDF1E02181D801E1
S113147017969C91179792272481922309F03DC0D7
S11314809091E0019D1139C09091E1019B1135C00B
S1131490282F30E02819390931F41296CD91DC91C6
S11314A01397A32C2AC0121613068CF4472D50E070
S11314B02417350764F497E0EEEDF1E0ABE0B2E019
S11314C001900D929A95E1F7782E7618A22C332389
S11314D0A4F4452D50E05195419551094217530705
S11314E064F497E0EEEDF1E0A4E0B2E001900D9237
S11314F09A95E1F7562C581AA22C2196F8012281CC
S11315003381C217D30708F48ACFF2E0AF1681F013
S1131510FA1520F081E0A81641F078C093E0A916EE
S113152011F1A4E0AA16B9F171C0F801C6826EC027
S1131530D80115968C9315971696CC921697EEEDC6
S1131540F1E034818681832317962C911797822B9F
S1131550958193239095892317968C93179782E00E
S113156018968C9353C0F8018583C682EEEDF1E0A2
S1131570348186818323D80117962C911797822B67
S1131580958193239095892317968C93179783E0DD
S113159018968C933BC0F801C6828FEF870D8E3F5F
S11315A0C8F4EBE0F2E08081D80115968C9315978E
S11315B084812681282317969C911797292B95813E
S11315C089238095822317968C93179789E218961E
S11315D08C931CC08FEF850D8E3FC0F4E4E0F2E0E5
S11315E08081D80115968C931597848126812823B0
S11315F017969C911797292B95818923809582238F
S113160017968C9317978AE218968C93F801808525
S1131610DF91CF911F910F91FF90EF90DF90CF90CA
S1131620BF90AF909F908F907F906F905F904F90FE
S11316303F902F9008952F923F924F925F926F9216
S11316407F928F929F92AF92BF92CF92DF92EF924E
S1131650FF920F931F93CF93DF9300D000D000D05D
S1131660CDB7DEB7FC01048110920B02B6809B2C2F
S11316709626B61609F404C182819381892B09F454
S113168001C17F017580B920962266246A9488245A
S11316908A94AA24A3941E821D821C821B821A820D
S11316A01982212C312C10E0472C512C68018D819A
S11316B09E81089FB001099F700D189F700D112421
S11316C0D701ED91FC91008CF18DE02DA8018EEDF8
S11316D091E009954091DE01442309F460C0413052
S11316E0A1F48091E0018B115AC08091E10189112C
S11316F056C02D803E80F7010280F381E02DFE83E9
S1131700ED836894AA24A1F84AC0EEEDF1E091813A
S1131710D70117968C91179789279481892309F00B
S11317203EC08091E0018B113AC08091E1018911A2
S113173036C0842F90E08419950969F42D803E8089
S11317401296ED91FC911397FE83ED830F2EF3E037
S1131750AF2EF02D24C01816190674F4282D30E08D
S1131760821793074CF4842E87182D813E813A8387
S113177029836894AA24A2F899238CF4262D30E0B6
S1131780319521953109281739074CF4672C641ACF
S11317908D819E819C838B836894AA24A2F8AD8159
S11317A0BE811196BE83AD83F70182819381A81710
S11317B0B90708F47BCFF3E0AF16C1F024E0A2161A
S11317C039F132E0A31260C02C9CB0012D9C700D45
S11317D03C9C700D1124D701ED91FC91048CF58D86
S11317E0E02DA6018BE092E009954EC02C9CB0013F
S11317F02D9C700D3C9C700D1124D701ED91FC9132
S1131800048CF58DE02DA6018BE092E009953CC097
S11318108FEF880D8E3FC0F4E981FA81EC9DB00111
S1131820ED9D700DFC9D700D1124D701ED91FC917F
S1131830048CF58DE02DA6018BE092E009950F2E26
S1131840F9E2AF2EF02D20C08FEF860D8E3FE0F42D
S1131850EB81FC81EC9DB001ED9D700DFC9D700D44
S11318601124D701ED91FC91048CF58DE02DA60196
S11318708BE092E009950F2EFAE2AF2EF02D04C012
S1131880A12C02C0AA24A3948A2D26960FB6F894FC
S1131890DEBF0FBECDBFDF91CF911F910F91FF909F
S11318A0EF90DF90CF90BF90AF909F908F907F90FC
S11318B06F905F904F903F902F9008955F926F923A
S11318C07F928F929F92AF92BF92CF92DF92EF92CC
S11318D0FF920F931F93CF93DF93002309F4A1C0CA
S11318E0DC0116967C901697572C5626761609F42A
S11318F09AC01296ED91FC911397EF2B09F495C0C1
S1131900902E822E642E7C0175205622FC01C48008
S1131910D12CA12CB12C10E0C0E0D0E001E0D70123
S1131920ED91FC91008CF18DE02DA601B5018EEDB9
S113193091E009958091DE01882399F0813049F086
S113194098120FC09091DF01F701878189278821C0
S113195041F48091E001871104C08091E101851573
S113196069F02196AC0CBD1C102FD70112968D91F5
S11319709C911397C817D90790F203C0113009F04E
S113198057C0EBE0F2E09082D70117968C918183E7
S1131990728253828482B1E0B91540F4282F26253F
S11319A08222882185838620868208C0EBE0F2E0CB
S11319B0862D80958821858386208682F701828101
S11319C09381892BA1F1C0E0D0E0A12CB12CD701E7
S11319D0ED91FC91008CF18DE02DA601BE018EED00
S11319E091E009958091DE0181110EC0D701ED913E
S11319F0FC91048CF58DE02DA6016C2F7D2F8BE0DE
S1131A0092E0099512E014C0BFEFAB1ABB0ACC0DEB
S1131A10DD1DF70182819381A816B906C0F213E097
S1131A2007C010E005C010E003C010E001C011E0E1
S1131A30812FDF91CF911F910F91FF90EF90DF9055
S1131A40CF90BF90AF909F908F907F906F905F905A
S1131A500895FC01718360835383428387E0848308
S1131A60158217828FEC99E0928781878EE59CE03E
S1131A709487838781E299E0968785878BE19BE051
S1131A80908B878787E699E0928B818B8FEB99E027
S1131A90948B838B82EC99E0968B858B85EC99E013
S1131AA0908F878B89EC99E0928F818F8CEC99E0F1
S1131AB0948F838FCF0108958FEF84BB85BB17BAB2
S1131AC088BB0895CF93DF93CDB7DEB7CB59D10947
S1131AD00FB6F894DEBF0FBECDBFEEDF2BE330E0D0
S1131AE049E350E06AE370E0CE01019642DB0D85E4
S1131AF01E85AB88BC88CE0147960E94B7014BE394
S1131B0052E0BE01695E7F4FCE01C596A2DFCE01D1
S1131B108E5A9F4F63D8E696CEACDFACE6972E96EE
S1131B20EEADFFAD2E9760E0CE01C5960995F6B2F5
S1131B3060E170E080E090E0F50109958F2D90E080
S1131B40F60109959093BC018093BB0164E0F80110
S1131B500995EEADFFAD6F2DCE01C596099560E0F8
S1131B6070E083E090E0F501099567E080E091E0A2
S1131B70F80109952A96EEADFFAD2A97CE01C596D8
S1131B80099590E0F60109959093BC018093BB01FF
S1131B9064E0F80109952A96EEADFFAD2A97CE01CF
S1131BA0C596099585BBC3CFDB018F939F937FD0E7
S1131BB0BF91AF91A29F800D911DA39F900DB29FE5
S1131BC0900D11240895AA1BBB1B51E107C0AA1F45
S1131BD0BB1FA617B70710F0A61BB70B881F991FCA
S1131BE05A95A9F780959095BC01CD01089597FB6E
S1131BF0072E16F4009406D077FD08D0E4DF07FC26
S1131C0005D03EF4909581959F4F08957095619508
S1131C107F4F0895A1E21A2EAA1BBB1BFD010DC024
S1131C20AA1FBB1FEE1FFF1FA217B307E407F50788
S1131C3020F0A21BB30BE40BF50B661F771F881F64
S1131C40991F1A9469F760957095809590959B01FA
S1131C50AC01BD01CF010895052E97FB16F4009445
S1131C600FD057FD05D0D6DF07FC02D046F408C0DC
S1131C7050954095309521953F4F4F4F5F4F0895B4
S1131C8090958095709561957F4F8F4F9F4F0895E4
S1131C90A29FB001B39FC001A39F700D811D1124A9
S1131CA0911DB29F700D811D1124911D0895F0DFC7
S1131CB0A59F900DB49F900DA49F800D911D11249C
S1131CC00895DC01CB01FC01E199FECF06C0FFBB06
S1131CD0EEBBE09A31960DB20D9241505040B8F7E8
S1131CE00895E199FECF9FBB8EBBE09A99278DB3EF
S1131CF00895A8E1B0E042E050E0E5CFDC01A40F94
S1131D00B51F4150504040F0CB01840F951F2E91D8
S1131D1005D041505040D8F70895262FE199FECFC1
S1131D209FBB8EBBE09A01970DB2021631F02DBB1A
S1131D300FB6F894E29AE19A0FBE08950396272FFE
S1131D40EDDFEBDF252FEADF242FE8CF0196272FE5
S1131D50E5DFE3CFDC01CB0102C02D9105D041507A
S1131D605040D8F70895262FE199FECF9FBB8EBB34
S1131D702DBB0FB6F894E29AE19A0FBE019608952E
S1131D80242FF2DF252FF0DF00C0EDDF272FECCF6B
S1071D90F894FFCFF1
S10B1D944F7574707574200092
S9030000FC
