:100000000C9434000C9451000C9451000C94510049
:100010000C9451000C9451000C9451000C9451001C
:100020000C9451000C9451000C9451000C9451000C
:100030000C9451000C9451000C9451000C945100FC
:100040000C9451000C9451000C948C020C94C3023B
:100050000C9451000C9453000C9451000C945100DA
:100060000C9451000C94510011241FBECFEFD8E026
:10007000DEBFCDBF11E0A0E0B1E0E8EAF6E002C0EB
:1000800005900D92A035B107D9F722E0A0E5B1E0C7
:1000900001C01D92A238B207E1F70E94EF020C9452
:1000A00052030C9400001F920F920FB60F9211246E
:1000B0002F933F938F939F93AF93BF93EF93FF93B0
:1000C0008091780090E090935201809351012091AB
:1000D00079008091510190915201922B909352019D
:1000E00080935101809150018430A0F4809150019F
:1000F0008F5F809350012091510130915201809186
:10010000530190915401820F931F90935401809357
:10011000530145C0E0915501F09156018091530182
:10012000909154019595879595958795EE0FFF1FB2
:10013000E759FE4F9183808310925401109253012E
:100140001092500120915501309156018091570134
:10015000909158012817390754F4809155019091D6
:1001600056010196909356018093550104C0109258
:10017000560110925501ACE7B0E08C91807F8C93D2
:10018000E0915501F0915601EE0FFF1FE75AFE4F27
:10019000808191812C918F709927822B8C93FF9174
:1001A000EF91BF91AF919F918F913F912F910F90C0
:1001B0000FBE0F901F90189590917B0180917A014E
:1001C0009817A1F080917A018F5F8F7380937A01E5
:1001D000E0917A01F0E0E258FE4F208180917901B0
:1001E00090E0982F8827820F911D089580E091E07C
:1001F000089580917B0120917A0190E0CF96821B37
:1002000091096FE370E00E943E03089580917A01A6
:1002100080937B010895E0917D01F0E0E254FE4F70
:10022000808380917D018F5F8F7380937D0190919A
:100230007D0180917C01981739F0E0917D01F0E01B
:10024000E254FE4F108209C02FEF86E791E0215063
:1002500080409040E1F700C00000E1ECF0E08081D8
:10026000806280830895CF93DF93EC018881882397
:1002700031F021960E940B0189918111FBCFDF9112
:10028000CF910895FF920F931F93CF93DF93FC01BB
:10029000FFB68FB78F778FBF10927D0110927C01D0
:1002A00010927B0110927A011092810210928002CA
:1002B0001092FE01772334F482E08093C000CB01DA
:1002C0009F7701C0CB019093C5008093C40088E95B
:1002D0008093C1004730510551F140F4453051053C
:1002E00009F445C04630510591F14EC048305105E2
:1002F00089F04930510509F047C0C1ECD0E0888150
:1003000084608883C2ECD0E0888186608883C9E0FD
:10031000D0E046C0C1ECD0E088818B7F8883C2ECFE
:10032000D0E0888186608883C8E0D0E039C0C1EC25
:10033000D0E088818B7F8883C2ECD0E088818460A4
:10034000888388818D7F8883C7E0D0E029C0C1EC95
:10035000D0E088818B7F8883C2ECD0E088818B7F5E
:100360008883888182608883C6E0D0E019C0C1ECB0
:10037000D0E088818B7F8883C2ECD0E08881897F40
:100380008883C5E0D0E00CC0C1ECD0E088818B7FD1
:100390008883C2ECD0E0888186608883C8E0D0E0A2
:1003A0002130310521F02230310551F012C022EC0C
:1003B00030E0D9018C91877F8C9341E050E011C0EF
:1003C00022EC30E0D9018C9188608C9342E050E0BF
:1003D00008C022EC30E0D9018C91877F8C9341E0FA
:1003E00050E00230110571F003301105B9F0012B16
:1003F000F1F422EC30E0D9018C918F7C8C9320E0D9
:1004000030E01DC082EC90E0DC012C9120622C9346
:100410002C912F7E2C9322E030E011C022EC30E0B2
:10042000D9018C9180638C9323E030E008C022ECEA
:1004300030E0D9018C918F7C8C9320E030E0FFBEBE
:100440008FB780688FBF71836083D383C2835583E6
:100450004483378326838FE592E0918780878CEDF4
:1004600090E0938782878BE091E09587848783E390
:1004700091E09787868789EF90E0918B808B86E06B
:1004800091E0938B828BCF01DF91CF911F910F91E0
:10049000FF90089590917B0180917A01981769F0FF
:1004A00080917A018F5F8F7380937A01E0917A0156
:1004B000F0E0E258FE4F8081089580E00895CF93E8
:1004C000DF9390917A0180917B019817E1F0C091C0
:1004D0008002D0918102CF33D105ACF40E944A0250
:1004E000C250DE4F888380918002909181020196F4
:1004F0009093810280938002FC01E250FE4F1082B3
:1005000080E091E006C010928102109280028EEF8E
:1005100091E0DF91CF9108951F920F920FB60F9245
:1005200011248F939F93EF93FF938091C00090913C
:10053000C100887180937901E0917B01EF5FEF73D7
:1005400080917A01E81304C082E08093790112C09F
:100550009091C600E0937B0180917901882331F06E
:10056000F0E0E258FE4F88E5808304C0F0E0E258F6
:10057000FE4F9083FF91EF919F918F910F900FBE4F
:100580000F901F9018951F920F920FB60F92112483
:100590008F939F93EF93FF93E0917C01F0E0E254FF
:1005A000FE4F80818093C600108280917C018F5F16
:1005B0008F7380937C0190917C0180917D019813D1
:1005C00005C0E1ECF0E080818F7D8083FF91EF91A9
:1005D0009F918F910F900FBE0F901F901895CF9302
:1005E000DF93CDB7DEB764970FB6F894DEBF0FBECA
:1005F000CDBF00E010E021E030E048E050E067E6E9
:1006000070E0CE0101960E9442010F8518894A9937
:100610000CC0ED85FE858EE3099586E091E0F8013A
:1006200009958BE291E0F8010995299AFFEF21EEF7
:1006300084E0F15020408040E1F700C0000029989C
:100640009FEFE1EEF4E09150E040F040E1F700C0B0
:100650000000DDCFAA1BBB1B51E107C0AA1FBB1FB7
:10066000A617B70710F0A61BB70B881F991F5A953E
:10067000A9F780959095BC01CD01089597FB072EB1
:1006800016F4009407D077FD09D00E942A0307FCD6
:1006900005D03EF4909581959F4F08957095619592
:0806A0007F4F0895F894FFCF8D
:1006A800656D7074790057656C636F6D6520746F44
:1006B800207561727420636F6D207468726577208D
:1006C800667464692021200D200A0041414141419E
:1006D8004141414141414141414141414141414102
:1006E8004141414141414141412021200D200A0021
:00000001FF
