S011000041746D6567613332382E7372656327
S11300000C9434000C9451000C9451000C94510045
S11300100C9451000C9451000C9451000C94510018
S11300200C9451000C9451000C9451000C94510008
S11300300C9451000C9451000C9451000C945100F8
S11300400C9451000C9451000C943D070C947407CB
S11300500C9451000C9453000C9451000C945100D6
S11300600C9451000C94510011241FBECFEFD8E022
S1130070DEBFCDBF11E0A0E0B1E0E4EFF0E102C0EB
S113008005900D92A035B107D9F722E0A0E5B1E0C3
S113009001C01D92AB3AB207E1F70E94A0070C948D
S11300A078080C9400001F920F920FB60F9211243F
S11300B02F933F938F939F93AF93BF93EF93FF93AC
S11300C08091780090E090935201809351012091A7
S11300D079008091510190915201922B9093520199
S11300E080935101809150018430A0F4809150019B
S11300F08F5F809350012091510130915201809182
S1130100530190915401820F931F90935401809353
S1130110530145C0E0915501F0915601809153017E
S1130120909154019595879595958795EE0FFF1FAE
S1130130E759FE4F9183808310925401109253012A
S11301401092500120915501309156018091570130
S1130150909158012817390754F4809155019091D2
S113016056010196909356018093550104C0109254
S1130170560110925501ACE7B0E08C91807F8C93CE
S1130180E0915501F0915601EE0FFF1FE75AFE4F23
S1130190808191812C918F709927822B8C93FF9170
S11301A0EF91BF91AF919F918F913F912F910F90BC
S11301B00FBE0F901F9018956823442321F08617D3
S11301C021F080E00895611180E00895862B089560
S11301D08623089586230895862B8095089586277F
S11301E08623089560958623089586270895CF92DF
S11301F0DF92EF92FF920F931F93FC010081118114
S113020022813381FB01C080D180E280F380FC0134
S1130210C082D182E282F382FB01008311832283B4
S113022033831F910F91FF90EF90DF90CF9008954B
S1130230FB012081FC012083222339F0DB0111968C
S113024031969D9191939111FCCF0895CF93DF93B3
S1130250EC019881992399F0FE01319620E030E079
S1130260492F50E04617570731F0DE01A20FB31FA4
S11302709C932F5F3F4F91919111F2CF02C020E0E8
S113028030E0FE01E20FF31F1082DF91CF91089559
S11302902F923F924F925F926F927F928F929F9292
S11302A0AF92BF92CF92DF92EF92FF920F931F9380
S11302B0CF93DF9300D000D0CDB7DEB72C011B0164
S11302C04B0177231CF42FEF821A920A959487949A
S11302D0181419040CF451C06AC09601DD209CF175
S11302E0F50140815181F4016081718164177507C2
S11302F054F58C010A0D1B1DD401BC82AB82BA8259
S1130300A982EB81FC817183608311965C934E9387
S11303102E193F09C2F0F80140815181E981FA8127
S113032060817181080F191FE80FF91FFA83E983AF
S1130330EB81FC81E80FF91FFC83EB83A80FB91F45
S113034064177507F4F2FFEFCF1ADF0A22E0A20E5A
S1130350B11CE2E08E0E911CC614D70409F0BDCF87
S11303604701FF201CF4FFEF8F1A9F0A959487948E
S113037018141904E4F4740101C074018214930480
S11303807CF76401CE18DF085601AA0CBB1CA40C30
S1130390B51C880C991C840C951C31016E187F08BF
S11303A0C701880F991F91958195910996CF0F9058
S11303B00F900F900F90DF91CF911F910F91FF90AD
S11303C0EF90DF90CF90BF90AF909F908F907F90F1
S11303D06F905F904F903F902F90089586179707E6
S11303E00CF4CB0108959B01672B11F408959A0135
S11303F0B9010E940908AC01822F932F41155105C0
S1130400B1F70895FC01908180ED890F8A30D0F412
S1130410319620E030E0A901440F551F220F331F0D
S1130420220F331F220F331F420F531F292F30E097
S113043020533109240F351F919180ED890F8A30A3
S113044050F302C020E030E0C901089586230895E6
S1130450009739F020E030E02F5F3F4F8217930779
S1130460D9F7089587FF08C0919581959109992737
S113047091958195910908958F779927089591FF12
S113048008C09195819591099370919581959109F1
S1130490089591700895615021E030E002C0220F68
S11304A0331F6A95E2F7A90141505109B901682344
S11304B07923672B29F084239523821B930B0895BA
S11304C08423952308959DEC899F912D112496955D
S11304D096959695392F330F232F220F220F230F32
S11304E0821B20E1929F800D11240895982F9295EC
S11304F09F70990F292F220F220F920F8F70890F4F
S11305000895FC01DB01A250BE4F1C92161617067B
S113051014F5908191110CC017C0919191110DC0E7
S113052015C081932F5F3F4F26173707D4F313C0AD
S1130530AEEFB1E0319620E030E09D932F5F3F4F66
S11305406217730751F707C020E030E0F901E25069
S1130550FE4F80E2E6CF8EEF91E008954F925F92D6
S11305606F927F92AF92BF92CF92DF92EF92FF92FF
S11305700F931F93CF93DF93CDB7DEB729013A01D1
S11305809B01AC01241935094609570989899A89BF
S1130590AB89BC89BC01CD016A197B098C099D0911
S11305A00E94E507A801970124193509460957094E
S11305B00E943F08CA01B9016A0D7B1D8C1D9D1D57
S11305C0DF91CF911F910F91FF90EF90DF90CF902B
S11305D0BF90AF907F906F905F904F90089570E0C0
S11305E06115710599F041E050E021E030E090E0C0
S11305F0FA01E89FA001E99F500DF89F500D1124C6
S11306002F5F3F4F6217730798F702C041E050E035
S1130610CA010895FC012081222341F0319680E033
S113062090E0019621912111FCCF089580E090E0A3
S11306300895CF93DF93EC010E940A039C0121509B
S1130640310962F0FE01E80FF91F9291903219F01E
S11306509950923018F421503109B8F7C20FD31FC2
S11306601982C901DF91CF910895CF93DF93EC01F3
S11306700E940A039C01215031091216130684F4C6
S1130680DE01A80FB91FFE0180E090E040815E9179
S113069051934C9301962150310982179307B4F377
S11306A0DF91CF9108958F929F92AF92BF92CF9294
S11306B0DF92EF92FF920F931F93CF93DF936B011F
S11306C07C01DC01CB01FF203CF488279927DC0165
S11306D08C199D09AE09BF09BC01CD0110E00F2E94
S11306E0FAE08F2E912CA12CB12CF02D01C0102FEB
S11306F001E0010FC12FD0E0C250DE4FA5019401EB
S11307000E943F08605D6883622F732F842F952FAA
S1130710161617061806190654F3FF2044F4E02FA2
S1130720F0E0E250FE4F8DE2808302E0010FE02F03
S1130730F0E0E250FE4F10828EEF91E00E9435030C
S11307408EEF91E0DF91CF911F910F91FF90EF9089
S1130750DF90CF90BF90AF909F908F9008950F93AC
S11307601F93CF93DF93EC01992324F488279927CF
S11307708C1B9D0B20E00AE010E001C0232F31E028
S1130780320FE22FF0E0E250FE4FB8010E94090858
S1130790805D8083862F972F181619067CF3DD233E
S11307A044F4E32FF0E0E250FE4F8DE2808332E028
S11307B0320FE32FF0E0E250FE4F10828EEF91E013
S11307C00E9435038EEF91E0DF91CF911F910F913D
S11307D00895CF93AC01E0E0C1E0CE0FF0E0E25029
S11307E0FE4F9A01ADECBCEC0E945E08969587958D
S11307F096958795969587959C01220F331F880FB0
S1130800991F880F991F880F991F820F931F9A01B0
S1130810281B390BC901805D80839A010E945E0800
S1130820AC01569547955695479556954795EC2FA7
S11308304115510589F6EC2FF0E0E250FE4F10828D
S11308408EEF91E00E9435038EEF91E0CF910895F1
S1130850982F92959F70990F292F220F220F920F94
S11308608F70890F0895AC019C01ADECBCEC0E9423
S11308705E08969587959695879596958795BC017C
S1130880660F771F9C01220F331F220F331F220F85
S1130890331F260F371F421B530B342F20E1829F37
S11308A0300D1124832F0895CF92DF92EF92FF929F
S11308B0CF93DF93CDB7DEB728970FB6F894DEBF9A
S11308C00FBECDBF6B017C0169837A838B839C83CC
S11308D02D833E834F835887C216D306E406F5065C
S11308E03CF4BE016B5F7F4FCE0101960E94F7007E
S11308F08D819E81AF81B885892B8A2B8B2B71F4D6
S113090069817A818B819C8120E030E0A9010E9479
S11309103F08611571058105910529F46D817E817A
S11309208F81988505C06D837E838F839887F6CFEA
S113093028960FB6F894DEBF0FBECDBFDF91CF91DE
S1130940FF90EF90DF90CF90089590E002C09595CE
S113095087956A95E2F781700895EEEFF1E090E0F3
S113096020E850E341E3382F322311F0408301C0E3
S1130970508326959F5F31969830A9F7109206020E
S11309808EEF91E00895A42FB0E0109761F021E07C
S113099030E0E1E0F0E0EE0FFF1F2F5F3F4FA217C2
S11309A0B307C8F702C0E1E0F0E031976E237F237C
S11309B08E239F23862797276823792302C0660FF7
S11309C0771F4A95E2F7862B972B0895FC019FB772
S11309D08FB78F778FBF9FBF8FEE92E09183808315
S11309E08AE093E09383828385E393E09583848311
S11309F083EC94E0978386838CED90E091878087E5
S1130A008AEE90E0938782878CEE90E095878487C6
S1130A108FEE90E09787868782EF90E0918B808BB2
S1130A2085EF90E0938B828B86EE90E0958B848BA0
S1130A3088EE90E0978B868B87EF90E0918F808F84
S1130A4088E191E0938F828F86E291E0958F848F85
S1130A5088E491E0978F868F8FEA93E091A380A337
S1130A6089EE93E093A382A383E593E095A384A303
S1130A7089E193E097A386A38EEE91E091A780A7E6
S1130A8083EF91E093A782A782E092E095A784A7E1
S1130A9086E292E097A786A788E292E091AB80ABCA
S1130AA082E392E093AB82AB8FE392E095AB84ABAD
S1130AB08BE492E097AB86AB83E692E091AF80AF94
S1130AC086E792E093AF82AF81E892E095AF84AF7E
S1130AD08EEA92E097AF86AFDF01A05CBF4F88E259
S1130AE094E011969C938E93129683E394E011966E
S1130AF09C938E93129684E594E011969C938E9326
S1130B00129685EA94E011969C938E9312968DEA40
S1130B1094E08D939C93CF01089590917B018091F3
S1130B207A019817A1F080917A018F5F8F73809377
S1130B307A01E0917A01F0E0E258FE4F2081809141
S1130B40790190E0982F8827820F911D089580E005
S1130B5091E0089580917B0120917A0190E0CF96F5
S1130B60821B91096FE370E00E9409080895809147
S1130B707A0180937B010895E0917D01F0E0E254D5
S1130B80FE4F808380917D018F5F8F7380937D0101
S1130B9090917D0180917C01981739F0E0917D015D
S1130BA0F0E0E254FE4F108209C02FEF86E791E097
S1130BB0215080409040E1F700C00000E1ECF0E0FB
S1130BC08081806280830895CF93DF93EC018881D4
S1130BD0882331F021960E94BC0589918111FBCFB5
S1130BE0DF91CF910895FF920F931F93CF93DF93DB
S1130BF0FC01FFB68FB78F778FBF10927D011092E3
S1130C007C0110927B0110927A011092AA02109238
S1130C10A90210922702772334F482E08093C00063
S1130C20CB019F7701C0CB019093C5008093C40092
S1130C3088E98093C1004730510551F140F44530B3
S1130C40510509F445C04630510591F14EC0483074
S1130C50510589F04930510509F047C0C1ECD0E095
S1130C60888184608883C2ECD0E088818660888330
S1130C70C9E0D0E046C0C1ECD0E088818B7F888396
S1130C80C2ECD0E0888186608883C8E0D0E039C0B7
S1130C90C1ECD0E088818B7F8883C2ECD0E088816E
S1130CA08460888388818D7F8883C7E0D0E029C0F1
S1130CB0C1ECD0E088818B7F8883C2ECD0E088814E
S1130CC08B7F8883888182608883C6E0D0E019C0E6
S1130CD0C1ECD0E088818B7F8883C2ECD0E088812E
S1130CE0897F8883C5E0D0E00CC0C1ECD0E0888166
S1130CF08B7F8883C2ECD0E0888186608883C8E0DB
S1130D00D0E02130310521F02230310551F012C0FC
S1130D1022EC30E0D9018C91877F8C9341E050E044
S1130D2011C022EC30E0D9018C9188608C9342E0B0
S1130D3050E008C022EC30E0D9018C91877F8C937D
S1130D4041E050E00230110571F003301105B9F0B3
S1130D50012BF1F422EC30E0D9018C918F7C8C933F
S1130D6020E030E01DC082EC90E0DC012C91206298
S1130D702C932C912F7E2C9322E030E011C022EC96
S1130D8030E0D9018C9180638C9323E030E008C07B
S1130D9022EC30E0D9018C918F7C8C9320E030E000
S1130DA0FFBE8FB780688FBF71836083D383C28394
S1130DB0558344833783268380E197E09187808736
S1130DC08DE895E0938782878CEB95E095878487FF
S1130DD084EE95E0978786878AEA95E0918B808BED
S1130DE087EB95E0938B828BCF01DF91CF911F919D
S1130DF00F91FF90089590917B0180917A0198174B
S1130E0069F080917A018F5F8F7380937A01E0910A
S1130E107A01F0E0E258FE4F8081089580E0089561
S1130E20CF93DF9390917A0180917B019817E1F041
S1130E30C091A902D091AA02CF33D105ACF40E948B
S1130E40FB06C95DDD4F88838091A9029091AA02B7
S1130E5001969093AA028093A902FC01E95DFD4FDB
S1130E60108280E091E006C01092AA021092A902BA
S1130E7087E292E0DF91CF9108951F920F920FB60F
S1130E800F9211248F939F93EF93FF938091C0004F
S1130E909091C100887180937901E0917B01EF5FAB
S1130EA0EF7380917A01E81304C082E080937901A2
S1130EB012C09091C600E0937B0180917901882350
S1130EC031F0F0E0E258FE4F88E5808304C0F0E0A2
S1130ED0E258FE4F9083FF91EF919F918F910F9075
S1130EE00FBE0F901F9018951F920F920FB60F927E
S1130EF011248F939F93EF93FF93E0917C01F0E093
S1130F00E254FE4F80818093C600108280917C0160
S1130F108F5F8F7380937C0190917C0180917D0120
S1130F20981305C0E1ECF0E080818F7D8083FF9110
S1130F30EF919F918F910F900FBE0F901F90189576
S1130F40CF93DF93CDB7DEB7CE55D1090FB6F89462
S1130F50DEBF0FBECDBFCE0101960E94E60400E0C5
S1130F6010E021E030E048E050E067E670E0CE01B8
S1130F70855B9F4F0E94F3056B960EAD1FAD6B977B
S1130F804A990EC06996EEADFFAD69978EE3099557
S1130F9086E091E0F80109958BE291E0F80109956A
S1130FA0299AFFEF23ED80E3F15020408040E1F7E0
S1130FB000C0000029989FEFE3EDF0E39150E0407A
S1130FC0F040E1F700C00000DBCFDB018F939F937B
S1130FD00E946D08BF91AF91A29F800D911DA39FA8
S1130FE0900DB29F900D11240895AA1BBB1B51E1D3
S1130FF007C0AA1FBB1FA617B70710F0A61BB70B85
S1131000881F991F5A95A9F780959095BC01CD0129
S1131010089597FB072E16F4009407D077FD09D0A6
S11310200E94F50707FC05D03EF4909581959F4FEB
S11310300895709561957F4F0895A1E21A2EAA1B19
S1131040BB1BFD010DC0AA1FBB1FEE1FFF1FA21774
S1131050B307E407F50720F0A21BB30BE40BF50B71
S1131060661F771F881F991F1A9469F760957095FA
S1131070809590959B01AC01BD01CF010895052E8B
S113108097FB1EF400940E94560857FD07D00E9457
S11310901D0807FC03D04EF40C9456085095409557
S11310A0309521953F4F4F4F5F4F08959095809510
S11310B0709561957F4F8F4F9F4F0895A29FB00108
S11310C0B39FC001A39F700D811D1124911DB29F78
S11310D0700D811D1124911D08950E945E08A59F25
S11310E0900DB49F900DA49F800D911D112408951F
S10710F0F894FFCF9E
S11310F4656D7074790057656C636F6D6520746FEA
S1131104207561727420636F6D2074687265772032
S1131114667464692021200D200A00414141414143
S113112441414141414141414141414141414141A7
S11311344141414141414141412021200D200A00C6
S9030000FC
