:1000000045C00000E8C00000F0C00000F8C00000DB
:1000100000C1000008C1000010C1000018C10000AC
:1000200020C1000052C0000030C1000038C10000F3
:1000300040C1000048C1000050C1000058C100008C
:1000400060C1000018C10000A2C10000D8C10000BA
:100050003CC000003BC0000038C0000036C00000BB
:100060005AC1000062C100006AC1000072C10000F4
:100070007AC1000082C10000EBC1000024C2000070
:1000800024C0000022C0000020C0000011241FBEB8
:10009000CFEFD0E1DEBFCDBF11E0A0E0B1E0E8E1FD
:1000A000F8E100E00BBF02C007900D92A630B10747
:1000B000D9F721E0A6E0B1E001C01D92A43EB2074D
:1000C000E1F70E94CA0A0C940A0C9ACF1F920F9271
:1000D0000FB60F9211240BB60F922F933F938F936D
:1000E0009F93EF93FF9384B190E0909308018093E6
:1000F000070125B18091070190910801922B9093FF
:10010000080180930701809106018430A0F480915A
:1001100006018F5F8093060120910701309108014D
:100120008091090190910A01820F931F90930A0117
:100130008093090143C0E0910B01F0910C01809183
:10014000090190910A019595879595958795EE0FF0
:10015000FF1FE15EFE4F9183808310920A0110928F
:1001600009011092060120910B0130910C01809140
:100170000D0190910E012817390754F480910B015D
:1001800090910C01019690930C0180930B0104C097
:1001900010920C0110920B0187B1807E87B9E0911B
:1001A0000B01F0910C01EE0FFF1FE15FFE4F80810C
:1001B000918127B18F719927822B87B9FF91EF9198
:1001C0009F918F913F912F910F900BBE0F900FBE7B
:1001D0000F901F9018951F920F920FB60F92112437
:1001E0000F900FBE0F901F9018951F920F920FB691
:1001F0000F9211240F900FBE0F901F9018951F9211
:100200000F920FB60F9211240F900FBE0F901F90F8
:1002100018951F920F920FB60F9211240F900FBED8
:100220000F901F9018951F920F920FB60F921124E6
:100230000F900FBE0F901F9018951F920F920FB640
:100240000F9211240F900FBE0F901F9018951F92C0
:100250000F920FB60F9211240F900FBE0F901F90A8
:1002600018951F920F920FB60F9211240F900FBE88
:100270000F901F9018951F920F920FB60F92112496
:100280000F900FBE0F901F9018951F920F920FB6F0
:100290000F9211240F900FBE0F901F9018951F9270
:1002A0000F920FB60F9211240F900FBE0F901F9058
:1002B00018951F920F920FB60F9211240F900FBE38
:1002C0000F901F9018951F920F920FB60F92112446
:1002D0000F900FBE0F901F9018951F920F920FB6A0
:1002E0000F9211240F900FBE0F901F9018951F9220
:1002F0000F920FB60F9211240F900FBE0F901F9008
:1003000018951F920F920FB60F9211240F900FBEE7
:100310000F901F9018951F920F920FB60F921124F5
:100320000F900FBE0F901F9018951F920F920FB64F
:100330000F9211240F900FBE0F901F9018951F92CF
:100340000F920FB60F9211240F900FBE0F901F90B7
:1003500018951F920F920FB60F9211240F900FBE97
:100360000F901F9018951F920F920FB60F921124A5
:100370000F900FBE0F901F9018951F920F920FB6FF
:100380000F9211240F900FBE0F901F9018951F927F
:100390000F920FB60F9211240BB60F928F939F936B
:1003A000EF93FF938BB19AB1887180937401E091C0
:1003B0007601EF5FEF7180917501E81304C082E070
:1003C0008093740111C09CB1E09376018091740117
:1003D000882331F0F0E0E758FE4F88E5808304C0C1
:1003E000F0E0E758FE4F9083FF91EF919F918F913E
:1003F0000F900BBE0F900FBE0F901F9018951F927D
:100400000F920FB60F9211240BB60F928F939F93FA
:10041000EF93FF939091780180917701981302C038
:1004200055980BC0E0917701EF5FEF71E093770192
:10043000F0E0E756FE4F80818CB9FF91EF919F91DC
:100440008F910F900BBE0F900FBE0F901F901895BD
:100450001F920F920FB60F9211240BB60F928F932B
:100460009F93EF93FF9380919B0090919A008871E6
:1004700080932F01E0913101EF5FEF7180913001A6
:10048000E81304C082E080932F0112C090919C0079
:10049000E093310180912F01882331F0F0E0EC5C92
:1004A000FE4F88E5808304C0F0E0EC5CFE4F908353
:1004B000FF91EF919F918F910F900BBE0F900FBE08
:1004C0000F901F9018951F920F920FB60F92112444
:1004D0000BB60F928F939F93EF93FF9390913301FD
:1004E00080913201981306C0EAE9F0E080818F7DA7
:1004F00080830EC0809132018F5F8F7180933201B3
:10050000E0913201F0E0EC5AFE4F808180939C0034
:10051000FF91EF919F918F910F900BBE0F900FBEA7
:100520000F901F9018956823442321F0861721F01F
:1005300080E00895611180E00895862B0895862358
:10054000089586230895862B80950895862786230F
:10055000089560958623089586270895CF92DF92A7
:10056000EF92FF920F931F93FC0100811181228172
:100570003381FB01C080D180E280F380FC01C08226
:10058000D182E282F382FB010083118322833383D1
:100590001F910F91FF90EF90DF90CF900895FB0196
:1005A0002081FC012083222339F0DB011196319652
:1005B0009D9191939111FCCF0895CF93DF93EC011E
:1005C0009881992399F0FE01319620E030E0492F7F
:1005D00050E04617570731F0DE01A20FB31F9C937E
:1005E0002F5F3F4F91919111F2CF02C020E030E098
:1005F000FE01E20FF31F1082DF91CF9108952F9239
:100600003F924F925F926F927F928F929F92AF92A2
:10061000BF92CF92DF92EF92FF920F931F93CF93EF
:10062000DF9300D000D0CDB7DEB72C011B014B010A
:1006300077231CF42FEF821A920A9594879418144A
:1006400019040CF451C06AC09601DD209CF1F5013B
:1006500040815181F401608171816417750754F5FF
:100660008C010A0D1B1DD401BC82AB82BA82A98207
:10067000EB81FC817183608311965C934E932E19FC
:100680003F09C2F0F80140815181E981FA8160811E
:100690007181080F191FE80FF91FFA83E983EB81B5
:1006A000FC81E80FF91FFC83EB83A80FB91F6417C7
:1006B0007507F4F2FFEFCF1ADF0A22E0A20EB11C99
:1006C000E2E08E0E911CC614D70409F0BDCF47019D
:1006D000FF201CF4FFEF8F1A9F0A9594879418143B
:1006E0001904E4F4740101C07401821493047CF7CA
:1006F0006401CE18DF085601AA0CBB1CA40CB51C63
:10070000880C991C840C951C31016E187F08C70158
:10071000880F991F91958195910996CF0F900F9011
:100720000F900F90DF91CF911F910F91FF90EF905D
:10073000DF90CF90BF90AF909F908F907F906F9001
:100740005F904F903F902F900895861797070CF475
:10075000CB0108959B01672B11F408959A01B9010B
:10076000EFD7AC01822F932F41155105B9F70895AA
:10077000FC01908180ED890F8A30D0F4319620E021
:1007800030E0A901440F551F220F331F220F331FE2
:10079000220F331F420F531F292F30E020533109FE
:1007A000240F351F919180ED890F8A3050F302C0DC
:1007B00020E030E0C901089586230895009739F0BC
:1007C00020E030E02F5F3F4F82179307D9F708955D
:1007D00087FF08C0919581959109992791958195F9
:1007E000910908958F779927089591FF08C09195F1
:1007F00081959109937091958195910908959170D2
:100800000895615021E030E002C0220F331F6A9545
:10081000E2F7A90141505109B90168237923672BF7
:1008200029F084239523821B930B08958423952319
:1008300008959DEC899F912D1124969596959695F6
:10084000392F330F232F220F220F230F821B20E17A
:10085000929F800D11240895982F92959F70990F63
:10086000292F220F220F920F8F70890F0895FC01FC
:10087000DB01A754BE4F1C921616170614F5908183
:1008800091110CC017C0919191110DC015C08193A9
:100890002F5F3F4F26173707D4F313C0A9EBB1E002
:1008A000319620E030E09D932F5F3F4F6217730732
:1008B00051F707C020E030E0F901E754FE4F80E235
:1008C000E6CF89EB91E008954F925F926F927F920D
:1008D000AF92BF92CF92DF92EF92FF920F931F934E
:1008E000CF93DF93CDB7DEB729013A019B01AC016D
:1008F000241935094609570989899A89AB89BC8920
:10090000BC01CD016A197B098C099D09F6D6A801A5
:100910009701241935094609570947D7CA01B90172
:100920006A0D7B1D8C1D9D1DDF91CF911F910F9135
:10093000FF90EF90DF90CF90BF90AF907F906F903F
:100940005F904F90089570E06115710599F041E056
:1009500050E021E030E090E0FA01E89FA001E99F3B
:10096000500DF89F500D11242F5F3F4F62177307F2
:1009700098F702C041E050E0CA010895FC012081CF
:10098000222341F0319680E090E0019621912111DF
:10099000FCCF089580E090E00895CF93DF93EC01C1
:1009A000EDDF9C012150310962F0FE01E80FF91FD3
:1009B0009291903219F09950923018F421503109E7
:1009C000B8F7C20FD31F1982C901DF91CF910895E3
:1009D000CF93DF93EC01D2DF9C0121503109121635
:1009E000130684F4DE01A80FB91FFE0180E090E039
:1009F00040815E9151934C930196215031098217A9
:100A00009307B4F3DF91CF9108958F929F92AF92A5
:100A1000BF92CF92DF92EF92FF920F931F93CF93EB
:100A2000DF936B017C01DC01CB01FF203CF48827C4
:100A30009927DC018C199D09AE09BF09BC01CD01C4
:100A400010E00F2EFAE08F2E912CA12CB12CF02D5E
:100A500001C0102F01E0010FC12FD0E0C754DE4FBD
:100A6000A5019401A2D6605D6883622F732F842F45
:100A7000952F16161706180619065CF3FF2044F486
:100A8000E02FF0E0E754FE4F8DE2808302E0010F9B
:100A9000E02FF0E0E754FE4F108289EB91E098DF01
:100AA00089EB91E0DF91CF911F910F91FF90EF9033
:100AB000DF90CF90BF90AF909F908F9008950F934D
:100AC0001F93CF93DF93EC01992324F48827992770
:100AD0008C1B9D0B20E00AE010E001C0232F31E0C9
:100AE000320FE22FF0E0E754FE4FB80129D6805DC7
:100AF0008083862F972F1816190684F3DD2344F47C
:100B0000E32FF0E0E754FE4F8DE2808332E0320FB6
:100B1000E32FF0E0E754FE4F108289EB91E058DFBD
:100B200089EB91E0DF91CF911F910F910895CF93C1
:100B3000AC01E0E0C1E0CE0FF0E0E754FE4F9A01D7
:100B4000ADECBCEC4ED69695879596958795969587
:100B500087959C01220F331F880F991F880F991FBB
:100B6000880F991F820F931F9A01281B390BC90107
:100B7000805D80839A0135D6AC0156954795569590
:100B8000479556954795EC2F4115510599F6EC2F51
:100B9000F0E0E754FE4F108289EB91E019DF89EB1A
:100BA00091E0CF910895982F92959F70990F292FDA
:100BB000220F220F920F8F70890F0895AC019C01B4
:100BC000ADECBCEC0ED69695879596958795969547
:100BD0008795BC01660F771F9C01220F331F220FE0
:100BE000331F220F331F260F371F421B530B342F87
:100BF00020E1829F300D1124832F0895CF92DF9240
:100C0000EF92FF92CF93DF93CDB7DEB728970FB661
:100C1000F894DEBF0FBECDBF6B017C0169837A8380
:100C20008B839C832D833E834F835887C216D306C4
:100C3000E406F50634F4BE016B5F7F4FCE010196EA
:100C40008DDC8D819E81AF81B885892B8A2B8B2B82
:100C500069F469817A818B819C8120E030E0A9016F
:100C6000A4D5611571058105910529F46D817E81F9
:100C70008F81988505C06D837E838F839887F6CF9B
:100C800028960FB6F894DEBF0FBECDBFDF91CF918F
:100C9000FF90EF90DF90CF90089590E002C095957F
:100CA00087956A95E2F781700895E9EBF1E090E0AD
:100CB00020E850E341E3382F322311F0408301C094
:100CC000508326959F5F31969830A9F71092C10105
:100CD00089EB91E00895A42FB0E0109761F021E036
:100CE00030E0E1E0F0E0EE0FFF1F2F5F3F4FA21773
:100CF000B307C8F702C0E1E0F0E031976E237F232D
:100D00008E239F23862797276823792302C0660FA7
:100D1000771F4A95E2F7862B972B0895FC019FB722
:100D20008FB78F778FBF9FBF83EA94E091838083D3
:100D30008EEB94E09383828388EE94E095838483A2
:100D40008BE696E09783868383E992E0918780879C
:100D500081EA92E09387828783EA92E0958784878D
:100D600086EA92E09787868789EA92E0918B808B6A
:100D70008CEA92E0938B828B8DE992E0958B848B49
:100D80008FE992E0978B868B8EEA92E0918F808F2D
:100D90008FEC92E0938F828F8DED92E0958F848F10
:100DA0008FEF92E0978F868F8FE595E091A380A3D8
:100DB00087E995E093A382A385E095E095A384A3BA
:100DC0008DEC94E097A386A385EA93E091A780A792
:100DD0008AEA93E093A782A788EB93E095A784A77C
:100DE0008CED93E097A786A78EED93E091AB80AB57
:100DF00088EE93E093AB82AB85EF93E095AB84AB49
:100E000081E094E097AB86AB89E194E091AF80AF4D
:100E10008CE294E093AF82AF87E394E095AF84AF28
:100E200084E694E097AF86AFDF01A05CBF4F83ED0F
:100E300095E011969C938E9312968EED95E0119607
:100E40009C938E9312968EEF95E011969C938E93C1
:100E500012968DE496E011969C938E93129685E5FA
:100E600096E08D939C93CF01089591B3936091BBCD
:100E700092B3936092BB843079F018F4813031F0F2
:100E80001DC0803179F0803499F018C0E1E7F0E0BE
:100E900090819C7F908318C0E1E7F0E090819160A1
:100EA000908312C0E1E7F0E09081926090830CC0E3
:100EB000E1E7F0E090819360908306C0E1E7F0E025
:100EC00080818C7F808381E0282F30E0220F331FC8
:100ED000032E000C440B550B60E970E080E090E0BD
:100EE00042D4209370000895E4E7F0E084EA808320
:100EF0008FEF93E09093CE018093CD018081882382
:100F00005CF08EEF93E09093CE018093CD01208131
:100F1000222314F00197B8F7089584E980937400B0
:100F20008FE891E00197F1F700C0000008958093E9
:100F30007300E4E7F0E084E880838FEF93E0909320
:100F4000CE018093CD01808188235CF08EEF93E009
:100F50009093CE018093CD012081222314F001973C
:100F6000B8F7089520E4829FC00111248468E4E763
:100F7000F0E080838FEF93E09093CE018093CD01DA
:100F8000808188235CF08EEF93E09093CE01809374
:100F9000CD012081222314F00197B8F780917300CE
:100FA0000895E091D901F091DA0190819D7F9083BD
:100FB000672B41F0E091D901F091DA0190819160C5
:100FC000908307C0E091D901F091DA0190819E7F72
:100FD0009083E091D601F091D7019081906F90833A
:100FE000E091D901F091DA01908194609083882397
:100FF00044F4E091D901F091DA01908190689083F6
:1010000007C0E091D901F091DA0190819F77908338
:1010100086FF08C0E091D901F091DA0190819064D7
:10102000908307C0E091D901F091DA0190819F7B14
:10103000908385FF08C0E091D901F091DA01908199
:101040009062908307C0E091D901F091DA0190811C
:101050009F7D908384FF08C0E091D901F091DA016F
:1010600090819061908307C0E091D901F091DA01FD
:1010700090819F7E9083E091D901F091DA01908177
:101080009B7F9083E091D901F091DA019081946087
:10109000908383FF08C0E091D901F091DA0190813B
:1010A0009068908307C0E091D901F091DA019081B6
:1010B0009F77908382FF08C0E091D901F091DA0117
:1010C00090819064908307C0E091D901F091DA019A
:1010D00090819F7B908381FF08C0E091D901F091BE
:1010E000DA0190819062908307C0E091D901F0917C
:1010F000DA0190819F7D908380FF08C0E091D90143
:10110000F091DA0180818061808307C0E091D9018C
:10111000F091DA0180818F7E8083E091D901F09196
:10112000DA0180818B7F80830895E091D601F09170
:10113000D70120812F702083E091D901F091DA014D
:101140002081206F2083E091D901F091DA01208184
:1011500022602083892B41F0E091D901F091DA01DE
:1011600080818160808307C0E091D901F091DA012C
:1011700080818E7F8083E091D901F091DA018081B6
:1011800084608083E091CF01F091D0018081882339
:1011900014F080E001C080E8908196FF02C0806476
:1011A00001C08F7B908195FF02C0806201C08F7D5E
:1011B000908194FF02C0806101C08F7EE091D901CF
:1011C000F091DA0190819B7F9083E091D901F091B9
:1011D000DA01908194609083E091CF01F091D00189
:1011E0009081992314F4886001C0877F908196FFD5
:1011F00002C0846001C08B7F908195FF02C0826035
:1012000001C08D7F908194FF02C0816001C08E7FFC
:10121000E091D901F091DA0190819B7F908308954C
:10122000CF93DF9380E090E080DFCBE0D0E005C09B
:1012300080E090E07ADF219711F08823CCF3DF91F2
:10124000CF91089561E070E0ACDEEACF0895CF93CE
:1012500081E090E06ADFC82FE3DF8C2FCF91089503
:10126000CF93DF93EC018881882341F0219661E0E0
:1012700070E097DED5DF89918111F9CFDF91CF91B1
:1012800008950F931F93CF93DF93FC01D62F808196
:10129000882351F08F010F5F1F4F611109C01BC0E0
:1012A000CF5FDC1730F401C0C0E0CD1760F013C091
:1012B000C1E061E070E075DEB3DFF80181918F017C
:1012C0008111EECFF2CFCF5F61E070E080E269DEA6
:1012D000A7DFCD17C0F3DF91CF911F910F91089534
:1012E000CF93C82F882339F061E070E080E259DEA7
:1012F00097DFC150C9F7CF910895262F813091050E
:1013000071F030F08230910589F00397B1F00895C3
:1013100060E070E080E8820F44DE82CF089560E0F4
:1013200070E080EC820F3DDE7BCF089560E070E0DE
:1013300084E9820F36DE74CF089560E070E084EDBA
:10134000820F2FDE6DCF089560E070E081E029DE2E
:1013500087EE97E10197F1F700C000000895E09152
:10136000D601F091D70187E08083E091D901F09117
:10137000DA0188E080832FEF83EF91E021508040F5
:101380009040E1F700C0000060E070E083E309DE18
:1013900020ED2A95F1F760E070E083E302DE80ED56
:1013A0008A95F1F760E070E08BE2FBDD95EC9A95B1
:1013B000F1F7000060E070E08CE0F3DD25EC2A95A9
:1013C000F1F7000060E070E081E0EBDD87EE97E18F
:1013D0000197F1F700C0000060E070E086E0E1DD19
:1013E00095EC9A95F1F7000008951F93CF93DF9342
:1013F000EC011FB78FB78F778FBF7093D7016093C2
:10140000D6015093D0014093CF013093DA0120935D
:10141000D901FB011082E091D901F091DA018FEF3F
:101420008083E091CF01F091D0018081887080931A
:10143000D80195DF1FBF81ED97E09983888385E907
:1014400098E09B838A8380E199E09D838C8382E28C
:1014500099E09F838E8387E299E09987888780E36C
:1014600099E09B878A8781E499E09D878C8780E754
:1014700099E09F878E8784EA99E0998B888B8DE726
:1014800099E09B8B8A8B8CE49AE09D8B8C8BCE01B0
:10149000DF91CF911F910895CF93E091CF01F0910B
:1014A000D001C081C8708091D8018C278C2309F0AD
:1014B00056DFC093D801CF910895D7DC15DD82EABD
:1014C00036DD80E034DD80E032DD27CD0895CF9336
:1014D000882321F06370C62FC06801C0C0E004DD1E
:1014E00082EA25DD8DE023DD8C2F21DD16DDCF9115
:1014F00008951F93CF93DF93F7DC82EA18DD82E033
:1015000016DD0BDDF1DC83EA12DD81E02BDD182F27
:1015100081E028DDC82F80E025DDD82FFEDC6D2F8F
:101520006F737C2F7F77812F8F77DF91CF911F9102
:1015300008950F931F93CF93DF93D6DC82EAF7DCF5
:1015400085E0F5DCEADCD0DC83EAF1DC81E00ADD71
:10155000D82F81E007DD182F81E004DDC82F80E05F
:1015600001DD082FDADC7C2F7F71602F812F8770DF
:101570009D2F9F73DF91CF911F910F910895982F09
:1015800092959F70990F292F220F220F920F8F7023
:10159000890F0895CF93DF93CDB7DEB7C056D10939
:1015A0000FB6F894DEBF0FBECDBF2BE330E049E3AA
:1015B00050E06AE370E0CE01019617DFAF80B88497
:1015C0000D851E858B889C88CE014796A7DBE9ACEC
:1015D000FAAC2FEF81EE94E0215080409040E1F78B
:1015E00000C0000080E469DF62E081E070DF0F2E60
:1015F000FDEDCF2EF1E0DF2EF02D0F2EF0EE6F2E51
:10160000F1E07F2EF02DED89FE89099560E070E014
:1016100080E090E0F401099565E080E091E0F80158
:10162000099567DF6093DD017093DE018093DF0130
:1016300060E070E081E090E0F4010995F6018081BE
:101640009EDF90E0F701099562E0F80109958AE3D1
:10165000F5010995F601818192DF90E0F701099586
:1016600062E0F80109958AE3F5010995F6018281A6
:1016700086DF90E0F701099562E0F8010995EF85B2
:10168000F88987E00995F601828190E0F7010995D4
:1016900062E0F80109954DDF6093E0017093E1018C
:1016A0008093E2019093E30160E070E082E090E0DB
:1016B000F4010995F301838162DF90E0F701099558
:1016C00062E0F80109958AE3F5010995F30181814A
:1016D0008F7155DF90E0F701099562E0F8010995F7
:1016E0008AE3F5010995F301808149DF90E0F70174
:1016F000099562E0F801099586CFDB018F939F93EE
:101700007FD0BF91AF91A29F800D911DA39F900D9F
:10171000B29F900D11240895AA1BBB1B51E107C075
:10172000AA1FBB1FA617B70710F0A61BB70B881F71
:10173000991F5A95A9F780959095BC01CD01089500
:1017400097FB072E16F4009406D077FD08D0E4DF4F
:1017500007FC05D03EF4909581959F4F08957095B4
:1017600061957F4F0895A1E21A2EAA1BBB1BFD01B4
:101770000DC0AA1FBB1FEE1FFF1FA217B307E40770
:10178000F50720F0A21BB30BE40BF50B661F771FC8
:10179000881F991F1A9469F76095709580959095A8
:1017A0009B01AC01BD01CF010895052E97FB16F4F6
:1017B00000940FD057FD05D0D6DF07FC02D046F4C9
:1017C00008C050954095309521953F4F4F4F5F4F42
:1017D000089590958095709561957F4F8F4F9F4F9D
:1017E0000895A29FB001B39FC001A39F700D811DFA
:1017F0001124911DB29F700D811D1124911D08951A
:10180000F0DFA59F900DB49F900DA49F800D911DBA
:0818100011240895F894FFCFA4
:061818007374617274009C
:00000001FF
