S011000041746D6567613132382E7372656329
S113000045C00000E6C00000EEC00000F6C00000DD
S1130010FEC0000006C100000EC1000016C10000B1
S11300201EC1000050C000002EC1000036C10000F7
S11300303EC1000046C100004EC1000056C1000090
S11300405EC1000016C10000EAC2000020C3000027
S11300503AC0000039C0000036C0000034C00000BF
S113006058C1000060C1000068C1000070C10000F8
S113007078C1000080C1000033C300006CC30000DD
S113008022C00000C2C200001EC0000011241FBE16
S1130090CFEFD0E1DEBFCDBF11E0A0E0B1E0EAE8F0
S11300A0FDE000E00BBF02C007900D92A630B1073F
S11300B0D9F721E0A6E0B1E001C01D92A93CB20746
S11300C0E1F705D660C69CCF1F920F920FB60F9230
S11300D011240BB60F922F933F938F939F93EF931B
S11300E0FF9384B190E0909308018093070125B1B8
S11300F08091070190910801922B909308018093BD
S11301000701809106018430A0F4809106018F5F7D
S11301108093060120910701309108018091090123
S113012090910A01820F931F90930A018093090111
S113013043C0E0910B01F0910C0180910901909171
S11301400A019595879595958795EE0FFF1FE15EBA
S1130150FE4F9183808310920A011092090110923C
S1130160060120910B0130910C0180910D019091B9
S11301700E012817390754F480910B0190910C015A
S1130180019690930C0180930B0104C010920C0112
S113019010920B0187B1807E87B9E0910B01F09139
S11301A00C01EE0FFF1FE15FFE4F8081918127B1AB
S11301B08F719927822B87B9FF91EF919F918F912E
S11301C03F912F910F900BBE0F900FBE0F901F9079
S11301D018951F920F920FB60F9211240F900FBE15
S11301E00F901F9018951F920F920FB60F92112423
S11301F00F900FBE0F901F9018951F920F920FB67D
S11302000F9211240F900FBE0F901F9018951F92FC
S11302100F920FB60F9211240F900FBE0F901F90E4
S113022018951F920F920FB60F9211240F900FBEC4
S11302300F901F9018951F920F920FB60F921124D2
S11302400F900FBE0F901F9018951F920F920FB62C
S11302500F9211240F900FBE0F901F9018951F92AC
S11302600F920FB60F9211240F900FBE0F901F9094
S113027018951F920F920FB60F9211240F900FBE74
S11302800F901F9018951F920F920FB60F92112482
S11302900F900FBE0F901F9018951F920F920FB6DC
S11302A00F9211240F900FBE0F901F9018951F925C
S11302B00F920FB60F9211240F900FBE0F901F9044
S11302C018951F920F920FB60F9211240F900FBE24
S11302D00F901F9018951F920F920FB60F92112432
S11302E00F900FBE0F901F9018951F920F920FB68C
S11302F00F9211240F900FBE0F901F9018951F920C
S11303000F920FB60F9211240F900FBE0F901F90F3
S113031018951F920F920FB60F9211240F900FBED3
S11303200F901F9018951F920F920FB60F921124E1
S11303300F900FBE0F901F9018951F920F920FB63B
S11303400F9211240F900FBE0F901F9018951F92BB
S11303500F920FB60F9211240F900FBE0F901F90A3
S113036018951F920F920FB60F9211240F900FBE83
S11303700F901F9018951F920F920FB60F92112491
S11303800F900FBE0F901F9018951F93CF93DF937C
S1130390EC011FB78FB78F778FBF16163CF46093AD
S11303A0B901660F61606093720003C082E08093BC
S11303B0B90181B3836081BB82B3836082BB443063
S11303C079F018F4413031F01DC0403179F04034F7
S11303D099F018C0E1E7F0E080818C7F808318C039
S11303E0E1E7F0E080818160808312C0E1E7F0E022
S11303F08081826080830CC0E1E7F0E080818360CB
S1130400808306C0E1E7F0E080818C7F808341E057
S1130410242F30E0220F331F032E000C440B550B06
S113042060E970E080E090E08CD4209370001FBFFE
S11304308FB780688FBF80E892E09983888380E9D2
S113044092E09B838A8389EA92E09D838C8381EC8A
S113045092E09F838E8388E592E099878887CE0116
S1130460DF91CF911F910895813061F028F082309F
S113047079F0833099F018C0E4E7F0E08081846A71
S113048080830895E4E7F0E08081846880830895A0
S1130490E4E7F0E08081846C80830895E4E7F0E091
S11304A0808184698083089584E980937400089529
S11304B080917100887F883351F028F4803239F0BC
S11304C0803339F404C0883411F0883511F483E0A2
S11304D0CBDF83E0C9CF0895AC01809174008823F9
S11304E02CF408954217530728F4089520E030E0CF
S11304F0E4E7F0E02F5F3F4F908199239CF7089544
S1130500882341F0E4E7F0E085E4808380818F7CF8
S11305108083089580E0A8DF88EA92E0DDCF089523
S113052090917100987F983099F4E4E7F0E090811D
S11305309F7D908318162CF4880F862B809373006C
S113054002C01092730081E08FDF88EA92E0C4CF8A
S1130550089590917100987F983119F0983249F07C
S113056008958093730081E07FDF88EA92E0B4CF3E
S113057008958093730081E077DF88EA92E0ACCF3E
S11305800895CF93C82F80917100887F803419F02B
S11305908035E1F037C0C13051F0C23081F482E0DF
S11305A063DF88EA92E098DF8091730013C081E0F2
S11305B05BDF88EA92E090DF8091730013C081E0F2
S11305C053DF88EA92E088DF80917300C13051F0F4
S11305D0C23081F482E048DF88EA92E07DDF8091D6
S11305E0730011C081E040DF88EA92E075DF8091FA
S11305F0730009C081E038DF88EA92E06DDF809102
S1130600730001C088E5CF9108951F920F920FB631
S11306100F9211240F900FBE0F901F9018951F92E8
S11306200F920FB60F9211240BB60F928F939F93D4
S1130630EF93FF938BB19AB1887180937401E09129
S11306407601EF5FEF7180917501E81304C082E0D9
S11306508093740111C09CB1E09376018091740180
S1130660882331F0F0E0E758FE4F88E5808304C02A
S1130670F0E0E758FE4F9083FF91EF919F918F91A7
S11306800F900BBE0F900FBE0F901F9018951F92E6
S11306900F920FB60F9211240BB60F928F939F9364
S11306A0EF93FF939091780180917701981302C0A2
S11306B055980BC0E0917701EF5FEF71E0937701FC
S11306C0F0E0E756FE4F80818CB9FF91EF919F9146
S11306D08F910F900BBE0F900FBE0F901F90189527
S11306E01F920F920FB60F9211240BB60F928F9395
S11306F09F93EF93FF9380919B0090919A00887150
S113070080932F01E0913101EF5FEF71809130010F
S1130710E81304C082E080932F0112C090919C00E2
S1130720E093310180912F01882331F0F0E0EC5CFB
S1130730FE4F88E5808304C0F0E0EC5CFE4F9083BC
S1130740FF91EF919F918F910F900BBE0F900FBE71
S11307500F901F9018951F920F920FB60F921124AD
S11307600BB60F928F939F93EF93FF939091330166
S113077080913201981306C0EAE9F0E080818F7D10
S113078080830EC0809132018F5F8F71809332011C
S1130790E0913201F0E0EC5AFE4F808180939C009E
S11307A0FF91EF919F918F910F900BBE0F900FBE11
S11307B00F901F901895E091C501F091C6019081AA
S11307C09D7F9083672B41F0E091C501F091C601B4
S11307D090819160908307C0E091C501F091C601BA
S11307E090819E7F9083E091C201F091C30190813A
S11307F0906F9083E091C501F091C601908194605F
S11308009083882344F4E091C501F091C60190815E
S11308109068908307C0E091C501F091C601908172
S11308209F77908386FF08C0E091C501F091C601CF
S113083090819064908307C0E091C501F091C60156
S113084090819F7B908385FF08C0E091C501F09162
S1130850C60190819062908307C0E091C501F09138
S1130860C60190819F7D908384FF08C0E091C501FB
S1130870F091C60190819061908307C0E091C50119
S1130880F091C60190819F7E9083E091C501F09123
S1130890C60190819B7F9083E091C501F091C601D0
S11308A090819460908383FF08C0E091C501F0912A
S11308B0C60190819068908307C0E091C501F091D2
S11308C0C60190819F77908382FF08C0E091C501A3
S11308D0F091C60190819064908307C0E091C501B6
S11308E0F091C60190819F7B908381FF08C0E091C5
S11308F0C501F091C60190819062908307C0E09198
S1130900C501F091C60190819F7D908380FF08C04E
S1130910E091C501F091C60180818061808307C0A8
S1130920E091C501F091C60180818F7E8083E091C2
S1130930C501F091C60180818B7F80830895E09189
S1130940C201F091C30120812F702083E091C50181
S1130950F091C6012081206F2083E091C501F091C0
S1130960C601208122602083892B41F0E091C501DA
S1130970F091C60180818160808307C0E091C50148
S1130980F091C60180818E7F8083E091C501F09152
S1130990C601808184608083E091BB01F091BC0139
S11309A08081882314F080E001C080E8908196FF64
S11309B002C0806401C08F7B908195FF02C0806279
S11309C001C08F7D908194FF02C0806101C08F7E41
S11309D0E091C501F091C60190819B7F9083E091E5
S11309E0C501F091C601908194609083E091BB01B0
S11309F0F091BC019081992314F4886001C0877F31
S1130A00908196FF02C0846001C08B7F908195FF26
S1130A1002C0826001C08D7F908194FF02C081601A
S1130A2001C08E7FE091C501F091C60190819B7F4A
S1130A3090830895CF93DF9380E090E080DFCBE054
S1130A40D0E005C080E090E07ADF219711F08823A0
S1130A50CCF3DF91CF91089561E070E0ACDEEACF92
S1130A600895CF9381E090E06ADFC82FE3DF8C2FF5
S1130A70CF910895CF93DF93EC018881882341F0CF
S1130A80219661E070E097DED5DF89918111F9CF7D
S1130A90DF91CF9108950F931F93CF93DF93FC01C0
S1130AA0D62F8081882351F08F010F5F1F4F611172
S1130AB009C01BC0CF5FDC1730F401C0C0E0CD1704
S1130AC060F013C0C1E061E070E075DEB3DFF801EF
S1130AD081918F018111EECFF2CFCF5F61E070E0A1
S1130AE080E269DEA7DFCD17C0F3DF91CF911F91BC
S1130AF00F910895CF93C82F882339F061E070E0F7
S1130B0080E259DE97DFC150C9F7CF910895262FAF
S1130B108130910571F030F08230910589F00397AE
S1130B20B1F0089560E070E080E8820F44DE82CF87
S1130B30089560E070E080EC820F3DDE7BCF089585
S1130B4060E070E084E9820F36DE74CF089560E0DF
S1130B5070E084ED820F2FDE6DCF089560E070E0C9
S1130B6081E029DE87EE97E10197F1F700C00000EC
S1130B700895E091C201F091C30187E08083E09180
S1130B80C501F091C60188E080832FEF83EF91E0E7
S1130B90215080409040E1F700C0000060E070E028
S1130BA083E309DE20ED2A95F1F760E070E083E34A
S1130BB002DE80ED8A95F1F760E070E08BE2FBDD08
S1130BC095EC9A95F1F7000060E070E08CE0F3DDBD
S1130BD025EC2A95F1F7000060E070E081E0EBDDA0
S1130BE087EE97E10197F1F700C0000060E070E044
S1130BF086E0E1DD95EC9A95F1F7000008951F93E6
S1130C00CF93DF93EC011FB78FB78F778FBF7093AC
S1130C10C3016093C2015093BC014093BB01309364
S1130C20C6012093C501FB011082E091C501F0913A
S1130C30C6018FEF8083E091BB01F091BC018081FC
S1130C4088708093C40195DF1FBF8BED93E0998377
S1130C5088838FE994E09B838A838AE195E09D836E
S1130C608C838CE295E09F838E8381E395E0998762
S1130C7088878AE395E09B878A878BE495E09D8744
S1130C808C878AE795E09F878E878EEA95E0998B1B
S1130C90888B87E895E09B8B8A8B86E596E09D8B15
S1130CA08C8BCE01DF91CF911F910895CF93E0916A
S1130CB0BB01F091BC01C081C8708091C4018C2734
S1130CC08C2309F056DFC093C401CF910895CF93CC
S1130CD0DF93CDB7DEB7A0970FB6F894DEBF0FBE93
S1130CE0CDBF40E061E5CE0101964FDB2BE330E060
S1130CF049E350E06AE370E0CE010B9680DF0D8D8E
S1130D001E8D60E070E080E090E0F8010995EF89C5
S1130D10F88D65E080E091E00995EB81FC8161E06C
S1130D2081E5099560E070E081E090E0F8010995C3
S1130D30E988FA88EF81F88581E00995F70109953A
S1130D40E0CFA1E21A2EAA1BBB1BFD010DC0AA1FF6
S1130D50BB1FEE1FFF1FA217B307E407F50720F020
S1130D60A21BB30BE40BF50B661F771F881F991F9B
S1130D701A9469F760957095809590959B01AC01E4
S10D0D80BD01CF010895F894FFCFE0
S1090D8A73746172740031
S9030000FC
