S011000041746D6567613132382E7372656329
S113000045C00000C5C10000CDC10000D5C100003D
S1130010DDC10000E5C10000EDC10000F5C1000034
S1130020FDC1000052C000000DC2000015C2000056
S11300301DC2000025C200002DC2000035C2000010
S11300403DC20000F5C100007FC20000B5C200003F
S11300503CC0000018C1000038C0000036C00000D9
S113006037C200003FC2000047C200004FC2000078
S113007057C200005FC20000C8C2000001C30000F4
S113008024C0000022C0000020C0000011241FBEB4
S1130090CFEFD0E1DEBFCDBF11E0A0E0B1E0EAE4F4
S11300A0FAE100E00BBF02C007900D92A630B10741
S11300B0D9F721E0A6E0B1E001C01D92AB3EB20742
S11300C0E1F70E94A80B0C94230D9ACF882389F0A2
S11300D0E091BB01F091BC01208181E090E00090AF
S11300E0BD0102C0880F991F0A94E2F7822B808316
S11300F011C0E091BB01F091BC01208181E090E04E
S11301000090BD0102C0880F991F0A94E2F7809500
S113011082238083E091BB01F091BC01408181E0A6
S113012090E09C010090BF0102C0220F331F0A948B
S1130130E2F7242B2083E091BB01F091BC012081E4
S11301400090BF0102C0880F991F0A94E2F78095BE
S1130150822380830895E091BB01F091BC0140812A
S113016081E090E09C010090BE0102C0220F331F89
S11301700A94E2F7242B2083E091BB01F091BC01A7
S113018020810090BE0102C0880F991F0A94E2F7F3
S11301908095822380830895FF920F931F93CF93BA
S11301A0DF93F82EC0E0D0E001E010E0C8010C2E8F
S11301B002C0880F991F0A94E2F78F2187DF2196E6
S11301C0C830D10599F7C7DFDF91CF911F910F9107
S11301D0FF9008950F93CF93DF9300D000D000D009
S11301E0CDB7DEB75FB73FB73F773FBF9093BA0154
S11301F08093B9017093BC016093BB014093BD012E
S11302002093BF010093BE01FC01308161E070E0E6
S1130210DB0102C0AA0FBB1F2A95E2F7FB0102C053
S1130220EE0FFF1F0A95E2F7EA2B02C0660F771F55
S11302304A95E2F76E2B232F262BFC012083E091B5
S1130240BB01F091BC0180816095682360835FBF2E
S113025026E630E03A8329834CEC50E05C834B8300
S11302606BEA70E07E836D833A815C817E8180E0FD
S113027090E026960FB6F894DEBF0FBECDBFDF9197
S1130280CF910F9108951F920F920FB60F921124E0
S11302900BB60F922F933F938F939F93EF93FF93FC
S11302A084B190E0909308018093070125B1809177
S11302B0070190910801922B909308018093070104
S11302C0809106018430A0F4809106018F5F8093B1
S11302D00601209107013091080180910901909154
S11302E00A01820F931F90930A018093090143C06E
S11302F0E0910B01F0910C018091090190910A01A8
S11303009595879595958795EE0FFF1FE15EFE4FB6
S11303109183808310920A011092090110920601C0
S113032020910B0130910C0180910D0190910E01EF
S11303302817390754F480910B0190910C01019610
S113034090930C0180930B0104C010920C01109245
S11303500B0187B1807E87B9E0910B01F0910C010C
S1130360EE0FFF1FE15FFE4F8081918127B18F71F6
S11303709927822B87B9FF91EF919F918F913F919C
S11303802F910F900BBE0F900FBE0F901F901895DA
S11303901F920F920FB60F9211240F900FBE0F9061
S11303A01F9018951F920F920FB60F9211240F9061
S11303B00FBE0F901F9018951F920F920FB60F92B9
S11303C011240F900FBE0F901F9018951F920F923B
S11303D00FB60F9211240F900FBE0F901F90189517
S11303E01F920F920FB60F9211240F900FBE0F9011
S11303F01F9018951F920F920FB60F9211240F9011
S11304000FBE0F901F9018951F920F920FB60F9268
S113041011240F900FBE0F901F9018951F920F92EA
S11304200FB60F9211240F900FBE0F901F901895C6
S11304301F920F920FB60F9211240F900FBE0F90C0
S11304401F9018951F920F920FB60F9211240F90C0
S11304500FBE0F901F9018951F920F920FB60F9218
S113046011240F900FBE0F901F9018951F920F929A
S11304700FB60F9211240F900FBE0F901F90189576
S11304801F920F920FB60F9211240F900FBE0F9070
S11304901F9018951F920F920FB60F9211240F9070
S11304A00FBE0F901F9018951F920F920FB60F92C8
S11304B011240F900FBE0F901F9018951F920F924A
S11304C00FB60F9211240F900FBE0F901F90189526
S11304D01F920F920FB60F9211240F900FBE0F9020
S11304E01F9018951F920F920FB60F9211240F9020
S11304F00FBE0F901F9018951F920F920FB60F9278
S113050011240F900FBE0F901F9018951F920F92F9
S11305100FB60F9211240F900FBE0F901F901895D5
S11305201F920F920FB60F9211240F900FBE0F90CF
S11305301F9018951F920F920FB60F9211240F90CF
S11305400FBE0F901F9018951F920F920FB60F9227
S113055011240BB60F928F939F93EF93FF938BB15C
S11305609AB1887180937401E0917601EF5FEF7125
S113057080917501E81304C082E08093740111C076
S11305809CB1E093760180917401882331F0F0E00E
S1130590E758FE4F88E5808304C0F0E0E758FE4F3B
S11305A09083FF91EF919F918F910F900BBE0F90CD
S11305B00FBE0F901F9018951F920F920FB60F92B7
S11305C011240BB60F928F939F93EF93FF93909107
S11305D0780180917701981302C055980BC0E0917F
S11305E07701EF5FEF71E0937701F0E0E756FE4F9C
S11305F080818CB9FF91EF919F918F910F900BBEE9
S11306000F900FBE0F901F9018951F920F920FB668
S11306100F9211240BB60F928F939F93EF93FF9336
S113062080919B0090919A00887180932F01E091B2
S11306303101EF5FEF7180913001E81304C082E073
S113064080932F0112C090919C00E093310180911E
S11306502F01882331F0F0E0EC5CFE4F88E58083C5
S113066004C0F0E0EC5CFE4F9083FF91EF919F910A
S11306708F910F900BBE0F900FBE0F901F90189587
S11306801F920F920FB60F9211240BB60F928F93F5
S11306909F93EF93FF9390913301809132019813CC
S11306A006C0EAE9F0E080818F7D80830EC08091EE
S11306B032018F5F8F7180933201E0913201F0E05B
S11306C0EC5AFE4F808180939C00FF91EF919F91A3
S11306D08F910F900BBE0F900FBE0F901F90189527
S11306E06823442321F0861721F080E008956111E6
S11306F080E00895862B089586230895862308951F
S1130700862B8095089586278623089560958623F1
S1130710089586270895CF92DF92EF92FF920F9368
S11307201F93FC010081118122813381FB01C08070
S1130730D180E280F380FC01C082D182E282F38224
S1130740FB0100831183228333831F910F91FF9058
S1130750EF90DF90CF900895FB012081FC0120836E
S1130760222339F0DB01119631969D9191939111D9
S1130770FCCF0895CF93DF93EC019881992399F0EE
S1130780FE01319620E030E0492F50E0461757072C
S113079031F0DE01A20FB31F9C932F5F3F4F919165
S11307A09111F2CF02C020E030E0FE01E20FF31F0E
S11307B01082DF91CF9108952F923F924F925F92D2
S11307C06F927F928F929F92AF92BF92CF92DF925D
S11307D0EF92FF920F931F93CF93DF9300D000D03B
S11307E0CDB7DEB72C011B014B0177231CF42FEF8F
S11307F0821A920A95948794181419040CF451C01F
S11308006AC09601DD209CF1F50140815181F4011B
S1130810608171816417750754F58C010A0D1B1DE5
S1130820D401BC82AB82BA82A982EB81FC81718340
S1130830608311965C934E932E193F09C2F0F80120
S113084040815181E981FA8160817181080F191F0A
S1130850E80FF91FFA83E983EB81FC81E80FF91FA4
S1130860FC83EB83A80FB91F64177507F4F2FFEF3D
S1130870CF1ADF0A22E0A20EB11CE2E08E0E911C18
S1130880C614D70409F0BDCF4701FF201CF4FFEFC5
S11308908F1A9F0A9594879418141904E4F4740128
S11308A001C07401821493047CF76401CE18DF083C
S11308B05601AA0CBB1CA40CB51C880C991C840CF6
S11308C0951C31016E187F08C701880F991F9195F7
S11308D08195910996CF0F900F900F900F90DF9113
S11308E0CF911F910F91FF90EF90DF90CF90BF9029
S11308F0AF909F908F907F906F905F904F903F90BC
S11309002F900895861797070CF4CB0108959B0147
S1130910672B11F408959A01B9010E94B90CAC0136
S1130920822F932F41155105B1F70895FC01908151
S113093080ED890F8A30D0F4319620E030E0A901AF
S1130940440F551F220F331F220F331F220F331F53
S1130950420F531F292F30E020533109240F351F34
S1130960919180ED890F8A3050F302C020E030E08D
S1130970C901089586230895009739F020E030E0F6
S11309802F5F3F4F82179307D9F7089587FF08C059
S1130990919581959109992791958195910908954A
S11309A08F779927089591FF08C0919581959109B2
S11309B0937091958195910908959170089561506E
S11309C021E030E002C0220F331F6A95E2F7A9014B
S11309D041505109B90168237923672B29F08423F5
S11309E09523821B930B08958423952308959DECEE
S11309F0899F912D1124969596959695392F330FAD
S1130A00232F220F220F230F821B20E1929F800DA0
S1130A1011240895982F92959F70990F292F220FD2
S1130A20220F920F8F70890F0895FC01DB01A054EF
S1130A30BE4F1C921616170614F5908191110CC026
S1130A4017C0919191110DC015C081932F5F3F4F35
S1130A5026173707D4F313C0A0ECB1E0319620E099
S1130A6030E09D932F5F3F4F6217730751F707C024
S1130A7020E030E0F901E054FE4F80E2E6CF80EC64
S1130A8091E008954F925F926F927F92AF92BF92DE
S1130A90CF92DF92EF92FF920F931F93CF93DF9346
S1130AA0CDB7DEB729013A019B01AC012419350900
S1130AB04609570989899A89AB89BC89BC01CD014A
S1130AC06A197B098C099D0931D7A801970124195A
S1130AD035094609570982D7CA01B9016A0D7B1D38
S1130AE08C1D9D1DDF91CF911F910F91FF90EF9071
S1130AF0DF90CF90BF90AF907F906F905F904F90BA
S1130B00089570E06115710599F041E050E021E02D
S1130B1030E090E0FA01E89FA001E99F500DF89FB2
S1130B20500D11242F5F3F4F6217730798F702C0CF
S1130B3041E050E0CA010895FC012081222341F0E4
S1130B40319680E090E0019621912111FCCF089527
S1130B5080E090E00895CF93DF93EC01EDDF9C01FA
S1130B602150310962F0FE01E80FF91F9291903291
S1130B7019F09950923018F421503109B8F7C20F86
S1130B80D31F1982C901DF91CF910895CF93DF93C9
S1130B90EC01D2DF9C01215031091216130684F4B2
S1130BA0DE01A80FB91FFE0180E090E040815E9154
S1130BB051934C9301962150310982179307B4F352
S1130BC0DF91CF9108958F929F92AF92BF92CF926F
S1130BD0DF92EF92FF920F931F93CF93DF936B01FA
S1130BE07C01DC01CB01FF203CF488279927DC0140
S1130BF08C199D09AE09BF09BC01CD0110E00F2E6F
S1130C00FAE08F2E912CA12CB12CF02D01C0102FC5
S1130C1001E0010FC12FD0E0C054DE4FA5019401C3
S1130C20DDD6605D6883622F732F842F952F16168F
S1130C301706180619065CF3FF2044F4E02FF0E0D1
S1130C40E054FE4F8DE2808302E0010FE02FF0E0DC
S1130C50E054FE4F108280EC91E098DF80EC91E04C
S1130C60DF91CF911F910F91FF90EF90DF90CF9084
S1130C70BF90AF909F908F9008950F931F93CF9341
S1130C80DF93EC01992324F4882799278C1B9D0B6F
S1130C9020E00AE010E001C0232F31E0320FE22F00
S1130CA0F0E0E054FE4FB80164D6805D8083862F67
S1130CB0972F1816190684F3DD2344F4E32FF0E08C
S1130CC0E054FE4F8DE2808332E0320FE32FF0E0F8
S1130CD0E054FE4F108280EC91E058DF80EC91E00C
S1130CE0DF91CF911F910F910895CF93AC01E0E074
S1130CF0C1E0CE0FF0E0E054FE4F9A01ADECBCEC45
S1130D0089D69695879596958795969587959C010E
S1130D10220F331F880F991F880F991F880F991F5F
S1130D20820F931F9A01281B390BC901805D8083B0
S1130D309A0170D6AC0156954795569547955695A8
S1130D404795EC2F4115510599F6EC2FF0E0E0544E
S1130D50FE4F108280EC91E019DF80EC91E0CF919E
S1130D600895982F92959F70990F292F220F220F83
S1130D70920F8F70890F0895AC019C01ADECBCEC0F
S1130D8049D6969587959695879596958795BC01AE
S1130D90660F771F9C01220F331F220F331F220F70
S1130DA0331F260F371F421B530B342F20E1829F22
S1130DB0300D1124832F0895CF92DF92EF92FF928A
S1130DC0CF93DF93CDB7DEB728970FB6F894DEBF85
S1130DD00FBECDBF6B017C0169837A838B839C83B7
S1130DE02D833E834F835887C216D306E406F50647
S1130DF034F4BE016B5F7F4FCE0101968CDC8D8194
S1130E009E81AF81B885892B8A2B8B2B69F46981EC
S1130E107A818B819C8120E030E0A901DFD56115C6
S1130E2071058105910529F46D817E818F819885F5
S1130E3005C06D837E838F839887F6CF28960FB67F
S1130E40F894DEBF0FBECDBFDF91CF91FF90EF903E
S1130E50DF90CF90089590E002C0959587956A95AC
S1130E60E2F781700895E0ECF1E090E020E850E3CF
S1130E7041E3382F322311F0408301C0508326957B
S1130E809F5F31969830A9F71092C80180EC91E0E9
S1130E900895A42FB0E0109761F021E030E0E1E084
S1130EA0F0E0EE0FFF1F2F5F3F4FA217B307C8F705
S1130EB002C0E1E0F0E031976E237F238E239F236D
S1130EC0862797276823792302C0660F771F4A95E0
S1130ED0E2F7862B972B0895FC019FB78FB78F7786
S1130EE08FBF9FBF81E895E0918380838CE995E073
S1130EF09383828386EC95E09583848389E497E0E9
S1130F009783868380E793E0918780878EE793E0D9
S1130F109387828780E893E09587848783E893E0CA
S1130F209787868786E893E0918B808B89E893E0A6
S1130F30938B828B8AE793E0958B848B8CE793E089
S1130F40978B868B8BE893E0918F808F8CEA93E06C
S1130F50938F828F8AEB93E0958F848F8CED93E04F
S1130F60978F868F8DE396E091A380A385E796E023
S1130F7093A382A383EE95E095A384A38BEA95E0E3
S1130F8097A386A382E894E091A780A787E894E0DA
S1130F9093A782A786E994E095A784A78AEB94E0B7
S1130FA097A786A78CEB94E091AB80AB86EC94E09A
S1130FB093AB82AB83ED94E095AB84AB8FED94E07F
S1130FC097AB86AB87EF94E091AF80AF8AE095E072
S1130FD093AF82AF85E195E095AF84AF82E495E06D
S1130FE097AF86AFDF01A05CBF4F81EB96E011960F
S1130FF09C938E9312968CEB96E011969C938E9311
S113100012968CED96E011969C938E9312968BE239
S113101097E011969C938E93129683E397E08D93B9
S11310209C93CF01089591B3936091BB92B3936065
S113103092BB843079F018F4813031F01DC08031D6
S113104079F0803499F018C0E1E7F0E090819C7F5A
S1131050908318C0E1E7F0E090819160908312C022
S1131060E1E7F0E09081926090830CC0E1E7F0E06A
S113107090819360908306C0E1E7F0E080818C7FEB
S1131080808381E0282F30E0220F331F032E000CD1
S1131090440B550B60E970E080E090E07DD4209330
S11310A070000895E4E7F0E084EA80838FEF93E032
S11310B09093D5018093D401808188235CF08EEFD6
S11310C093E09093D5018093D4012081222314F0DE
S11310D00197B8F7089584E9809374008FE891E04C
S11310E00197F1F700C00000089580937300E4E7CE
S11310F0F0E084E880838FEF93E09093D5018093B0
S1131100D401808188235CF08EEF93E09093D50125
S11311108093D4012081222314F00197B8F7089515
S113112020E4829FC00111248468E4E7F0E0808316
S11311308FEF93E09093D5018093D401808188232D
S11311405CF08EEF93E09093D5018093D4012081DD
S1131150222314F00197B8F7809173000895E09169
S1131160E001F091E10190819D7F9083672B41F034
S1131170E091E001F091E10190819160908307C0DA
S1131180E091E001F091E10190819E7F9083E091F4
S1131190DD01F091DE019081906F9083E091E00198
S11311A0F091E101908194609083882344F4E0916C
S11311B0E001F091E10190819068908307C0E09193
S11311C0E001F091E10190819F77908386FF08C050
S11311D0E091E001F091E10190819064908307C077
S11311E0E091E001F091E10190819F7B908385FF84
S11311F008C0E091E001F091E10190819062908358
S113120007C0E091E001F091E10190819F7D90831E
S113121084FF08C0E091E001F091E10190819061C8
S1131220908307C0E091E001F091E10190819F7EFD
S11312309083E091E001F091E10190819B7F9083A4
S1131240E091E001F091E10190819460908383FF4B
S113125008C0E091E001F091E101908190689083F1
S113126007C0E091E001F091E10190819F779083C4
S113127082FF08C0E091E001F091E1019081906467
S1131280908307C0E091E001F091E10190819F7BA0
S1131290908381FF08C0E091E001F091E101908129
S11312A09062908307C0E091E001F091E1019081A8
S11312B09F7D908380FF08C0E091E001F091E101FF
S11312C080818061808307C0E091E001F091E101B9
S11312D080818F7E8083E091E001F091E101808143
S11312E08B7F80830895E091DD01F091DE01208100
S11312F02F702083E091E001F091E1012081206FC3
S11313002083E091E001F091E101208122602083BB
S1131310892B41F0E091E001F091E101808181604D
S1131320808307C0E091E001F091E10180818E7F2C
S11313308083E091E001F091E10180818460808309
S1131340E091D601F091D7018081882314F080E0E8
S113135001C080E8908196FF02C0806401C08F7B49
S1131360908195FF02C0806201C08F7D908194FFBF
S113137002C0806101C08F7EE091E001F091E10143
S113138090819B7F9083E091E001F091E101908155
S113139094609083E091D601F091D70190819923D4
S11313A014F4886001C0877F908196FF02C0846036
S11313B001C08B7F908195FF02C0826001C08D7F48
S11313C0908194FF02C0816001C08E7FE091E001B2
S11313D0F091E10190819B7F90830895CF93DF93F7
S11313E080E090E080DFCBE0D0E005C080E090E0DA
S11313F07ADF219711F08823CCF3DF91CF91089500
S113140061E070E0ACDEEACF0895CF9381E090E034
S11314106ADFC82FE3DF8C2FCF910895CF93DF933A
S1131420EC018881882341F0219661E070E097DE29
S1131430D5DF89918111F9CFDF91CF9108950F9371
S11314401F93CF93DF93FC01D62F8081882351F023
S11314508F010F5F1F4F611109C01BC0CF5FDC17E5
S113146030F401C0C0E0CD1760F013C0C1E061E00A
S113147070E075DEB3DFF80181918F018111EECF49
S1131480F2CFCF5F61E070E080E269DEA7DFCD17C5
S1131490C0F3DF91CF911F910F910895CF93C82F7F
S11314A0882339F061E070E080E259DE97DFC150B3
S11314B0C9F7CF910895262F8130910571F030F04E
S11314C08230910589F00397B1F0089560E070E0EF
S11314D080E8820F44DE82CF089560E070E080EC03
S11314E0820F3DDE7BCF089560E070E084E9820FD7
S11314F036DE74CF089560E070E084ED820F2FDE55
S11315006DCF089560E070E081E029DE87EE97E119
S11315100197F1F700C000000895E091DD01F0911A
S1131520DE0187E08083E091E001F091E10188E051
S113153080832FEF83EF91E0215080409040E1F7CA
S113154000C0000060E070E083E309DE20ED2A952E
S1131550F1F760E070E083E302DE80ED8A95F1F755
S113156060E070E08BE2FBDD95EC9A95F1F700000A
S113157060E070E08CE0F3DD25EC2A95F1F70000E3
S113158060E070E081E0EBDD87EE97E10197F1F731
S113159000C0000060E070E086E0E1DD95EC9A9523
S11315A0F1F7000008951F93CF93DF93EC011FB769
S11315B08FB78F778FBF7093DE016093DD015093F7
S11315C0D7014093D6013093E1012093E001FB0160
S11315D01082E091E001F091E1018FEF8083E091CE
S11315E0D601F091D701808188708093DF0195DF67
S11315F01FBF8FEA98E09983888383E799E09B83F0
S11316008A838EEE99E09D838C8380E09AE09F83A9
S11316108E8385E09AE0998788878EE09AE09B879D
S11316208A878FE19AE09D878C878EE49AE09F8772
S11316308E8782E89AE0998B888B8BE59AE09B8B66
S11316408A8B8AE29BE09D8B8C8BCE01DF91CF91BC
S11316501F910895CF93E091D601F091D701C081F5
S1131660C8708091DF018C278C2309F056DFC0936A
S1131670DF01CF910895D7DC15DD82EA36DD80E005
S113168034DD80E032DD27CD0895CF93882321F027
S11316906370C62FC06801C0C0E004DD82EA25DDA6
S11316A08DE023DD8C2F21DD16DDCF9108951F936E
S11316B0CF93DF93F7DC82EA18DD82E016DD0BDDE1
S11316C0F1DC83EA12DD81E02BDD182F81E028DDD7
S11316D0C82F80E025DDD82FFEDC6D2F6F737C2FA3
S11316E07F77812F8F77DF91CF911F9108950F938B
S11316F01F93CF93DF93D6DC82EAF7DC85E0F5DC39
S1131700EADCD0DC83EAF1DC81E00ADDD82F81E079
S113171007DD182F81E004DDC82F80E001DD082FEC
S1131720DADC7C2F7F71602F812F87709D2F9F7350
S1131730DF91CF911F910F910895982F92959F70EB
S1131740990F292F220F220F920F8F70890F08955E
S1131750CF93DF93CDB7DEB7C656D1090FB6F89451
S1131760DEBF0FBECDBF2BE330E049E350E06AE3B8
S113177070E0CE01019617DFAF80B884ED84FE845B
S11317808B889C88CE014796A7DBC9ACDAAC01E014
S113179020E042E065E670E084E690E00E94EA0022
S11317A0A2962FAFA297A3963FAFA397A4964FAF4D
S11317B0A497A5965FAFA597A6966FAFA697A79691
S11317C07FAFA797A3964EAC5FACA397A7962EAC1A
S11317D03FACA7972FEF81EE94E0215080409040DA
S11317E0E1F700C0000080E446DF62E081E04DDF05
S11317F004EE11E00F2EF7EE6F2EF1E07F2EF02DA8
S1131800ED89FE89099560E070E080E090E0F401E4
S1131810099565E080E091E0F701099548DF609360
S1131820E4017093E5018093E60160E070E081E0FB
S113183090E0F4010995F80180817FDF90E0F601E2
S1131840099562E0F70109958AE3F5010995F80124
S1131850818173DF90E0F601099562E0F701099553
S11318608AE3F5010995F801828167DF90E0F601CA
S1131870099562E0F7010995EF85F88987E00995F4
S1131880F801828190E0F601099562E0F70109957B
S11318902EDF6093E7017093E8018093E901909350
S11318A0EA0160E070E082E090E0F4010995F30160
S11318B0838143DF90E0F601099562E0F701099521
S11318C08AE3F5010995F30181818F7136DF90E098
S11318D0F601099562E0F70109958AE3F501099596
S11318E0F30180812ADF90E0F601099562E0F701B7
S11318F0099580E0F2010995F1010995FFEF20E7D0
S113190082E0F15020408040E1F700C0000081E017
S1131910F2010995F1010995FFEF20E782E0F1500A
S113192020408040E1F700C000006ACFDB018F93C4
S11319309F937FD0BF91AF91A29F800D911DA39FD4
S1131940900DB29F900D11240895AA1BBB1B51E169
S113195007C0AA1FBB1FA617B70710F0A61BB70B1B
S1131960881F991F5A95A9F780959095BC01CD01C0
S1131970089597FB072E16F4009406D077FD08D03F
S1131980E4DF07FC05D03EF4909581959F4F0895C0
S1131990709561957F4F0895A1E21A2EAA1BBB1B77
S11319A0FD010DC0AA1FBB1FEE1FFF1FA217B30727
S11319B0E407F50720F0A21BB30BE40BF50B661F3D
S11319C0771F881F991F1A9469F760957095809501
S11319D090959B01AC01BD01CF010895052E97FBA5
S11319E016F400940FD057FD05D0D6DF07FC02D0C3
S11319F046F408C050954095309521953F4F4F4F80
S1131A005F4F089590958095709561957F4F8F4FA6
S1131A109F4F0895A29FB001B39FC001A39F700D73
S1131A20811D1124911DB29F700D811D1124911DE2
S1131A300895F0DFA59F900DB49F900DA49F800D95
S10D1A40911D11240895F894FFCFBE
S1091A4A73746172740064
S9030000FC
