S011000041746D6567613332382E7372656327
S11300000C9434000C9451000C9451000C94510045
S11300100C9451000C9451000C9451000C94510018
S11300200C9451000C9451000C9451000C94510008
S11300300C9451000C9451000C9451000C945100F8
S11300400C9451000C9451000C9417090C944E0913
S11300500C9451000C9432010C9451000C945100F6
S11300600C9451000C94510011241FBECFEFD8E022
S1130070DEBFCDBF11E0A0E0B1E0E6E9F9E102C0E6
S113008005900D92A830B107D9F721E0A8E0B1E0BE
S113009001C01D92A43BB207E1F70E9479090C94B8
S11300A0C90C0C940000882389F0E0917801F09148
S11300B07901208181E090E000907A0102C0880FEC
S11300C0991F0A94E2F7822B808311C0E091780192
S11300D0F0917901208181E090E000907A0102C0E2
S11300E0880F991F0A94E2F7809582238083E09118
S11300F07801F0917901408181E090E09C010090C9
S11301007C0102C0220F331F0A94E2F7242B2083C0
S1130110E0917801F0917901208100907C0102C086
S1130120880F991F0A94E2F78095822380830895AB
S1130130E0917801F0917901408181E090E09C01A7
S113014000907B0102C0220F331F0A94E2F7242B94
S11301502083E0917801F0917901208100907B0166
S113016002C0880F991F0A94E2F780958223808346
S11301700895FF920F931F93CF93DF93F82EC0E05F
S1130180D0E001E010E0C8010C2E02C0880F991FD6
S11301900A94E2F78F210E9453002196C830D105BA
S11301A091F70E949800DF91CF911F910F91FF90DA
S11301B008950F93CF93DF9300D000D000D0CDB734
S11301C0DEB75FB73FB73F773FBF90937701809328
S11301D07601709379016093780140937A012093BA
S11301E07C0100937B01FC01308161E070E0DB0164
S11301F002C0AA0FBB1F2A95E2F7FB0102C0EE0F53
S1130200FF1F0A95E2F7EA2B02C0660F771F4A9593
S1130210E2F76E2B232F262BFC012083E09178013B
S1130220F091790180816095682360835FBF23E545
S113023030E03A83298349EB50E05C834B8368E9DF
S113024070E07E836D833A815C817E8180E090E002
S113025026960FB6F894DEBF0FBECDBFDF91CF91C7
S11302600F9108951F920F920FB60F9211242F939E
S11302703F938F939F93AF93BF93EF93FF9380919B
S1130280780090E090930A0180930901209179000D
S11302908091090190910A01922B90930A01809315
S11302A00901809108018430A0F4809108018F5FD6
S11302B0809308012091090130910A0180910B017A
S11302C090910C01820F931F90930C0180930B016A
S11302D045C0E0910D01F0910E0180910B019091C8
S11302E00C019595879595958795EE0FFF1FEF5D0A
S11302F0FE4F9183808310920C0110920B01109297
S1130300080120910D0130910E0180910F0190910F
S113031010012817390754F480910D0190910E01B2
S1130320019690930E0180930D0104C010920E016A
S113033010920D01ACE7B0E08C91807F8C93E0913A
S11303400D01F0910E01EE0FFF1FEF5EFE4F808155
S113035091812C918F709927822B8C93FF91EF912F
S1130360BF91AF919F918F913F912F910F900FBEAD
S11303700F901F9018956823442321F0861721F0CD
S113038080E00895611180E00895862B0895862306
S1130390089586230895862B8095089586278623BD
S11303A0089560958623089586270895CF92DF9255
S11303B0EF92FF920F931F93FC0100811181228120
S11303C03381FB01C080D180E280F380FC01C082D4
S11303D0D182E282F382FB0100831183228333837F
S11303E01F910F91FF90EF90DF90CF900895FB0144
S11303F02081FC012083222339F0DB011196319600
S11304009D9191939111FCCF0895CF93DF93EC01CB
S11304109881992399F0FE01319620E030E0492F2C
S113042050E04617570731F0DE01A20FB31F9C932B
S11304302F5F3F4F91919111F2CF02C020E030E045
S1130440FE01E20FF31F1082DF91CF9108952F92E6
S11304503F924F925F926F927F928F929F92AF9250
S1130460BF92CF92DF92EF92FF920F931F93CF939D
S1130470DF9300D000D0CDB7DEB72C011B014B01B8
S113048077231CF42FEF821A920A959487941814F8
S113049019040CF451C06AC09601DD209CF1F501E9
S11304A040815181F401608171816417750754F5AD
S11304B08C010A0D1B1DD401BC82AB82BA82A982B5
S11304C0EB81FC817183608311965C934E932E19AA
S11304D03F09C2F0F80140815181E981FA816081CC
S11304E07181080F191FE80FF91FFA83E983EB8163
S11304F0FC81E80FF91FFC83EB83A80FB91F641775
S11305007507F4F2FFEFCF1ADF0A22E0A20EB11C46
S1130510E2E08E0E911CC614D70409F0BDCF47014A
S1130520FF201CF4FFEF8F1A9F0A959487941814E8
S11305301904E4F4740101C07401821493047CF777
S11305406401CE18DF085601AA0CBB1CA40CB51C10
S1130550880C991C840C951C31016E187F08C70106
S1130560880F991F91958195910996CF0F900F90BF
S11305700F900F90DF91CF911F910F91FF90EF900B
S1130580DF90CF90BF90AF909F908F907F906F90AF
S11305905F904F903F902F900895861797070CF423
S11305A0CB0108959B01672B11F408959A01B901B9
S11305B00E945A0CAC01822F932F41155105B1F7BB
S11305C00895FC01908180ED890F8A30D0F4319632
S11305D020E030E0A901440F551F220F331F220FE2
S11305E0331F220F331F420F531F292F30E0205394
S11305F03109240F351F919180ED890F8A3050F312
S113060002C020E030E0C9010895862308950097D0
S113061039F020E030E02F5F3F4F82179307D9F77E
S1130620089587FF08C0919581959109992791951F
S11306308195910908958F779927089591FF08C0AE
S1130640919581959109937091958195910908955A
S113065091700895615021E030E002C0220F331FF1
S11306606A95E2F7A90141505109B9016823792338
S1130670672B29F084239523821B930B08958423ED
S1130680952308959DEC899F912D11249695969517
S11306909695392F330F232F220F220F230F821BFE
S11306A020E1929F800D11240895982F92959F70B8
S11306B0990F292F220F220F920F8F70890F0895FF
S11306C0FC01DB01A358BE4F1C921616170614F545
S11306D0908191110CC017C0919191110DC015C05A
S11306E081932F5F3F4F26173707D4F313C0ADE72D
S11306F0B1E0319620E030E09D932F5F3F4F6217C9
S1130700730751F707C020E030E0F901E358FE4FCA
S113071080E2E6CF8DE791E008954F925F926F9269
S11307207F92AF92BF92CF92DF92EF92FF920F939C
S11307301F93CF93DF93CDB7DEB729013A019B0115
S1130740AC01241935094609570989899A89AB8965
S1130750BC89BC01CD016A197B098C099D090E94E1
S1130760360CA801970124193509460957090E9436
S1130770900CCA01B9016A0D7B1D8C1D9D1DDF9172
S1130780CF911F910F91FF90EF90DF90CF90BF908A
S1130790AF907F906F905F904F90089570E06115D7
S11307A0710599F041E050E021E030E090E0FA0179
S11307B0E89FA001E99F500DF89F500D11242F5F71
S11307C03F4F6217730798F702C041E050E0CA0137
S11307D00895FC012081222341F0319680E090E0CD
S11307E0019621912111FCCF089580E090E00895B5
S11307F0CF93DF93EC010E94E9039C01215031095E
S113080062F0FE01E80FF91F9291903219F09950AD
S1130810923018F421503109B8F7C20FD31F19824E
S1130820C901DF91CF910895CF93DF93EC010E942A
S1130830E9039C01215031091216130684F4DE01E8
S1130840A80FB91FFE0180E090E040815E915193B2
S11308504C9301962150310982179307B4F3DF9129
S1130860CF9108958F929F92AF92BF92CF92DF92D1
S1130870EF92FF920F931F93CF93DF936B017C0151
S1130880DC01CB01FF203CF488279927DC018C197B
S11308909D09AE09BF09BC01CD0110E00F2EFAE09D
S11308A08F2E912CA12CB12CF02D01C0102F01E022
S11308B0010FC12FD0E0C358DE4FA50194010E945F
S11308C0900C605D6883622F732F842F952F16160A
S11308D017061806190654F3FF2044F4E02FF0E03D
S11308E0E358FE4F8DE2808302E0010FE02FF0E039
S11308F0E358FE4F10828DE791E00E9414048DE7C7
S113090091E0DF91CF911F910F91FF90EF90DF90D5
S1130910CF90BF90AF909F908F9008950F931F93A7
S1130920CF93DF93EC01992324F4882799278C1B18
S11309309D0B20E00AE010E001C0232F31E0320FCC
S1130940E22FF0E0E358FE4FB8010E945A0C805D9C
S11309508083862F972F181619067CF3DD2344F421
S1130960E32FF0E0E358FE4F8DE2808332E0320F54
S1130970E32FF0E0E358FE4F10828DE791E00E94F0
S113098014048DE791E0DF91CF911F910F910895A9
S1130990CF93AC01E0E0C1E0CE0FF0E0E358FE4FAE
S11309A09A01ADECBCEC0E94AF0C96958795969598
S11309B08795969587959C01220F331F880F991F61
S11309C0880F991F880F991F820F931F9A01281B64
S11309D0390BC901805D80839A010E94AF0CAC0180
S11309E0569547955695479556954795EC2F41153D
S11309F0510589F6EC2FF0E0E358FE4F10828DE7A5
S1130A0091E00E9414048DE791E0CF910895982F0E
S1130A1092959F70990F292F220F220F920F8F709A
S1130A20890F0895AC019C01ADECBCEC0E94AF0CA5
S1130A30969587959695879596958795BC01660FAB
S1130A40771F9C01220F331F220F331F220F331FE6
S1130A50260F371F421B530B342F20E1829F300D8A
S1130A601124832F0895CF92DF92EF92FF92CF93B8
S1130A70DF93CDB7DEB728970FB6F894DEBF0FBE6D
S1130A80CDBF6B017C0169837A838B839C832D8327
S1130A903E834F835887C216D306E406F5063CF41A
S1130AA0BE016B5F7F4FCE0101960E94D6018D81FE
S1130AB09E81AF81B885892B8A2B8B2B71F4698138
S1130AC07A818B819C8120E030E0A9010E94900C06
S1130AD0611571058105910529F46D817E818F81F0
S1130AE0988505C06D837E838F839887F6CF28967B
S1130AF00FB6F894DEBF0FBECDBFDF91CF91FF904C
S1130B00EF90DF90CF90089590E002C0959587957F
S1130B106A95E2F781700895EDE7F1E090E020E84E
S1130B2050E341E3382F322311F0408301C0508356
S1130B3026959F5F31969830A9F7109285018DE72D
S1130B4091E00895A42FB0E0109761F021E030E027
S1130B50E1E0F0E0EE0FFF1F2F5F3F4FA217B30756
S1130B60C8F702C0E1E0F0E031976E237F238E23C3
S1130B709F23862797276823792302C0660F771F50
S1130B804A95E2F7862B972B0895FC019FB78FB700
S1130B908F778FBF9FBF8EEC93E09183808389EE24
S1130BA093E09383828384E194E09583848382EA4F
S1130BB095E0978386838BEB91E09187808789EC1E
S1130BC091E0938782878BEC91E0958784878EEC04
S1130BD091E09787868781ED91E0918B808B84EDFE
S1130BE091E0938B828B85EC91E0958B848B87ECE1
S1130BF091E0978B868B86ED91E0918F808F87EFC4
S1130C0091E0938F828F85E092E0958F848F87E2C5
S1130C1092E0978F868F8EE894E091A380A388EC6E
S1130C2094E093A382A382E394E095A384A388EF42
S1130C3093E097A386A38DEC92E091A780A782ED21
S1130C4092E093A782A781EE92E095A784A785E01E
S1130C5093E097A786A787E093E091AB80AB81E10F
S1130C6093E093AB82AB8EE193E095AB84AB8AE2E5
S1130C7093E097AB86AB82E493E091AF80AF85E5D8
S1130C8093E093AF82AF80E693E095AF84AF8DE8B5
S1130C9093E097AF86AFDF01A05CBF4F87E095E09C
S1130CA011969C938E93129682E195E011969C93F3
S1130CB08E93129683E395E011969C938E931296ED
S1130CC084E895E011969C938E9312968CE895E0B7
S1130CD08D939C93CF010895E091B001F091B101FF
S1130CE090819D7F9083672B41F0E091B001F0915A
S1130CF0B10190819160908307C0E091B001F091BF
S1130D00B10190819E7F9083E091AD01F091AE019D
S1130D109081906F9083E091B001F091B101908146
S1130D2094609083882344F4E091B001F091B10180
S1130D3090819068908307C0E091B001F091B10177
S1130D4090819F77908386FF08C0E091B001F09175
S1130D50B10190819064908307C0E091B001F0915B
S1130D60B10190819F7B908385FF08C0E091B00121
S1130D70F091B10190819062908307C0E091B0013D
S1130D80F091B10190819F7D908384FF08C0E09130
S1130D90B001F091B10190819061908307C0E0911E
S1130DA0B001F091B10190819F7E9083E091B001F8
S1130DB0F091B10190819B7F9083E091B001F0911B
S1130DC0B10190819460908383FF08C0E091B001E9
S1130DD0F091B10190819068908307C0E091B001D7
S1130DE0F091B10190819F77908382FF08C0E091D8
S1130DF0B001F091B10190819064908307C0E091BB
S1130E00B001F091B10190819F7B908381FF08C074
S1130E10E091B001F091B10190819062908307C09C
S1130E20E091B001F091B10190819F7D908380FFAA
S1130E3008C0E091B001F091B101808180618083AC
S1130E4007C0E091B001F091B10180818F7E808371
S1130E50E091B001F091B10180818B7F808308958E
S1130E60E091AD01F091AE0120812F702083E091DB
S1130E70B001F091B1012081206F2083E091B00195
S1130E80F091B101208122602083892B41F0E0910F
S1130E90B001F091B10180818160808307C0E0914D
S1130EA0B001F091B10180818E7F8083E091B00127
S1130EB0F091B101808184608083E091A601F0917A
S1130EC0A7018081882314F080E001C080E890812C
S1130ED096FF02C0806401C08F7B908195FF02C0A1
S1130EE0806201C08F7D908194FF02C0806101C047
S1130EF08F7EE091B001F091B10190819B7F90834E
S1130F00E091B001F091B101908194609083E091FF
S1130F10A601F091A7019081992314F4886001C07F
S1130F20877F908196FF02C0846001C08B7F90818F
S1130F3095FF02C0826001C08D7F908194FF02C042
S1130F40816001C08E7FE091B001F091B101908188
S1130F509B7F90830895CF93DF9380E090E00E947D
S1130F603007CBE0D0E006C080E090E00E9430077C
S1130F70219711F08823C4F3DF91CF91089561E0A4
S1130F8070E00E946C060E94AB070895CF9381E045
S1130F9090E00E943007C82F0E94AB078C2FCF919E
S1130FA00895CF93DF93EC018881882351F0219633
S1130FB061E070E00E946C060E94AB078991811188
S1130FC0F7CFDF91CF9108950F931F93CF93DF93C2
S1130FD0FC01D62F8081882351F08F010F5F1F4FB2
S1130FE0611109C01FC0CF5FDC1730F401C0C0E03D
S1130FF0CD1770F017C0C1E061E070E00E946C068C
S11310000E94AB07F80181918F018111ECCFF0CFE1
S1131010CF5F61E070E080E20E946C060E94AB0743
S1131020CD17B0F3DF91CF911F910F910895CF9316
S1131030C82F882349F061E070E080E20E946C06CA
S11310400E94AB07C150B9F7CF910895262F813084
S1131050910581F030F082309105A9F00397E1F019
S1131060089560E070E080E8820F0E946C060E94A0
S1131070AB07089560E070E080EC820F0E946C067C
S11310800E94AB07089560E070E084E9820F0E943B
S11310906C060E94AB07089560E070E084ED820F57
S11310A00E946C060E94AB07089560E070E081E046
S11310B00E946C0687EE97E10197F1F700C00000EB
S11310C00895E091AD01F091AE0187E08083E09155
S11310D0B001F091B10188E080832FEF83EF91E0BC
S11310E0215080409040E1F700C0000060E070E0D3
S11310F083E30E946C0620ED2A95F1F760E070E02E
S113110083E30E946C0680ED8A95F1F760E070E05D
S11311108BE20E946C0695EC9A95F1F7000060E072
S113112070E08CE00E946C0625EC2A95F1F7000033
S113113060E070E081E00E946C0687EE97E1019721
S1131140F1F700C0000060E070E086E00E946C06E9
S113115095EC9A95F1F7000008951F93CF93DF93D0
S1131160EC011FB78FB78F778FBF7093AE01609379
S1131170AD015093A7014093A6013093B101209390
S1131180B001FB011082E091B001F091B1018FEF49
S11311908083E091A601F091A701808188708093FB
S11311A0AF010E9461081FBF8CE696E09983888393
S11311B080E397E09B838A838BEA97E09D838C830B
S11311C08FEB97E09F838E8386EC97E099878887DF
S11311D081ED97E09B878A8784EE97E09D878C87D3
S11311E087E198E09F878E8785E598E0998B888BC7
S11311F086E298E09B8B8A8B85E099E09D8B8C8BB3
S1131200CE01DF91CF911F910895CF93E091A60174
S1131210F091A701C081C8708091AF018C278C2305
S113122011F00E946108C093AF01CF9108951F92FD
S11312300F920FB60F9211248F939F93EF93FF9306
S11312408091C0009091C100887180933101E09138
S11312503301EF5FEF7180913201E81304C082E043
S11312608093310112C09091C600E09333018091C4
S11312703101882331F0F0E0EA5CFE4F88E5808399
S113128004C0F0E0EA5CFE4F9083FF91EF919F91E0
S11312908F910F900FBE0F901F9018951F920F9271
S11312A00FB60F9211248F939F93EF93FF93E091C6
S11312B03401809134018F5F8F7180933401F0E0A9
S11312C0EA5AFE4F80818093C60090913401809148
S11312D03501981305C0E1ECF0E080818F7D8083B7
S11312E0FF91EF919F918F910F900FBE0F901F90E0
S11312F01895CF93DF93CDB7DEB7CD56D1090FB68E
S1131300F894DEBF0FBECDBFCE0101960E94C50585
S11313102BE230E049E250E06AE270E0CE01855B06
S11313209F4F0E94AD086F968EAD9FAD6F97AE969E
S11313309FAF8EAFAE9700E021E043E065E270E03E
S113134084E290E00E94D900A2962FAFA297A396C0
S11313503FAFA397A4964FAFA497A5965FAFA59769
S1131360A6966FAFA697A7967FAFA797A396EEAD65
S1131370FFADA397AA96FFAFEEAFAA97A5960EADC1
S11313801FADA597A7968EAD9FADA797AC969FAFBF
S11313908EAFAC9788248394912C0F2EF3E06F2E9C
S11313A0712CF02D0F2EF7E04F2E512CF02D0F2E17
S11313B0FFE02F2E312CF02D60E070E080E090E013
S11313C0AE96EEADFFADAE9709956996EEADFFAD65
S11313D0699767E080E091E0099560E070E0C401FE
S11313E0AE96EEADFFADAE9709956796EEACFFAC49
S11313F06797EDA1FEA160EF7FEF8FEF9FE709955F
S1131400F70109956894FF24F3F881E0AA96EEADFC
S1131410FFADAA970995AC96EEADFFADAC970995D3
S1131420FFEF21EE84E0F15020408040E1F700C05E
S11314300000FA94F110E9CF6894FF24F3F880E0F7
S1131440AA96EEADFFADAA970995AC96EEADFFADA9
S1131450AC970995FFEF21EE84E0F15020408040E5
S1131460E1F700C00000FA94F110E9CF6894FF247A
S1131470F3F881E0AA96EEADFFADAA970995AC9674
S1131480EEADFFADAC970995FFEF21EE84E0F1508E
S113149020408040E1F700C0000080E0AA96EEAD55
S11314A0FFADAA970995AC96EEADFFADAC97099543
S11314B0FFEF21EE84E0F15020408040E1F700C0CE
S11314C00000FA94F110D5CF0F2EF7E0FF2EF02D87
S11314D081E0AA96EEADFFADAA970995AC96EEAD64
S11314E0FFADAC970995FFEF21EE84E0F150204069
S11314F08040E1F700C00000FA94F110E9CF0F2E0C
S1131500F7E0FF2EF02D80E0AA96EEADFFADAA978E
S11315100995AC96EEADFFADAC970995FFEF21EEC2
S113152084E0F15020408040E1F700C00000FA94CC
S1131530F110E9CF0F2EF7E0FF2EF02D81E0AA96EF
S1131540EEADFFADAA970995AC96EEADFFADAC97A5
S11315500995FFEF21EE84E0F15020408040E1F74F
S113156000C0000080E0AA96EEADFFADAA970995F1
S1131570AC96EEADFFADAC970995FFEF21EE84E09C
S1131580F15020408040E1F700C00000FA94F110CF
S1131590D5CFE12CF12C882D0E2C01C0880F0A9494
S11315A0EAF7F8010995FFEF21EE84E0F1502040BD
S11315B08040E1F700C000009FEFE91AF90AE8E073
S11315C0EE16F10441F70F2EFAE0DF2EF02D3AC0AB
S11315D0C4010E2C02C0880F991F0A94E2F780956B
S11315E0F8010995FFEF20E782E0F15020408040A8
S11315F0E1F700C000009FEFE91AF90AE8E0EE16EF
S1131600F10431F70F2EF6E0EF2EF12CF02DC4018A
S11316100E2C02C0880F991F0A94E2F78095F801F6
S11316200995FFEF20E782E0F15020408040E1F788
S113163000C0000091E0E91AF10849F7DA94DD20CE
S113164009F43DC0E12CF12CC3CFC3010C2C02C022
S1131650880F991F0A94E2F78095F8010995FFEF26
S113166020E782E0F15020408040E1F700C0000014
S11316709FEFC91AD90AE8E0CE16D10431F70F2E2C
S1131680F6E0CF2ED12CF02DC3010C2C02C0880F14
S1131690991F0A94E2F78095F8010995FFEF20E776
S11316A082E0F15020408040E1F700C0000091E06A
S11316B0C91AD10849F7BA94B11005C040C00F2E19
S11316C0FAE0BF2EF02D6701C0CFC2010E2C02C07C
S11316D0880F991F0A94E2F78095F8010995FFEFA6
S11316E020E782E0F15020408040E1F700C0000094
S11316F09FEFE91AF90AE8E0EE16F10431F70F2E2C
S1131700F6E0EF2EF12CF02DC2010E2C02C0880F52
S1131710991F0A94E2F78095F8010995FFEF20E7F5
S113172082E0F15020408040E1F700C0000091E0E9
S1131730E91AF10849F7BA94B11005C046C00F2E52
S1131740FAE0BF2EF02D7601C0CFC1010C2C02C0EF
S1131750880F991F0A94E2F78095F8010995FFEF25
S113176020E782E0F15020408040E1F700C0000013
S11317709FEFC91AD90AE8E0CE16D10431F70F2E2B
S1131780F6E0AF2EB12CF02DC1010A2C02C0880F57
S1131790991F0A94E2F78095F8010995FFEF20E775
S11317A082E0F15020408040E1F700C0000091E069
S11317B0A91AB10849F7A896EFADA897E150A896E1
S11317C0EFAFA897E11105C046C0FAE0A896FFAFB5
S11317D0A8976701BACFC6010E2C02C0880F991FC3
S11317E00A94E2F78095F8010995FFEF20E782E07B
S11317F0F15020408040E1F700C000009FEFE91A5B
S1131800F90AE8E0EE16F10431F70F2EF6E0EF2EB8
S1131810F12CF02DC6010E2C02C0880F991F0A94DA
S1131820E2F78095F8010995FFEF20E782E0F15097
S113183020408040E1F700C0000091E0E91AF1087F
S113184049F7A896EFADA897E150A896EFAFA897EF
S1131850E1110AC0B1CDF4E1A896FFAFA8970F2E0D
S1131860F5E0CF2ED12CF02D7501B5CFDB018F9390
S11318709F930E94BE0CBF91AF91A29F800D911DBA
S1131880A39F900DB29F900D11240895AA1BBB1B1A
S113189051E107C0AA1FBB1FA617B70710F0A61B6C
S11318A0B70B881F991F5A95A9F780959095BC018D
S11318B0CD01089597FB072E16F4009407D077FD09
S11318C009D00E94460C07FC05D03EF49095819502
S11318D09F4F0895709561957F4F0895A1E21A2E48
S11318E0AA1BBB1BFD010DC0AA1FBB1FEE1FFF1FC0
S11318F0A217B307E407F50720F0A21BB30BE40B10
S1131900F50B661F771F881F991F1A9469F7609556
S11319107095809590959B01AC01BD01CF01089510
S1131920052E97FB1EF400940E94A70C57FD07D0C8
S11319300E946E0C07FC03D04EF40C94A70C509537
S11319404095309521953F4F4F4F5F4F08959095A7
S11319508095709561957F4F8F4F9F4F0895A29FFB
S1131960B001B39FC001A39F700D811D1124911D6F
S1131970B29F700D811D1124911D08950E94AF0C1A
S1131980A59F900DB49F900DA49F800D911D1124CF
S10919900895F894FFCF56
S10B199657656C636F6D650079
S9030000FC
