S011000041746D6567613332382E7372656327
S11300000C9434000C9451000C9451000C94510045
S11300100C9451000C9451000C9451000C94510018
S11300200C9451000C9451000C9451000C94510008
S11300300C9451000C9451000C9451000C945100F8
S11300400C9451000C9451000C946C060C94A3066F
S11300500C9451000C9432010C9451000C945100F6
S11300600C9451000C94510011241FBECFEFD8E022
S1130070DEBFCDBF11E0A0E0B1E0E6EEF3E102C0E7
S113008005900D92A030B107D9F721E0A0E0B1E0CE
S113009001C01D92AE39B207E1F70E94CE060C945E
S11300A0F1090C940000882389F0E0917001F0912B
S11300B07101208181E090E00090720102C0880FFC
S11300C0991F0A94E2F7822B808311C0E09170019A
S11300D0F0917101208181E090E00090720102C0F2
S11300E0880F991F0A94E2F7809582238083E09118
S11300F07001F0917101408181E090E09C010090D9
S1130100740102C0220F331F0A94E2F7242B2083C8
S1130110E0917001F091710120810090740102C09E
S1130120880F991F0A94E2F78095822380830895AB
S1130130E0917001F0917101408181E090E09C01B7
S11301400090730102C0220F331F0A94E2F7242B9C
S11301502083E0917001F09171012081009073017E
S113016002C0880F991F0A94E2F780958223808346
S11301700895FF920F931F93CF93DF93F82EC0E05F
S1130180D0E001E010E0C8010C2E02C0880F991FD6
S11301900A94E2F78F210E9453002196C830D105BA
S11301A091F70E949800DF91CF911F910F91FF90DA
S11301B008950F93CF93DF9300D000D000D0CDB734
S11301C0DEB75FB73FB73F773FBF90936F01809330
S11301D06E017093710160937001409372012093DA
S11301E0740100937301FC01308161E070E0DB0174
S11301F002C0AA0FBB1F2A95E2F7FB0102C0EE0F53
S1130200FF1F0A95E2F7EA2B02C0660F771F4A9593
S1130210E2F76E2B232F262BFC012083E091700143
S1130220F091710180816095682360835FBF23E54D
S113023030E03A83298349EB50E05C834B8368E9DF
S113024070E07E836D833A815C817E8180E090E002
S113025026960FB6F894DEBF0FBECDBFDF91CF91C7
S11302600F9108951F920F920FB60F9211242F939E
S11302703F938F939F93AF93BF93EF93FF9380919B
S1130280780090E09093020180930101209179001D
S11302908091010190910201922B9093020180932D
S11302A00101809100018430A0F4809100018F5FEE
S11302B0809300012091010130910201809103019A
S11302C090910401820F931F909304018093030182
S11302D045C0E0910501F0910601809103019091E0
S11302E004019595879595958795EE0FFF1FE75E19
S11302F0FE4F9183808310920401109203011092A7
S1130300000120910501309106018091070190912F
S113031008012817390754F48091050190910601CA
S11303200196909306018093050104C01092060182
S113033010920501ACE7B0E08C91807F8C93E09142
S11303400501F0910601EE0FFF1FE75FFE4F80816C
S113035091812C918F709927822B8C93FF91EF912F
S1130360BF91AF919F918F913F912F910F900FBEAD
S11303700F901F9018956823442321F0861721F0CD
S113038080E00895611180E00895862B0895862306
S1130390089586230895862B8095089586278623BD
S11303A0089560958623089586270895CF92DF9255
S11303B0EF92FF920F931F93FC0100811181228120
S11303C03381FB01C080D180E280F380FC01C082D4
S11303D0D182E282F382FB0100831183228333837F
S11303E01F910F91FF90EF90DF90CF900895FB0144
S11303F02081FC012083222339F0DB011196319600
S11304009D9191939111FCCF0895CF93DF93EC01CB
S11304109881992399F0FE01319620E030E0492F2C
S113042050E04617570731F0DE01A20FB31F9C932B
S11304302F5F3F4F91919111F2CF02C020E030E045
S1130440FE01E20FF31F1082DF91CF9108952F92E6
S11304503F924F925F926F927F928F929F92AF9250
S1130460BF92CF92DF92EF92FF920F931F93CF939D
S1130470DF9300D000D0CDB7DEB72C011B014B01B8
S113048077231CF42FEF821A920A959487941814F8
S113049019040CF451C06AC09601DD209CF1F501E9
S11304A040815181F401608171816417750754F5AD
S11304B08C010A0D1B1DD401BC82AB82BA82A982B5
S11304C0EB81FC817183608311965C934E932E19AA
S11304D03F09C2F0F80140815181E981FA816081CC
S11304E07181080F191FE80FF91FFA83E983EB8163
S11304F0FC81E80FF91FFC83EB83A80FB91F641775
S11305007507F4F2FFEFCF1ADF0A22E0A20EB11C46
S1130510E2E08E0E911CC614D70409F0BDCF47014A
S1130520FF201CF4FFEF8F1A9F0A959487941814E8
S11305301904E4F4740101C07401821493047CF777
S11305406401CE18DF085601AA0CBB1CA40CB51C10
S1130550880C991C840C951C31016E187F08C70106
S1130560880F991F91958195910996CF0F900F90BF
S11305700F900F90DF91CF911F910F91FF90EF900B
S1130580DF90CF90BF90AF909F908F907F906F90AF
S11305905F904F903F902F900895861797070CF423
S11305A0CB0108959B01672B11F408959A01B901B9
S11305B00E948209AC01822F932F41155105B1F796
S11305C00895FC01908180ED890F8A30D0F4319632
S11305D020E030E0A901440F551F220F331F220FE2
S11305E0331F220F331F420F531F292F30E0205394
S11305F03109240F351F919180ED890F8A3050F312
S113060002C020E030E0C9010895862308950097D0
S113061039F020E030E02F5F3F4F82179307D9F77E
S1130620089587FF08C0919581959109992791951F
S11306308195910908958F779927089591FF08C0AE
S1130640919581959109937091958195910908955A
S113065091700895615021E030E002C0220F331FF1
S11306606A95E2F7A90141505109B9016823792338
S1130670672B29F084239523821B930B08958423ED
S1130680952308959DEC899F912D11249695969517
S11306909695392F330F232F220F220F230F821BFE
S11306A020E1929F800D11240895982F92959F70B8
S11306B0990F292F220F220F920F8F70890F0895FF
S11306C0FC01DB01AB58BE4F1C921616170614F53D
S11306D0908191110CC017C0919191110DC015C05A
S11306E081932F5F3F4F26173707D4F313C0A5E735
S11306F0B1E0319620E030E09D932F5F3F4F6217C9
S1130700730751F707C020E030E0F901EB58FE4FC2
S113071080E2E6CF85E791E008954F925F926F9271
S11307207F92AF92BF92CF92DF92EF92FF920F939C
S11307301F93CF93DF93CDB7DEB729013A019B0115
S1130740AC01241935094609570989899A89AB8965
S1130750BC89BC01CD016A197B098C099D090E94E1
S11307605E09A801970124193509460957090E9411
S1130770B809CA01B9016A0D7B1D8C1D9D1DDF914D
S1130780CF911F910F91FF90EF90DF90CF90BF908A
S1130790AF907F906F905F904F90089570E06115D7
S11307A0710599F041E050E021E030E090E0FA0179
S11307B0E89FA001E99F500DF89F500D11242F5F71
S11307C03F4F6217730798F702C041E050E0CA0137
S11307D00895FC012081222341F0319680E090E0CD
S11307E0019621912111FCCF089580E090E00895B5
S11307F0CF93DF93EC010E94E9039C01215031095E
S113080062F0FE01E80FF91F9291903219F09950AD
S1130810923018F421503109B8F7C20FD31F19824E
S1130820C901DF91CF910895CF93DF93EC010E942A
S1130830E9039C01215031091216130684F4DE01E8
S1130840A80FB91FFE0180E090E040815E915193B2
S11308504C9301962150310982179307B4F3DF9129
S1130860CF9108958F929F92AF92BF92CF92DF92D1
S1130870EF92FF920F931F93CF93DF936B017C0151
S1130880DC01CB01FF203CF488279927DC018C197B
S11308909D09AE09BF09BC01CD0110E00F2EFAE09D
S11308A08F2E912CA12CB12CF02D01C0102F01E022
S11308B0010FC12FD0E0CB58DE4FA50194010E9457
S11308C0B809605D6883622F732F842F952F1616E5
S11308D017061806190654F3FF2044F4E02FF0E03D
S11308E0EB58FE4F8DE2808302E0010FE02FF0E031
S11308F0EB58FE4F108285E791E00E94140485E7CF
S113090091E0DF91CF911F910F91FF90EF90DF90D5
S1130910CF90BF90AF909F908F9008950F931F93A7
S1130920CF93DF93EC01992324F4882799278C1B18
S11309309D0B20E00AE010E001C0232F31E0320FCC
S1130940E22FF0E0EB58FE4FB8010E948209805D6F
S11309508083862F972F181619067CF3DD2344F421
S1130960E32FF0E0EB58FE4F8DE2808332E0320F4C
S1130970E32FF0E0EB58FE4F108285E791E00E94F0
S1130980140485E791E0DF91CF911F910F910895B1
S1130990CF93AC01E0E0C1E0CE0FF0E0EB58FE4FA6
S11309A09A01ADECBCEC0E94D70996958795969573
S11309B08795969587959C01220F331F880F991F61
S11309C0880F991F880F991F820F931F9A01281B64
S11309D0390BC901805D80839A010E94D709AC015B
S11309E0569547955695479556954795EC2F41153D
S11309F0510589F6EC2FF0E0EB58FE4F108285E7A5
S1130A0091E00E94140485E791E0CF910895982F16
S1130A1092959F70990F292F220F220F920F8F709A
S1130A20890F0895AC019C01ADECBCEC0E94D70980
S1130A30969587959695879596958795BC01660FAB
S1130A40771F9C01220F331F220F331F220F331FE6
S1130A50260F371F421B530B342F20E1829F300D8A
S1130A601124832F0895CF92DF92EF92FF92CF93B8
S1130A70DF93CDB7DEB728970FB6F894DEBF0FBE6D
S1130A80CDBF6B017C0169837A838B839C832D8327
S1130A903E834F835887C216D306E406F5063CF41A
S1130AA0BE016B5F7F4FCE0101960E94D6018D81FE
S1130AB09E81AF81B885892B8A2B8B2B71F4698138
S1130AC07A818B819C8120E030E0A9010E94B809E1
S1130AD0611571058105910529F46D817E818F81F0
S1130AE0988505C06D837E838F839887F6CF28967B
S1130AF00FB6F894DEBF0FBECDBFDF91CF91FF904C
S1130B00EF90DF90CF90089590E002C0959587957F
S1130B106A95E2F781700895E5E7F1E090E020E856
S1130B2050E341E3382F322311F0408301C0508356
S1130B3026959F5F31969830A9F710927D0185E73D
S1130B4091E00895A42FB0E0109761F021E030E027
S1130B50E1E0F0E0EE0FFF1F2F5F3F4FA217B30756
S1130B60C8F702C0E1E0F0E031976E237F238E23C3
S1130B709F23862797276823792302C0660F771F50
S1130B804A95E2F7862B972B0895FC019FB78FB700
S1130B908F778FBF9FBF8EEC93E09183808389EE24
S1130BA093E09383828384E194E09583848382EA4F
S1130BB095E0978386838BEB91E09187808789EC1E
S1130BC091E0938782878BEC91E0958784878EEC04
S1130BD091E09787868781ED91E0918B808B84EDFE
S1130BE091E0938B828B85EC91E0958B848B87ECE1
S1130BF091E0978B868B86ED91E0918F808F87EFC4
S1130C0091E0938F828F85E092E0958F848F87E2C5
S1130C1092E0978F868F8EE894E091A380A388EC6E
S1130C2094E093A382A382E394E095A384A388EF42
S1130C3093E097A386A38DEC92E091A780A782ED21
S1130C4092E093A782A781EE92E095A784A785E01E
S1130C5093E097A786A787E093E091AB80AB81E10F
S1130C6093E093AB82AB8EE193E095AB84AB8AE2E5
S1130C7093E097AB86AB82E493E091AF80AF85E5D8
S1130C8093E093AF82AF80E693E095AF84AF8DE8B5
S1130C9093E097AF86AFDF01A05CBF4F87E095E09C
S1130CA011969C938E93129682E195E011969C93F3
S1130CB08E93129683E395E011969C938E931296ED
S1130CC084E895E011969C938E9312968CE895E0B7
S1130CD08D939C93CF0108951F920F920FB60F929C
S1130CE011248F939F93EF93FF938091C000909171
S1130CF0C100887180932901E0912B01EF5FEF71AE
S1130D0080912A01E81304C082E08093290112C073
S1130D109091C600E0932B0180912901882331F042
S1130D20F0E0E25DFE4F88E5808304C0F0E0E25D20
S1130D30FE4F9083FF91EF919F918F910F900FBE83
S1130D400F901F9018951F920F920FB60F921124B7
S1130D508F939F93EF93FF93E0912C0180912C014B
S1130D608F5F8F7180932C01F0E0E25BFE4F8081F6
S1130D708093C60090912C0180912D01981305C099
S1130D80E1ECF0E080818F7D8083FF91EF919F9172
S1130D908F910F900FBE0F901F901895CF93DF93F4
S1130DA0CDB7DEB7C555D1090FB6F894DEBF0FBE77
S1130DB0CDBFCE0101960E94C50505E027E044E0C1
S1130DC06BE270E08AE290E00E94D9002C962FAF8B
S1130DD02C972D963FAF2D972E964FAF2E972F968B
S1130DE05FAF2F9760966FAF609761967FAF619703
S1130DF02D968EAD9FAD2D9764969FAF8EAF649761
S1130E002F960EAD1FAD2F976196EEADFFAD619796
S1130E106696FFAFEEAF669788248394912C0F2ECD
S1130E20F3E06F2E712CF02D0F2EF7E04F2E512C86
S1130E30F02D0F2EFFE02F2E312CF02D0F2EF5E08C
S1130E40CF2ED12CF02D6894FF24F3F881E0649622
S1130E50EEADFFAD649709956696EEADFFAD66976E
S1130E600995FFEF21EE84E0F15020408040E1F746
S1130E7000C00000FA94F110E9CF6894FF24F3F85D
S1130E8080E06496EEADFFAD649709956696EEAD8D
S1130E90FFAD66970995FFEF21EE84E0F150204005
S1130EA08040E1F700C00000FA94F110E9CF6894A3
S1130EB0FF24F3F881E06496EEADFFAD64970995E5
S1130EC06696EEADFFAD66970995FFEF21EE84E0DF
S1130ED0F15020408040E1F700C0000080E06496BB
S1130EE0EEADFFAD649709956696EEADFFAD6697DE
S1130EF00995FFEF21EE84E0F15020408040E1F7B6
S1130F0000C00000FA94F110D5CF0F2EF7E0FF2EA9
S1130F10F02D81E06496EEADFFAD64970995669679
S1130F20EEADFFAD66970995FFEF21EE84E0F15039
S1130F3020408040E1F700C00000FA94F110E9CFAE
S1130F400F2EF7E0FF2EF02D80E06496EEADFFAD9E
S1130F50649709956696EEADFFAD66970995FFEF28
S1130F6021EE84E0F15020408040E1F700C0000011
S1130F70FA94F110E9CF0F2EF7E0FF2EF02D81E067
S1130F806496EEADFFAD649709956696EEADFFAD40
S1130F9066970995FFEF21EE84E0F15020408040F0
S1130FA0E1F700C0000080E06496EEADFFAD649709
S1130FB009956696EEADFFAD66970995FFEF21EEB4
S1130FC084E0F15020408040E1F700C00000FA9432
S1130FD0F110D5CFE12CF12C882D0E2C01C0880FF7
S1130FE00A94EAF7F8010995FFEF21EE84E0F15045
S1130FF020408040E1F700C000009FEFE91AF90AA1
S1131000E8E0EE16F10441F70F2EFAE0BF2EF02DC2
S11310103AC0C4010E2C02C0880F991F0A94E2F74B
S11310208095F8010995FFEF20E782E0F150204018
S11310308040E1F700C000009FEFE91AF90AE8E0F8
S1131040EE16F10431F70F2EF6E0EF2EF12CF02D11
S1131050C4010E2C02C0880F991F0A94E2F78095F0
S1131060F8010995FFEF20E782E0F150204080402D
S1131070E1F700C0000091E0E91AF10849F7BA94D9
S1131080BB2009F443C0E12CF12CC3CFC3010A2CCB
S113109002C0880F991F0A94E2F78095F801099518
S11310A0FFEF20E782E0F15020408040E1F700C0EC
S11310B000009FEFA91AB90AE8E0AE16B10431F7AF
S11310C00F2EF6E0AF2EB12CF02DC3010A2C02C076
S11310D0880F991F0A94E2F78095F8010995FFEFAC
S11310E020E782E0F15020408040E1F700C000009A
S11310F091E0A91AB10849F76296EFAD6297E15001
S11311006296EFAF6297E11105C046C0FAE06296BD
S1131110FFAF62975701BACFC2010E2C02C0880FED
S1131120991F0A94E2F78095F8010995FFEF20E7EB
S113113082E0F15020408040E1F700C000009FEFC2
S1131140E91AF90AE8E0EE16F10431F70F2EF6E099
S1131150EF2EF12CF02DC2010E2C02C0880F991F26
S11311600A94E2F78095F8010995FFEF20E782E001
S1131170F15020408040E1F700C0000091E0E91AFE
S1131180F10849F76296EFAD6297E1506296EFAFCE
S11311906297E11105C046C0FAE06296FFAF62971C
S11311A07501BACFC1010A2C02C0880F991F0A9495
S11311B0E2F78095F8010995FFEF20E782E0F1500E
S11311C020408040E1F700C000009FEFA91AB90A4F
S11311D0E8E0AE16B10431F70F2EF6E0AF2EB12CD5
S11311E0F02DC1010A2C02C0880F991F0A94E2F75E
S11311F08095F8010995FFEF20E782E0F150204047
S11312008040E1F700C0000091E0A91AB10849F755
S11312106296EFAD6297E1506296EFAF6297E1118B
S113122005C046C0FAE06296FFAF62975701BACF95
S1131230C6010E2C02C0880F991F0A94E2F780950C
S1131240F8010995FFEF20E782E0F150204080404B
S1131250E1F700C000009FEFE91AF90AE8E0EE1692
S1131260F10431F70F2EF6E0EF2EF12CF02DC6012C
S11312700E2C02C0880F991F0A94E2F78095F8019A
S11312800995FFEF20E782E0F15020408040E1F72C
S113129000C0000091E0E91AF10849F76296EFAD49
S11312A06297E1506296EFAF6297E11105C0CBCD32
S11312B0F4E16296FFAF62977501BACFDB018F93B9
S11312C09F930E94E609BF91AF91A29F800D911D4B
S11312D0A39F900DB29F900D11240895AA1BBB1BD0
S11312E051E107C0AA1FBB1FA617B70710F0A61B22
S11312F0B70B881F991F5A95A9F780959095BC0143
S1131300CD01089597FB072E16F4009407D077FDBE
S113131009D00E946E0907FC05D03EF49095819592
S11313209F4F0895709561957F4F0895A1E21A2EFD
S1131330AA1BBB1BFD010DC0AA1FBB1FEE1FFF1F75
S1131340A217B307E407F50720F0A21BB30BE40BC5
S1131350F50B661F771F881F991F1A9469F760950C
S11313607095809590959B01AC01BD01CF010895C6
S1131370052E97FB1EF400940E94CF0957FD07D059
S11313800E94960907FC03D04EF40C94CF095095A3
S11313904095309521953F4F4F4F5F4F089590955D
S11313A08095709561957F4F8F4F9F4F0895A29FB1
S11313B0B001B39FC001A39F700D811D1124911D25
S11313C0B29F700D811D1124911D08950E94D709AB
S11313D0A59F900DB49F900DA49F800D911D112485
S10913E00895F894FFCF0C
S9030000FC
