S011000041746D6567613332342E737265632B
S11300000C9456000C9473000C9473000C947300BD
S11300100C9473000C9473000C9473000C94730090
S11300200C9473000C9473000C9473000C94730080
S11300300C9473000C9484110C9473000C9473004E
S11300400C9473000C9473000C9473000C94730060
S11300500C9473000C9473000C9473000C94730050
S11300600C9475000C9473000C9473000C9473003E
S11300700C9473000C9473000C94730084028A0231
S1130080900296029C02A702B202BD02C302D302EE
S1130090DE02EE020E03F402FF021D032303290312
S11300A02F034C0335033B034103470311241FBEB5
S11300B0CFEFD8E0DEBFCDBF11E0A0E0B1E0EEEAC3
S11300C0F5E202C005900D92A633B107D9F721E0FD
S11300D0A6E3B1E001C01D92AD3AB207E1F70E9478
S11300E0C60C0C94D5120C9400001F920F920FB6FC
S11300F00F9211242F933F938F939F93AF93BF93AA
S1130100EF93FF938091780090E09093690180933E
S11301106801209179008091680190916901922B86
S11301209093690180936801809167018430A0F401
S1130130809167018F5F80936701209168013091FE
S113014069018091630190916401820F931F9093E0
S113015064018093630145C0E0916101F091620103
S11301608091630190916401959587959595879504
S1130170EE0FFF1FEA5BFE4F9183808310926401B0
S11301801092630110926701209161013091620124
S113019080916501909166012817390754F4809184
S11301A061019091620101969093620180936101D3
S11301B004C01092620110926101ACE7B0E08C912E
S11301C0807E8C93E0916101F0916201EE0FFF1F3C
S11301D0EA5CFE4F808191812C918F719927822B4B
S11301E08C93FF91EF91BF91AF919F918F913F912C
S11301F02F910F900FBE0F901F901895E6E5F1E038
S113020084818083858181838681828387818383BE
S113021080B1848383B1858386B1868389B18783E2
S11302200895823481F018F4813431F021C083348C
S113023089F08434B1F01CC0E6E5F1E0908184815A
S1130240892789230895E6E5F1E09181858189274D
S113025089230895E6E5F1E092818681892789233F
S11302600895E6E5F1E0938187818927892308953C
S113027080E00895823481F018F4813431F021C093
S1130280833489F08434B1F01CC0E6E5F1E0908158
S11302908481892B80950895E6E5F1E0918185813B
S11302A0892B80950895E6E5F1E092818681892B7A
S11302B080950895E6E5F1E093818781892B809507
S11302C0089580E00895823481F018F4813431F087
S11302D021C0833489F08434B1F01CC0E6E5F1E038
S11302E094818081892789230895E6E5F1E0958149
S11302F08181892789230895E6E5F1E09681828149
S1130300892789230895E6E5F1E097818381892788
S11303108923089580E00895823479F018F48134B3
S113032031F01DC0833479F0843499F018C0E6E5C7
S1130330F1E09081848189230895E6E5F1E09181DB
S1130340858189230895E6E5F1E0928186818923F8
S11303500895E6E5F1E0938187818923089580E09B
S11303600895FC0180B1A6E5B1E014968C9314972E
S113037083B115968C93159786B116968C93169720
S113038089B117968C938EEF90E09183808381E1FD
S113039091E0938382838AE391E09583848383E667
S11303A091E0978386838CE891E091878087CF01E1
S11303B0089520915E01211137C01092850010929A
S11303C0840088309105B1F048F483309105D1F070
S11303D085309105C9F00197C9F41AC0811521E04F
S11303E0920761F0811524E0920751F08034910561
S11303F069F402C092E00DC093E00BC094E009C020
S113040095E007C096E005C097E003C095E001C001
S113041091E0E1E8F0E08081892B80838FB78068E8
S11304208FBF81E080935E010895E0E8F0E0908161
S11304309F739083823041F0833061F0813079F48E
S11304408081806480830895E0E8F0E080818068A2
S113045080830895E0E8F0E08081806C80830895D3
S1130460E0E8F0E090819F7C9083823041F083301B
S113047061F0813079F48081806180830895E0E8BF
S1130480F0E08081806280830895E0E8F0E080817C
S113049080638083089590938900809388000895F1
S11304A090938B0080938A000895E1E8F0E08081C6
S11304B0887F808310925E0108950F931F93CF93DA
S11304C0DF93DC0110925E018FEF9FEF9093890020
S11304D08093880090938B0080938A00C0E8D0E0DA
S11304E088818C7F8883C1E8D0E08881877E888377
S11304F0062F10E0F8013197EF30F10508F08EC0B7
S1130500E25CFF4F0C940812E0E8F0E08081816027
S1130510808384C0E0E8F0E08081826080837EC0D4
S1130520E0E8F0E080818360808378C0E1E8F0E077
S113053080818860808372C0E0E8F0E0808181601F
S11305408083E1E8F0E080818860808367C0E0E830
S1130550F0E0808182608083E1E8F0E0808188605F
S113056080835CC0E0E8F0E0808183608083E1E820
S1130570F0E080818860808351C0E1E8F0E0808110
S1130580806180834BC0E2E8F0E080818F738083D8
S1130590E0E8F0E0808181608083E1E8F0E0808140
S11305A0806180833BC0E0E8F0E0808182608083EA
S11305B0E1E8F0E080818061808330C0E2E8F0E02F
S11305C080818F738083E0E8F0E0808183608083A2
S11305D0E1E8F0E080818061808320C0E1E8F0E020
S11305E08081886180831AC0E0E8F0E080818260C5
S11305F08083E1E8F0E08081886180830FC0E2E8D5
S1130600F0E080818F738083E0E8F0E08081836094
S11306108083E1E8F0E0808188618083EFE6F0E0A8
S11306208081887D808350E0FA013197E930F105BB
S113063098F5E35BFF4F0C940812EFE6F0E080813D
S11306408160808329C0EFE6F0E08081846080834C
S113065023C0EFE6F0E08081826080831DC0EFE676
S1130660F0E080818062808317C0EFE6F0E0808153
S11306708560808311C0EFE6F0E080818360808331
S11306800BC0EFE6F0E080818660808305C0EFE672
S1130690F0E080818760808385E192E011969C93ED
S11306A08E9380E392E013969C938E9312978BE43F
S11306B092E015969C938E93149780E592E017969A
S11306C09C938E93169789ED91E019969C938E9343
S11306D0189785E592E01B969C938E931A97CD010B
S11306E0DF91CF911F910F910895FC018EE692E165
S11306F0918380838AEB92E1938382838CE892E1F5
S11307009583848386E792E19783868380ED92E1E3
S1130710918780878AEA92E19387828788EC92E1C5
S11307209787868788EC92E1958B848B8EE992E19A
S1130730978B868B8EE592E1918F808F80EB92E18F
S1130740938F828F8CE792E1958F848FCF010895E8
S11307506823442321F0861721F080E00895611175
S113076080E00895862B08958623089586230895AE
S1130770862B809508958627862308956095862381
S1130780089586270895CF92DF92EF92FF920F93F8
S11307901F93FC010081118122813381FB01C08000
S11307A0D180E280F380FC01C082D182E282F382B4
S11307B0FB0100831183228333831F910F91FF90E8
S11307C0EF90DF90CF900895FB012081FC012083FE
S11307D0222339F0DB01119631969D919193911169
S11307E0FCCF0895CF93DF93EC019881992399F07E
S11307F0FE01319620E030E0492F50E046175707BC
S113080031F0DE01A20FB31F9C932F5F3F4F9191F4
S11308109111F2CF02C020E030E0FE01E20FF31F9D
S11308201082DF91CF9108952F923F924F925F9261
S11308306F927F928F929F92AF92BF92CF92DF92EC
S1130840EF92FF920F931F93CF93DF9300D000D0CA
S1130850CDB7DEB72C011B014B0177231CF42FEF1E
S1130860821A920A95948794181419040CF451C0AE
S11308706AC09601DD209CF1F50140815181F401AB
S1130880608171816417750754F58C010A0D1B1D75
S1130890D401BC82AB82BA82A982EB81FC817183D0
S11308A0608311965C934E932E193F09C2F0F801B0
S11308B040815181E981FA8160817181080F191F9A
S11308C0E80FF91FFA83E983EB81FC81E80FF91F34
S11308D0FC83EB83A80FB91F64177507F4F2FFEFCD
S11308E0CF1ADF0A22E0A20EB11CE2E08E0E911CA8
S11308F0C614D70409F0BDCF4701FF201CF4FFEF55
S11309008F1A9F0A9594879418141904E4F47401B7
S113091001C07401821493047CF76401CE18DF08CB
S11309205601AA0CBB1CA40CB51C880C991C840C85
S1130930951C31016E187F08C701880F991F919586
S11309408195910996CF0F900F900F900F90DF91A2
S1130950CF911F910F91FF90EF90DF90CF90BF90B8
S1130960AF909F908F907F906F905F904F903F904B
S11309702F900895861797070CF4CB0108959B01D7
S1130980672B11F408959A01B9010E94D511AC01A5
S1130990822F932F41155105B1F70895FC019081E1
S11309A080ED890F8A30D0F4319620E030E0A9013F
S11309B0440F551F220F331F220F331F220F331FE3
S11309C0420F531F292F30E020533109240F351FC4
S11309D0919180ED890F8A3050F302C020E030E01D
S11309E0C901089586230895009739F020E030E086
S11309F02F5F3F4F82179307D9F7089587FF08C0E9
S1130A0091958195910999279195819591090895D9
S1130A108F779927089591FF08C091958195910941
S1130A2093709195819591090895917008956150FD
S1130A3021E030E002C0220F331F6A95E2F7A901DA
S1130A4041505109B90168237923672B29F0842384
S1130A509523821B930B08958423952308959DEC7D
S1130A60899F912D1124969596959695392F330F3C
S1130A70232F220F220F230F821B20E1929F800D30
S1130A8011240895982F92959F70990F292F220F62
S1130A90220F920F8F70890F0895FC01DB01A65974
S1130AA0BE4F1C921616170614F5908191110CC0B6
S1130AB017C0919191110DC015C081932F5F3F4FC5
S1130AC026173707D4F313C0AAE6B1E0319620E025
S1130AD030E09D932F5F3F4F6217730751F707C0B4
S1130AE020E030E0F901E659FE4F80E2E6CF8AE6E5
S1130AF091E008954F925F926F927F92AF92BF926E
S1130B00CF92DF92EF92FF920F931F93CF93DF93D5
S1130B10CDB7DEB729013A019B01AC01241935098F
S1130B204609570989899A89AB89BC89BC01CD01D9
S1130B306A197B098C099D090E94C511A8019701B6
S1130B4024193509460957090E94E911CA01B90156
S1130B506A0D7B1D8C1D9D1DDF91CF911F910F91FF
S1130B60FF90EF90DF90CF90BF90AF907F906F9009
S1130B705F904F90089570E06115710599F041E020
S1130B8050E021E030E090E0FA01E89FA001E99F05
S1130B90500DF89F500D11242F5F3F4F62177307BC
S1130BA098F702C041E050E0CA010895FC01208199
S1130BB0222341F0319680E090E0019621912111A9
S1130BC0FCCF089580E090E00895CF93DF93EC018B
S1130BD00E94D6059C012150310962F0FE01E80F04
S1130BE0F91F9291903219F09950923018F42150D3
S1130BF03109B8F7C20FD31F1982C901DF91CF9110
S1130C000895CF93DF93EC010E94D6059C012150F7
S1130C1031091216130684F4DE01A80FB91FFE0170
S1130C2080E090E040815E9151934C930196215075
S1130C30310982179307B4F3DF91CF9108956F922E
S1130C407F928F929F92AF92BF92CF92DF92EF9258
S1130C50FF920F931F93CF93DF936B017C01EA0103
S1130C60DC01CB01FF203CF488279927DC018C1997
S1130C709D09AE09BF09BC01CD01712C0F2EFAE00C
S1130C808F2E912CA12CB12CF02D01C0762C662432
S1130C906394670C8E01070D111DA50194010E9438
S1130CA0E911605DF8016083622F732F842F952F03
S1130CB016161706180619064CF3FF204CF4FE010D
S1130CC0E60DF11D8DE280836894662461F8670C5B
S1130CD0FE01E60DF11D1082CE010E940106DF9196
S1130CE0CF911F910F91FF90EF90DF90CF90BF9025
S1130CF0AF909F908F907F906F900895EF92FF92A6
S1130D000F931F93CF93DF938C01EB01992324F46A
S1130D1088279927801B910B20E00F2EFAE0EF2EF5
S1130D20F12CF02D01C0232F31E0320FFE01E20F30
S1130D30F11DB7010E94D511805D8083862F972F06
S1130D401816190684F311233CF4FE01E30FF11D78
S1130D508DE2808332E0320FFE01E30FF11D108239
S1130D60CE010E940106DF91CF911F910F91FF9058
S1130D70EF9008951F93CF93DF93AC01FB0180E0C4
S1130D8011E0180FEF01C80FD11D9A01ADECBCECB6
S1130D900E940E12969587959695879596958795B8
S1130DA09C01220F331F880F991F880F991F880FEA
S1130DB0991F820F931F9A01281B390BC901805D6B
S1130DC088839A010E940E12AC0156954795569558
S1130DD0479556954795812F4115510589F6DF01B1
S1130DE0A10FB11D1C92CF010E940106DF91CF918A
S1130DF01F910895982F92959F70990F292F220F74
S1130E00220F920F8F70890F0895AC019C01ADECF5
S1130E10BCEC0E940E1296958795969587959695AB
S1130E208795BC01660F771F9C01220F331F220F89
S1130E30331F220F331F260F371F421B530B342F30
S1130E4020E1829F300D1124832F0895CF92DF92E9
S1130E50EF92FF92CF93DF93CDB7DEB728970FB60B
S1130E60F894DEBF0FBECDBF6B017C0169837A832A
S1130E708B839C832D833E834F835887C216D3066E
S1130E80E406F5063CF4BE016B5F7F4FCE0101968C
S1130E900E94C3038D819E81AF81B885892B8A2BE3
S1130EA08B2B71F469817A818B819C8120E030E005
S1130EB0A9010E94E911611571058105910529F4C3
S1130EC06D817E818F81988505C06D837E838F833C
S1130ED09887F6CF28960FB6F894DEBF0FBECDBF25
S1130EE0DF91CF91FF90EF90DF90CF90089590E045
S1130EF002C0959587956A95E2F781700895EAE6B0
S1130F00F1E090E020E850E341E3382F322311F080
S1130F10408301C0508326959F5F31969830A9F78E
S1130F20109272018AE691E00895A42FB0E0109720
S1130F3061F021E030E0E1E0F0E0EE0FFF1F2F5F11
S1130F403F4FA217B307C8F702C0E1E0F0E03197C2
S1130F506E237F238E239F23862797276823792355
S1130F6002C0660F771F4A95E2F7862B972B0895E8
S1130F70FC019FB78FB78F778FBF9FBF8BEB95E037
S1130F809183808386ED95E09383828381E096E06C
S1130F909583848385E997E09783868388EA93E041
S1130FA09187808786EB93E09387828788EB93E031
S1130FB0958784878BEB93E0978786878EEB93E006
S1130FC0918B808B81EC93E0938B828B82EB93E00B
S1130FD0958B848B84EB93E0978B868B83EC93E0E7
S1130FE0918F808F84EE93E0938F828F82EF93E0D2
S1130FF0958F848F84E194E0978F868F8EE796E0B7
S113100091A380A38AEB96E093A382A38FE196E059
S113101095A384A385EE95E097A386A38AEB94E039
S113102091A780A78FEB94E093A782A78EEC94E01E
S113103095A784A782EF94E097A786A784EF94E00E
S113104091AB80AB8EEF94E093AB82AB8BE095E0F9
S113105095AB84AB87E195E097AB86AB8FE295E0E7
S113106091AF80AF82E495E093AF82AF8DE495E0D9
S113107095AF84AF8AE795E097AF86AFDF01A05CB8
S1131080BF4F8AEF96E011969C938E93129685E05B
S113109097E011969C938E93129686E297E01196B0
S11310A09C938E93129687E797E011969C938E9368
S11310B012968FE797E08D939C93CF01089580E279
S11310C08093870110928401E8E8F1E08DE991E0D2
S11310D01192E817F907E1F70895CF93DF9321E020
S11310E080E0ACE7B1E0E0E8F1E060E071E001C08D
S11310F02F5F9FEF920F913009F44BC038F092307C
S113110009F48CC0933009F4CEC00EC140919D0106
S113111050919E01EA0198819068988340917A01E8
S113112050917B01EA0198819F77988340918501D2
S113113050918601EA01388134773C939081432FA2
S1131140492794233083992399F0943019F4EB01BF
S113115088810AC0903119F4EB01898109C0903269
S113116019F4EB018A8104C0903411F4EB018B81F2
S113117040919D0150919E01EA0198819F77988347
S113118040917A0150917B01EA019881906898839B
S1131190AFCF40919D0150919E01EA0198819160E9
S11311A0988340917A0150917B01EA0198819E7F56
S11311B098834091850150918601EA013881347702
S11311C011963C9311979181432F4927942331839E
S11311D0992399F0943019F4EB018C810AC0903171
S11311E019F4EB018D8109C0903219F4EB018E8161
S11311F004C0903411F4EB018F8140919D01509112
S11312009E01EA0198819E7F988340917A015091D2
S11312107B01EA019881916098836ACF40919D0196
S113122050919E01EA0198819260988340917A01DD
S113123050917B01EA0198819D7F988340918501BB
S113124050918601EA013881347712963C931297C3
S11312509281432F492794233283992399F0943020
S113126019F4EB0188850AC0903119F4EB018985E2
S113127009C0903219F4EB018A8504C0903411F44A
S1131280EB018B8540919D0150919E01EA0198816B
S11312909D7F988340917A0150917B01EA01988166
S11312A09260988325CFE0919D01F0919E019081F9
S11312B098609083E0917A01F0917B019081977F0F
S11312C09083E0918501F091860120812477209319
S11312D07F01E0E8F1E09381322F392793232383C0
S11312E0992399F0943019F480910C010AC090313B
S11312F019F480910D0109C0903219F480910E0106
S113130004C0903411F480910F01E0919D01F0919B
S11313109E019081977F9083E0917A01F0917B0107
S113132090819860908303C0243008F4E1CEDF916B
S1131330CF910895CF93DF93EC010E946D08882329
S113134089F08093870190918401943158F4E0915D
S11313508401F0E0E957FE4F8183809184018F5F1F
S11313608093840186E1E7E8F1E0DE0101900D92CB
S11313708A95E1F7CE01DF91CF910895CF93DF9362
S113138000D000D000D0CDB7DEB7FC012FB780E28B
S1131390809387019FB79F779FBFF0939E01E0934F
S11313A09D01709386016093850150937B01409366
S11313B07A018BE88083E0917A01F0917B0184E7E4
S11313C08083ACE7B1E08C93E0E8F1E08083119690
S11313D08C931197818312968C9312978283139620
S11313E08C938383109284012FBFE0917A01F09152
S11313F07B0180818B6880832DE638E03A832983E2
S11314004AE959E05C834B836FE578E07E836D8322
S11314103A815C817E8180E090E026960FB6F89454
S1131420DEBF0FBECDBFDF91CF910895E091A9013A
S1131430F091AA0190819D7F9083672B41F0E09108
S1131440A901F091AA0190819160908307C0E09175
S1131450A901F091AA0190819E7F9083E091A60159
S1131460F091A7019081906F9083E091A901F09190
S1131470AA01908194609083882344F4E091A901A7
S1131480F091AA0190819068908307C0E091A9012E
S1131490F091AA0190819F77908386FF08C0E09124
S11314A0A901F091AA0190819064908307C0E09112
S11314B0A901F091AA0190819F7B908385FF08C0C8
S11314C0E091A901F091AA0190819062908307C0F4
S11314D0E091A901F091AA0190819F7D908384FFFE
S11314E008C0E091A901F091AA01908190619083D4
S11314F007C0E091A901F091AA0190819F7E908399
S1131500E091A901F091AA0190819B7F9083E091E1
S1131510A901F091AA0190819460908383FF08C08F
S1131520E091A901F091AA0190819068908307C08D
S1131530E091A901F091AA0190819F77908382FFA5
S113154008C0E091A901F091AA0190819064908370
S113155007C0E091A901F091AA0190819F7B90833B
S113156081FF08C0E091A901F091AA0190819062E5
S1131570908307C0E091A901F091AA0190819F7D19
S1131580908380FF08C0E091A901F091AA018081B5
S11315908061808307C0E091A901F091AA01808154
S11315A08F7E8083E091A901F091AA0180818B7FD5
S11315B080830895E091A601F091A70120812F7006
S11315C02083E091A901F091AA012081206F20835A
S11315D0E091A901F091AA01208122602083892B46
S11315E041F0E091A901F091AA018081816080839A
S11315F007C0E091A901F091AA0180818E7F8083C8
S1131600E091A901F091AA01808184608083E09136
S11316109F01F091A0018081882314F080E001C033
S113162080E8908196FF02C0806401C08F7B908126
S113163095FF02C0806201C08F7D908194FF02C03B
S1131640806101C08F7EE091A901F091AA0190818F
S11316509B7F9083E091A901F091AA01908194600D
S11316609083E0919F01F091A0019081992314F45B
S1131670886001C0877F908196FF02C0846001C0AA
S11316808B7F908195FF02C0826001C08D7F908125
S113169094FF02C0816001C08E7FE091A901F091A6
S11316A0AA0190819B7F90830895CF93DF9380E07C
S11316B090E00E94DA0ACBE0D0E006C080E090E03F
S11316C00E94DA0A219711F08823C4F3DF91CF91A5
S11316D0089561E070E00E94160A0E94550B089577
S11316E0CF9381E090E00E94DA0AC82F0E94550B44
S11316F08C2FCF910895CF93DF93EC0188818823B9
S113170051F0219661E070E00E94160A0E94550B88
S113171089918111F7CFDF91CF9108950F931F9392
S1131720CF93DF93FC01D62F8081882351F08F0162
S11317300F5F1F4F611109C01FC0CF5FDC1730F46A
S113174001C0C0E0CD1770F017C0C1E061E070E0E7
S11317500E94160A0E94550BF80181918F01811194
S1131760ECCFF0CFCF5F61E070E080E20E94160A18
S11317700E94550BCD17B0F3DF91CF911F910F91BC
S11317800895CF93C82F882349F061E070E080E288
S11317900E94160A0E94550BC150B9F7CF910895C3
S11317A0262F8130910581F030F082309105A9F027
S11317B00397E1F0089560E070E080E8820F0E94F2
S11317C0160A0E94550B089560E070E080EC820FC9
S11317D00E94160A0E94550B089560E070E084E9A7
S11317E0820F0E94160A0E94550B089560E070E073
S11317F084ED820F0E94160A0E94550B089560E042
S113180070E081E00E94160A83EF9BE00197F1F7F4
S113181000C000000895E091A601F091A70187E0BF
S11318208083E091A901F091AA0188E080832FEFE1
S113183089EF90E0215080409040E1F700C0000023
S113184060E070E083E30E94160A28E62A95F1F727
S113185060E070E083E30E94160A88E68A95F1F757
S113186060E070E08BE20E94160A92E69A95F1F726
S113187000C060E070E08CE00E94160A22E62A951F
S1131880F1F700C060E070E081E00E94160A83EF87
S11318909BE00197F1F700C0000060E070E086E093
S11318A00E94160A92E69A95F1F700C008951F93D4
S11318B0CF93DF93EC011FB78FB78F778FBF7093F0
S11318C0A7016093A6015093A00140939F01309318
S11318D0AA012093A901FB011082E091A901F091D2
S11318E0AA018FEF8083E0919F01F091A001808194
S11318F088708093A8010E940B0C1FBF86E19AE0B8
S1131900998388838AED9AE09B838A8385E59BE0AB
S11319109D838C8389E69BE09F838E8380E79BE095
S1131920998788878BE79BE09B878A878EE89BE073
S11319309D878C8781EC9BE09F878E878FEF9BE050
S1131940998B888B80ED9BE09B8B8A8B8FEA9CE044
S11319509D8B8C8BCE01DF91CF911F910895CF93F6
S1131960E0919F01F091A001C081C8708091A8010D
S11319708C278C2311F00E940B0CC093A801CF91EB
S1131980089581E38AB980E38BB90895CF93DF93F7
S1131990CDB7DEB7C35BD1090FB6F894DEBF0FBE77
S11319A0CDBF0E94C10CCE0107960E94B10143E055
S11319B064E0CE0141960E945D0229893A89CE54A1
S11319C0DF4F39832883C25BD0408D899E89C755F8
S11319D0DF4F99838883C95AD040E98DFA8DC25567
S11319E0DF4FF983E883CE5AD0402B8D3C8DC05510
S11319F0DF4F39832883C05BD04042E250E060E28D
S1131A0070E081E290E00E94BE092D8F3E8F28E2B3
S1131A1030E046E250E067E270E0CE0183960E9437
S1131A20570C0FA118A58DA59EA5CF55DF4F9983FF
S1131A308883C15AD040CFA4D8A8A9A8BAA86DA8B1
S1131A407EA8CE01C9960E94B8076F968EAC9FAC53
S1131A506F97CE018D579F4F0E947503C757DF4F75
S1131A6048805980C958D040C357DF4FE881F98175
S1131A70CD58D040C955DF4FF983E883C75AD040C9
S1131A8060E070E080E090E0F30109956CE084E1AF
S1131A9091E0F6010995F801099580E090E0F201E2
S1131AA009957C0184E090E0F2010995CD55DF4F62
S1131AB099838883C35AD04088E090E0F201099565
S1131AC0C555DF4F99838883CB5AD0409093130137
S1131AD0809312018CE090E0F20109952C0190931F
S1131AE0110180931001CD55DF4F28813981C35AEC
S1131AF0D04028303105C9F020F42130310571F08F
S1131B0029C0CD55DF4F88819981C35AD040803494
S1131B10910591F081159140B1F01CC0F1E0C355DD
S1131B20DF4FF883CD5AD0401AC022E0C355DF4FAF
S1131B302883CD5AD04013C033E0C355DF4F3883D8
S1131B40CD5AD0400CC084E0C355DF4F8883CD5AB2
S1131B50D04005C0C355DF4F1882CD5AD04081E034
S1131B60CE54DF4FE881F981C25BD0400995C701AB
S1131B70C755DF4FE881F981C95AD0400995CD5541
S1131B80DF4F88819981C35AD040C255DF4FE88125
S1131B90F981CE5AD0400995CB55DF4FF982E882BE
S1131BA0C55AD04022242394EF81F8850995ED8D00
S1131BB0FE8D0995382E882309F42BC3F801099565
S1131BC060E070E081E090E0F30109958EE191E03E
S1131BD0CF55DF4FE881F981C15AD0400995E9A575
S1131BE0FAA5832D099583E0F5010995F801099576
S1131BF060E070E080E090E0F30109956CE084E23D
S1131C0091E0F6010995F8010995F4E43F1258C0F2
S1131C102AE030E0309313012093120180E49FE125
S1131C209093110180931001C055DF4FE881F98131
S1131C30C05BD0400995822DCE54DF4FE881F981F5
S1131C40C25BD040099580E098E0C755DF4FE8813A
S1131C50F981C95AD040099580E094E0C255DF4F1C
S1131C60E881F981CE5AD04009952AE030E0C55583
S1131C70DF4F39832883CB5AD040C355DF4F1882B6
S1131C80CD5AD040CD55DF4F1882C35AD04034E0EE
S1131C90CC55DF4F3883C45AD04080E098E0CB5510
S1131CA0DF4F99838883C55AD040E12C6894FF2480
S1131CB0F3F80F2EF0E44F2EFFE15F2EF02D32C02B
S1131CC09AE2391216C0E1E04E1A510880911001CF
S1131CD0909111018415950538F410921101109218
S1131CE01001412C512C39C0509211014092100125
S1131CF034C0F0E33F1216C02AE0421A5108809122
S1131D001001909111018415950538F41092110178
S1131D1010921001412C512C3BC050921101409261
S1131D20100136C037E3331218C08FEF481A580A2F
S1131D3080911001909111014816590648F49FEFC3
S1131D40909310019093110144244A94542C53C04D
S1131D5050921101409210014EC0E8E33E1218C0A7
S1131D60FAE04F0E511C8091100190911101481618
S1131D70590648F42FEF20931001209311014424B5
S1131D804A94542C6EC0509211014092100169C0C3
S1131D9033E2331230C0C555DF4F88819981CB5A65
S1131DA0D0400197C555DF4F99838883CB5AD040E3
S1131DB08091120190911301C555DF4FE881F9819B
S1131DC0CB5AD0408E179F0758F4109213011092EB
S1131DD01201C555DF4F19821882CB5AD0406DC00D
S1131DE0C555DF4F28813981CB5AD0403093130138
S1131DF02093120162C039E3331233C0C555DF4F5B
S1131E0088819981CB5AD0400196C555DF4F99837B
S1131E108883CB5AD0408091120190911301C5550B
S1131E20DF4FE881F981CB5AD040E817F90770F405
S1131E30FFEFF0931201F09313012FEF3FEFC5551D
S1131E40DF4F39832883CB5AD0405AC0C555DF4F62
S1131E5088819981CB5AD0409093130180931201C9
S1131E604FC094E3391229C0CB55DF4F8881998143
S1131E70C55AD0400197E816F90628F08330910539
S1131E8040F07C010BC00F2EF3E0EF2EF02DF12C6F
S1131E9005C00F2EF3E0EF2EF02DF12CC701C7552E
S1131EA0DF4FE881F981C95AD0400995CB55DF4FFE
S1131EB0F982E882C55AD04047C0F5E33F1220C0FA
S1131EC0CB55DF4F88819981C55AD0400A97E816CF
S1131ED0F90610F07C0105C00F2EF3E0EF2EF02D73
S1131EE0F12CC701C755DF4FE881F981C95AD040A9
S1131EF00995CB55DF4FF982E882C55AD04048C0D6
S1131F00F6E33F1221C0CB55DF4F88819981C55A32
S1131F10D04084569109E816F90610F07C0105C0FA
S1131F200F2EF3E0EF2EF02DF12CC701C755DF4F34
S1131F30E881F981C95AD0400995CB55DF4FF98220
S1131F40E882C55AD04046C0F2E43F1221C0CB55C6
S1131F50DF4F88819981C55AD040885E9340E81646
S1131F60F90610F07C0105C00F2EF3E0EF2EF02DE2
S1131F70F12CC701C755DF4FE881F981C95AD04018
S1131F800995CB55DF4FF982E882C55AD04044C049
S1131F90F1E33F121FC0CB55DF4F88819981C55AA9
S1131FA0D04001968E159F0510F07C0104C0EE24EC
S1131FB0EA94FF24FA94C701C755DF4FE881F981F9
S1131FC0C95AD0400995CB55DF4FF982E882C55AEA
S1131FD0D04045C0F2E33F121FC0CB55DF4F88818C
S1131FE09981C55AD0400A968E159F0510F07C0140
S1131FF004C0EE24EA94FF24FA94C701C755DF4FC6
S1132000E881F981C95AD0400995CB55DF4FF9824F
S1132010E882C55AD04046C0F3E33F1220C0CB55F6
S1132020DF4F88819981C55AD0408C599F4F8E15B6
S11320309F0510F07C0104C0EE24EA94FF24FA9476
S1132040C701C755DF4FE881F981C95AD0400995C6
S1132050CB55DF4FF982E882C55AD040A7C0F1E4DE
S11320603F1220C0CB55DF4F88819981C55AD0409B
S113207088519C4F8E159F0510F07C0104C0EE24FE
S1132080EA94FF24FA94C701C755DF4FE881F98128
S1132090C95AD0400995CB55DF4FF982E882C55A19
S11320A0D04084C0F3E43F1281C0C355DF4F288180
S11320B0CD5AD040223001F130F4222309F455C026
S11320C0213059F04BC0C355DF4F3881CD5AD04031
S11320D0333009F1343089F141C082E0C355DF4F18
S11320E08883CD5AD040E8E0F0E0CD55DF4FF98346
S11320F0E883C35AD04046C0F3E0C355DF4FF883AA
S1132100CD5AD04020E430E0CD55DF4F39832883C9
S1132110C35AD04037C034E0C355DF4F3883CD5A5B
S1132120D040CD55DF4F1882C35AD04081E0CC5502
S1132130DF4F8883C45AD04025C0C355DF4F18826F
S1132140CD5AD040CD55DF4F1882C35AD04094E0C9
S1132150CC55DF4F9883C45AD04014C0E4E0C35533
S1132160DF4FE883CD5AD0400DC0C355DF4F2882DE
S1132170CD5AD04021E030E0CD55DF4F398328835C
S1132180C35AD040C055DF4FE881F981C05BD040CD
S11321900995CD55DF4F88819981C35AD040C255E6
S11321A0DF4FE881F981CE5AD0400995B70180E02C
S11321B090E0C955DF4FE881F981C75AD0400995AD
S11321C0CD55DF4F68817981C35AD04084E090E0D7
S11321D0C955DF4FE881F981C75AD040099560910C
S11321E012017091130188E090E0C955DF4FE88136
S11321F0F981C75AD040099560911001709111017D
S11322008CE090E0C955DF4FE881F981C75AD0408E
S11322100995C701A0E0B0E0AE014F5F5F4FBC017C
S1132220CD01F401099560E070E082E090E0F301F3
S1132230099565E0CE010196F6010995F801099525
S1132240822DF50109958EE291E0CF55DF4FE881AB
S1132250F981C15AD0400995822DF5010995CD55D2
S1132260DF4F28813981C35AD040C901A0E0B0E0D2
S1132270AE014F5F5F4FBC01CD01F401099565E0EC
S1132280CE010196F6010995F801099560911001B6
S1132290709111017695679580E090E0AE014F5FF3
S11322A05F4FF401099560E070E083E090E0F30192
S11322B0099565E0CE010196F6010995F8010995A5
S11322C0822DF501099581E391E0CF55DF4FE88137
S11322D0F981C15AD0400995822DF5010995609183
S11322E01201709113017695679580E090E0AE013C
S11322F04F5F5F4FF401099565E0CE010196F60149
S11323000995F801099550CC1F920F920FB60F92C0
S113231011242F933F934F935F938F939F938091B7
S11323205F019091600101969093600180935F0139
S113233020915F013091600180911201909113010D
S11323408217930708F45C9820915F013091600133
S1132350409112015091130180911001909111014B
S1132360840F951F8217930728F45C9A10926001DA
S113237010925F019F918F915F914F913F912F91A7
S11323800F900FBE0F901F901895DB018F939F93B2
S11323900E941D12BF91AF91A29F800D911DA39F1A
S11323A0900DB29F900D1124089597FB072E16F4FB
S11323B0009407D077FD09D00E94281207FC05D0AD
S11323C03EF4909581959F4F0895709561957F4F48
S11323D00895052E97FB1EF400940E94001257FDE9
S11323E007D00E943C1207FC03D04EF40C94001258
S11323F050954095309521953F4F4F4F5F4F08952D
S113240090958095709561957F4F8F4F9F4F08955C
S1132410EE0FFF1F0590F491E02D0994A29FB001E7
S1132420B39FC001A39F700D811D1124911DB29F04
S1132430700D811D1124911D08950E940E12A59FF7
S1132440900DB49F900DA49F800D911D11240895AB
S1132450AA1BBB1B51E107C0AA1FBB1FA617B707C6
S113246010F0A61BB70B881F991F5A95A9F78095E2
S11324709095BC01CD010895A1E21A2EAA1BBB1BA5
S1132480FD010DC0AA1FBB1FEE1FFF1FA217B3073C
S1132490E407F50720F0A21BB30BE40BF50B661F52
S11324A0771F881F991F1A9469F760957095809516
S11324B090959B01AC01BD01CF010895DC01CB01D6
S11324C0FC01F999FECF06C0F2BDE1BDF89A319640
S11324D000B40D9241505040B8F70895F999FECFD9
S11324E092BD81BDF89A992780B50895A8E1B0E01E
S11324F042E050E00C946012DC01A40FB51F41507F
S1132500504048F0CB01840F951F2E910E948D12EC
S113251041505040D0F70895262FF999FECF92BD2F
S113252081BDF89A019700B4021639F01FBA20BD94
S11325300FB6F894FA9AF99A0FBE08950396272FC6
S11325400E948D120E948C12252F0E948D12242F1E
S11325500C948D120196272F0E948D120C948C12CC
S1132560DC01CB0103C02D910E94BB1241505040AD
S1132570D0F70895262FF999FECF1FBA92BD81BDD9
S113258020BD0FB6F894FA9AF99A0FBE01960895F1
S1132590242F0E94BB12252F0E94BB120C94D01230
S11125A00E94BA12272F0C94BB12F894FFCF9E
S11325AE3132334134353642373839432A302344B5
S11325BE401F0A00426F6D206469612021004B6543
S11325CE793A200052756E6E696E6720210061742F
S10925DE00616E640000C0
S9030000FC
